:020000022000DC
:1060000000000120E1620200096302000B6302004C
:106010000D6302000F630200116302000000000024
:1060200000000000000000000000000013630200F8
:1060300015630200000000001763020019630200EC
:106040000D8B02001B630200C19302001B63020060
:106050001B6302001B630200998E02001B63020097
:106060001B6302001B6302001B6302001B63020030
:106070001B6302001B6302001B6302001B63020020
:106080001B6302007D7202001B6302001B6302009F
:106090001D7302001B63020081BF02001B6302002C
:1060A0001B6302001B6302001B6302001B630200F0
:1060B0001B6302001B6302000000000000000000E0
:1060C0001B6302001B6302001B6302001B630200D0
:1060D0001B6302001B6302001B6302000000000040
:1060E00000000000000000000000000000000000B0
:1060F00000000000000000000000000000000000A0
:10610000000000000000000000000000000000008F
:10611000000000000000000000000000000000007F
:10612000000000000000000000000000000000006F
:10613000000000000000000000000000000000005F
:10614000000000000000000000000000000000004F
:10615000000000000000000000000000000000003F
:10616000000000000000000000000000000000002F
:10617000000000000000000000000000000000001F
:10618000000000000000000000000000000000000F
:1061900000000000000000000000000000000000FF
:1061A00000000000000000000000000000000000EF
:1061B00000000000000000000000000000000000DF
:1061C00000000000000000000000000000000000CF
:1061D00000000000000000000000000000000000BF
:1061E00000000000000000000000000000000000AF
:1061F000000000000000000000000000000000009F
:1062000010B5054C237833B9044B13B10448AFF3F0
:1062100000800123237010BD4022002000000000F8
:1062200074D102000C4B43B10C480D4910B5AFF3CB
:1062300000800C48036823B910BD0A48036833B9CD
:106240007047094B002BF7D0BDE810401847064BAC
:10625000002BF5D0184700BF0000000074D10200E9
:10626000442200203C22002000000000154B002B9F
:1062700008BF134B9D46A3F5803A00218B460F467D
:106280001348144A121A06F065F80F4B002B00D081
:1062900098470E4B002B00D09847002000210400A7
:1062A0000D000D48002802D00C48AFF3008005F027
:1062B000F3FF2000290003F0EFFE05F0D9FF00BF37
:1062C00000000800000001200000000000000000A5
:1062D00040220020742F0020000000000000000079
:1062E0000649074A074B9B1A03DD043BC858D050A8
:1062F000FBDC02F0BBF8FFF7B9FF000074D202002C
:10630000701D002040220020FEE7FEE7FEE7FEE7CA
:10631000FEE7FEE7FEE7FEE7FEE7FEE7F0B595B035
:10632000002415460F4608461E4601F073FF384606
:1063300023460822089505A91A9D09960D950A94E9
:106340008DF82C400C9401F0C1FF9DF81430079893
:1063500006998DF8114003F00302012A029003917F
:1063600028D0022A04D0384601F058FF15B0F0BDFD
:10637000BDF81650C3F3C2038DF81030C5F389156C
:106380000826082D2C4628BF0824334622460EA98D
:10639000384601F09BFF2D1B214608AB02AA0EA830
:1063A000264400F02BFD002DEBD1384601F036FFDE
:1063B00015B0F0BDBDF81460059DC6F38316C3F398
:1063C000C204B2000EA9384608238DF81040C5F368
:1063D000952501F07BFF08AB0093324628460EA9B5
:1063E00002AB00F065FCBEE7014B01221A7070475A
:1063F000A0220020704700BF00B583B0044B00937B
:10640000044A4023FFF78AFF03B05DF804FB00BF96
:10641000196402006022002038B50E480E4D037842
:106420000E4CEB5C00252570D2B253B90C3003F052
:1064300013FA58B90A4B1B7813B12378002BFCD000
:1064400038BD043003F05AFC0028F3D000F0CEFE33
:10645000F0E700BF701D0020702F0020A022002058
:106460005C22002070B51348134A0378D35C88B0CF
:10647000DBB90C3003F08AF9104D0FCD6C460FC418
:1064800095E80F0008AD062645F8206D84E80F005A
:1064900029460022074802F0CBFA08B100F0A6FE18
:1064A000074B00221A7008B070BD043003F0BEFB29
:1064B000E2E700BF701D0020702F0020C0C3020063
:1064C0005C22002070B50D4D0FCD88B06C460FC416
:1064D00095E80F0008AD062645F8206D84E80F000A
:1064E0002946074A074802F0A3FA08B100F07EFEE9
:1064F000054B01221A7008B070BD00BFC0C3020076
:10650000E9630200701D00205C22002008B5FFF73F
:10651000D9FF0421034800F083FB034B01225A7189
:1065200008BD00BF5CD20200841D0020F0B5334DD1
:1065300085B005F5836001F079FA05F2144001F0A9
:1065400075FA6B68AE6803EA0600C11C05EB8102B0
:1065500015F8214014F004040ED0117801F0030165
:1065600001293BD0022903F1020700F1030126D0E3
:1065700005EB8102002CF0D105EB80005A1CC168AC
:106580000191324005EB820201F00301D2680292D0
:10659000012903F1020429D0022925D1BDF80630D2
:1065A000BDF80A60C3F38913033304EB9304144862
:1065B00001F04AFA00B16C60304605B0F0BD538876
:1065C00007EB931306EA0300C11C05EB810215F8E3
:1065D000214004F00404002CBFD1CDE71188023320
:1065E000C1F383110B44EDE70026E0E7BDF804306A
:1065F000BDF80A60C3F383131C44D8E7742300205A
:10660000882700200B4B0C4810B50022FF21C3F84F
:10661000182499601A605A60C3F8142483F820245F
:1066200001F0AEFD044610B9044801F0C5FE204655
:1066300010BD00BF7423002030D2020000C402004D
:1066400021B9114B03EBC0000068704730B40F4A0A
:106650000D4C121BD2080CD00D4D2B88834210D04C
:10666000002303E035F82310814205D001339A421C
:10667000F8D1002030BC704704EBC300006830BC88
:1066800070472046FAE700BFB8D1020030D20200BE
:1066900040220020094B013903EBC00003290BD82D
:1066A000DFE801F0020806040220704740797047D5
:1066B000007970470420704700207047B8D102006D
:1066C0002DE9F047944C94E80C009A4284B000F015
:1066D000BB800023C4F81834BFF34F8F6368A568EC
:1066E00003EA0501CA1C04EB820614F822205007B5
:1066F0001AD52768327802F00302012A44D0022A10
:1067000003F1020202D1738802EB931305EA03013D
:10671000D4F81804CA1C04EB820628B99F4239D960
:1067200014F822205207E5D404EB81015A1CC968F1
:1067300001912A4004EB820201F00301D268029227
:10674000022903F1020829D0012900F08180D4F840
:1067500010543DB12B6828469B689847EB681D682C
:10676000002DF7D16D486E4B6E49C01AC008000469
:1067700040F0020000F0DCF860682368C01A18BF1F
:10678000012004B0BDE8F08732880233C2F38312DF
:106790001344BBE7676004B0BDE8F087BDF806307E
:1067A0006148C3F389194F46502FA8BF502767F39C
:1067B0008F1307F10801ADF8063001F0E3FC06463F
:1067C0000028C4D025EA080A0AF1010A01F022FDD6
:1067D0004FEA8A0A0023082201A9304601F040FD51
:1067E000574572D9BAF1000F7ED13A4608234F4976
:1067F000304601F035FD09F1030708EB9707D4F89F
:106800001834002B6CD1D4F810545DB1EB685A7970
:10681000314628461AB12B681B689847EB681D68FB
:10682000002DF3D1304601F0F9FC04A8002300F854
:106830000D3D01F05BF8D4F8183403B967609DF89A
:10684000030001F079F897E7002004B0BDE8F08775
:10685000BDF804303448C3F38312062A28BF062249
:10686000911C62F389138900ADF8043001F08AFCB1
:10687000064600283FF46BAF01F0CCFC0023082251
:1068800001A9304601F0ECFCBDF8043013F4707F30
:106890003FD04FF0000A4FF0080905EA0801033124
:1068A0004B4604EB81010422304601F0D9FCBDF8CF
:1068B00004300AF1010AC3F3831308F101075345B9
:1068C00009F10409B846E8D899E705EA0801033157
:1068D00004EB81013A460823304601F0C1FC8AE707
:1068E000304601F09BFC47E705EA08010331A7EBBE
:1068F0000A0504EB810152463046EDB2082301F04F
:10690000AFFC2A460AF108030849304601F0A8FC0A
:1069100071E7474673E700BF74230020E0D102000F
:10692000B8D102000CC4020030D202008023002043
:106930002DE9F04383B002AB002203F8012DDFF80C
:10694000E090074618468846D9F8085000F0CEFF78
:10695000D9F80820D9F80430D9F80060134401337D
:106960009B1B012B57D809F21C440121204601F042
:1069700041F8FFF7DBFD0146204601F03BF899E8BE
:106980000A00D9F80820134401335B1A012BECD913
:1069900001240A40033244F004036FF389130231E7
:1069A0009DF8070049F82230C9F8001000F0C4FF34
:1069B00000211A4800F0F6FF80F3100033192B4035
:1069C00009EB830300043540033540EA1740D860E3
:1069D00019F8253067F3C50309F8253039F8253053
:1069E0006FF3891329F8253059F8252068F39F2281
:1069F000134664F301036FF3820349F8252009F875
:106A0000253099F820341BB1FFF75AFE0028FBD13E
:106A100003B0BDE8F0833146BAE700BF90270020FD
:106A2000742300202DE9F04782B002AB002403F864
:106A3000014D374C8046184692468946A56800F0BD
:106A400055FFA2686368276813440133DB1B022BE0
:106A50005BD804F21C460121304600F0CBFFFFF763
:106A600065FD0146304600F0C5FF94E80A00A268C3
:106A7000134401335B1A022BEDD901260A4003327D
:106A800046F0040366F3891344F8223003319DF87D
:106A90000700216000F050FFBB1C2B4004EB830378
:106AA00000211C48C3F80CA000F07CFF80F310000C
:106AB000BB192B4004EB830300043D40033540EA3F
:106AC0001840D86014F8253068F3C50304F8253061
:106AD00034F8253066F3891324F8253054F825203E
:106AE00069F39F22134666F301036FF3820344F8B0
:106AF000252004F8253094F820341BB1FFF7E0FD81
:106B00000028FBD102B0BDE8F0873946B5E700BFE9
:106B100074230020902700202DE9F04F85B004ADAC
:106B2000002405F8014D3C4C0193804628469346CD
:106B30008946A66800F0DAFEA268636827681344F5
:106B40000133DB1B032B65D804F21C4501212846C9
:106B500000F050FFFFF7EAFC0146284600F04AFF2C
:106B600094E80A00A268134401335B1A032BEDD9A1
:106B700001250A4003324FF0020A45F004036AF38C
:106B8000891344F8223004319DF80F00216000F091
:106B9000D3FE07EB0A0EFA1C0EEA060E324004EB97
:106BA000820204EB8E0E019B1C48CEF80CB0002133
:106BB000D36000F0F7FE80F310007A19324004EB46
:106BC000820200043E40033640EA1840D06014F8C8
:106BD000262068F3C50204F8262034F826206AF33C
:106BE000891224F8262054F8262069F39F221346A0
:106BF00065F301036FF3820344F8262004F826307E
:106C000094F820341BB1FFF75BFD0028FBD105B0E1
:106C1000BDE8F08F3946ABE77423002090270020B1
:106C200030B4174DD5F8104400215CB1E3681A79EF
:106C30008A4204D116E0DB681A798A4212D01B68B6
:106C4000002BF8D1C3681971D5F8103493B1DA6804
:106C5000C36812681A60D5F81034DB6818600846FB
:106C600030BC704701310A29DFD14FF0FF310846AF
:106C700030BC7047C5F81004C2681360EFE700BF6E
:106C80007423002038B5094BD3F81044012583F84C
:106C900020544CB1E3685D71236820465B689847D7
:106CA000E3681C68002CF5D138BD00BF74230020B8
:106CB0002DE9F04784B01D460C9C002394F80C800D
:106CC0002373EB8881460E461746002B3BD1297A69
:106CD00005290FD06B7A002B3DD1404BA88853F883
:106CE00021A00021FFF7ACFC524603463C49204658
:106CF00000F024FF062F0FD8DFE807F0484D535A65
:106D000004633900F168B06896E80C0001910090C6
:106D10004946204600F012FF2B7A052B05D06B7AEE
:106D20005BB93049204600F009FF204600F0FAFE2A
:106D300084F80C8004B0BDE8F0872B4A2B4920462C
:106D400000F0FCFEEDE7284A00922949294A204636
:106D500000F0F4FEBBE7A888FFF79CFC264B234914
:106D600053F82020204600F0E9FE297AB5E7706943
:106D7000316996E80C000390B068F76802918DE8DD
:106D800081004946204600F0D9FEC5E74946204625
:106D900000F0D4FEC0E732684946204600F0CEFE3F
:106DA000BAE7494696E80C00204600F0C7FEB3E774
:106DB000B16896E80C0020460091494600F0BEFEFE
:106DC000AAE7B068F768316996E80C0002918DE88F
:106DD00081004946204600F0B1FE9DE798C40200BC
:106DE00088C4020094C402007CC4020084C402006F
:106DF00064C402005CC4020024C40200082900D953
:106E000070472DE9F04F1D46904600232A7B2B73D7
:106E100085B0B8F80630039207460E46002B6BD1BA
:106E200098F80810052911D098F80930002B6BD17B
:106E30003C4BB8F8040053F821400021FFF700FC58
:106E4000224603463849284600F078FEDFF8F8B0BD
:106E5000DFF8F8900024A642494628463ED93A5D1C
:106E6000013400F06BFE082CF5D13049DFF8E090DA
:106E7000DFF8E0B0284600F061FE002411E017F8CA
:106E800004A005F02DFA50445946437813F0970FAB
:106E900014BF52462E222846013400F04FFE082C23
:106EA00008D0A64249462846E9D8013400F046FEFB
:106EB000082CF6D198F80830052B02D098F8093044
:106EC000A3B91B49284600F039FE284600F02AFEE7
:106ED0009DF80C302B7305B0BDE8F08F0134594696
:106EE000284600F02BFE082CB5D1BEE7114A124906
:106EF000284600F023FEE4E70E4A00920F49104AAC
:106F0000284600F01BFE8BE7B8F80400FFF7C2FB31
:106F10000C4B094953F82020284600F00FFE98F842
:106F2000081085E798C4020088C4020054C4020017
:106F300094C402007CC4020084C4020064C4020041
:106F40005CC4020024C4020050C4020048C4020011
:106F500090C4020058C40200434B1978002900F085
:106F600081802DE9F04F8C4687B00024012503E095
:106F70000134E4B2644560D23C4B27B21E6816F877
:106F800037E0AEF1200305FA03F9394BCEF12001C9
:106F9000D3E9002325FA01F149EA010905FA0EF8BF
:106FA00008EA020009EA0301014306EBC70BDFD040
:106FB0002F4922EA080223EA09037046C1E90023A7
:106FC00001F060FF16F837E0AEF1200205FA02F298
:106FD00001920199CEF12003C6B225FA03F3AEF176
:106FE0002002194306FA02F30393224B0191D3E9DD
:106FF0000023CDE9042305FA0EF30093CEF120011E
:10700000039B26FA01F10B43039306FA0EF3029356
:10701000DDE90467DDE9002316401F4032463B46A8
:10702000DDE90267BB4208BFB24209D00E4B013412
:1070300093F800C0E4B264459ED307B0BDE8F08F7A
:10704000DBF80430002BF1D09BF80110A1F1010115
:10705000B1FA81F14909091AB1FA81F14909704679
:107060009847E3E7704700BF3028002068280020D9
:1070700060280020582800202DE9F84306462048C3
:1070800000F0F8FBD0B91F4F0123A6F1200103FA4D
:1070900001F5C6F12002D7E9000123FA02F21543F7
:1070A00003FA06F404EA000205EA0103134307D0D9
:1070B00020EA040421EA0505C7E90045BDE8F88394
:1070C000304601F0DFFE104ED6E9008998B148EA5B
:1070D000040849EA0509D7E9002314431D43C6E91A
:1070E0000089C7E90045094B054819680022BDE839
:1070F000F84300F069BB28EA040829EA0509EAE731
:10710000382800206028002058280020342800203B
:10711000042A01D8072070472DE9F04182B00F46BC
:107120000546164601F070FD002834D01C4C1D4A5F
:107130001D4B1E481E49256017707C1E00221E60D4
:107140000023C0E90023C1E90023E4B2EFB1DFF876
:107150006C800027032601E0FF2C16D023B205EB3C
:10716000C30215F8330093788DF80670424601A9E2
:107170008DF804608DF8053001F050FD013CE4B25B
:107180000028E9D002B0BDE8F0810A4A0A4800218F
:1071900000F008FBF6E701F0E9FC0028C6D0F1E7B3
:1071A000682800203028002034280020582800209B
:1071B00060280020596F020004C5020079700200A7
:1071C00070B5084D2B785BB1074E00243368012160
:1071D00013F8340001F0F4FD2B780134A342F5D804
:1071E000002070BD302800206828002000B585B040
:1071F00000230390194601AA44F20100019302936F
:1072000000F004F805B05DF804FB00BF10B572B6DD
:10721000FFF738FDFFF754FA0028FBD1104B114C53
:107220001149E41AE408240444F00100FFF780FB4C
:107230000E4B1B68DB0700D500BE44F002000C4972
:10724000FFF776FBBFF34F8F0A490B4BCA6802F476
:10725000E0621343CB60BFF34F8F00BFFDE700BF79
:10726000B8D10200E0D1020008C50200F0ED00E054
:1072700014C5020000ED00E00400FA05F8B5204A4C
:10728000204B0025C2F84051C2F84451C2F8485181
:10729000C2F84C51C2F80051C2F804511B6813B334
:1072A0001949D2F804450A68A41A1A6824F07F44E0
:1072B000A2422F4609D8197CDE69A41A154499B94F
:1072C0001EB133461A68A242F5D91049104A0B780C
:1072D00012789A420DD00F490F4A41F823504FF4CB
:1072E0008013C2F80031F8BD1F745A69986990473D
:1072F000E6E7531CDBB2022B08BF00230B70EAE762
:10730000001001408C2900208829002085290020B8
:10731000842900207C29002000E100E02DE9F04FC5
:10732000B74AB84913780978994285B033D0013308
:10733000DBB2022B08BF0023B3481370B34A0768BF
:10734000DFF8E08252F82320D8F80010BB180024A0
:1073500023F07F43036025462046A646A9B10B686B
:10736000934200F27D81CC68C1F800E0D21A184443
:10737000CB6934B13E1826F07F46CD618C604E60FB
:107380000D46194601240029E9D1002C40F0A581C1
:107390004FF0010B05E0DFF88C820025D8F80010D3
:1073A000AB469B4B9B4FDFF8809243F00103009369
:1073B0000E464FF0000A002D2DD0D5F804E0D5F888
:1073C00008C02C46ED69904B93481B68AEEB030256
:1073D00022F07F42824255D802EB0C032360002248
:1073E00001206260A260E2612074002E6BD03068E0
:1073F000834261D9B64603E0106898424CD2964663
:10740000DEF81C201B1A002AF6D12360E261CEF8B8
:107410001C40002DD1D197F801C097F800E0F44549
:1074200071D0734603EB43030EF10100BA7807EB0A
:10743000C3035FFA80FE7245187987F800E004BF45
:107440004FF0000E87F800E002289A684CD003281D
:107450003DD00128E3D1107C0028E0D1D3F80CE026
:10746000C2F804E0D3F810C0C2F808C014465A6944
:10747000E26099F800209B69A361002AA3D06060B4
:107480008646A0E7A3EB0E0323F07F4363450AD2B1
:10749000ACEB03032360A2E7C01A10602360E26133
:1074A000CEF81C40B5E70023012223606360A3608F
:1074B000E36122743EB13068C8F80040C31A3360FB
:1074C000E661264677E7C8F80040264673E7002EB7
:1074D000A5D0002200E01E46F3693274002BFAD1D9
:1074E000C8F800301E4696E74EB1B242344603D18A
:1074F000BDE09A4260D01C46E369002BF9D100231D
:107500001374F4458DD1BAF1000F02D18E4200F010
:107510009D80002E00F0C5803B4B404A1C68D2F88D
:107520000475DFF80881D6F800A098F800103B1B1E
:1075300023F07F43DD1CA9B93949354B4FF4803026
:10754000C2F844030126C2F804034FF40030C1F826
:10755000800143F00103086016604FF43C609847D7
:1075600088F80060AA452CBF04EB0A0363192B4975
:1075700023F07F43C1F84035D1F80425D21BDB1B33
:1075800022F07F4223F07F4303329A420ED9204BF0
:10759000D1F80425C1F8402543F001034FF43C60C5
:1075A00098471F4B4FF40032C3F80021002389F89D
:1075B000003005B0BDE8F08FA24239D0D2F81CE00F
:1075C0001368C4F81CE0BEF1000F11D03046DEF89D
:1075D00000402344CEF80030864209D0002397F8BB
:1075E00000E097F801C0137406464FF0010A88E7DF
:1075F000002397F800E097F801C0137481E700BFFB
:107600008429002085290020882900207C29002049
:1076100030C502006C280020FEFF7F0000100140F2
:1076200000E100E08C290020782900207929002041
:107630001346F069C8F80000D8B1D3F81CE01B6805
:10764000C4F81CE0BEF1000FC1D1C5E7BBF1000FCB
:107650007FF45FAF002389F8003005B0BDE8F08FFC
:10766000002C3DD19B1A0B604FF0010B99E633467D
:10767000DFE701931C4BDFF87CC003924FF0010E53
:107680000291C3F808E0009BCCF8000089F800E004
:107690004FF43C609847D8F80000019B0299039A88
:1076A000CBE7114D114A124C4FF480334FF40031A7
:1076B0000127C2F880103C43C5F848334FF43C60C2
:1076C000C5F808336F60A0470A4BAF604FF43C60C9
:1076D0001E60A047084B1E7068E7C8F8001057E608
:1076E000C8F80010BEE700BF0010014000E100E054
:1076F00030C5020088290020792900202DE9F843AF
:107700001F4D204E204FDFF898804FF480334FF408
:1077100000324FF001090024C6F8802047EA09072B
:10772000C5F848334FF43C60C5F80833C5F80490F9
:10773000B847C5F808904FF43C60C8F80040B84717
:10774000124B13481349144A1C70144B04600C70FC
:1077500014704FF48011E0220B2098701C705C7044
:10776000C6F8801186F814233160C5F8084586F8FC
:107770001123D5F80435C8F800302046BDE8F88359
:107780000010014000E100E030C50200792900202E
:107790008C29002084290020852900206C280020C5
:1077A00088290020074B9B780BB9082070473AB115
:1077B00030B10368187C0028F7D159745A617047BA
:1077C000072070476C2800202DE9F043264CA37851
:1077D00083B01BB9082003B0BDE8F0830028F9D0BE
:1077E000042903D8072003B0BDE8F0834369002BC8
:1077F000F0D0064602A8737C0025012B00F8015D3D
:107800000CBF8946A94690460F4600F06FF8637892
:10781000A07821785A1CD2B2904208BF2A469142E1
:107820001BD003EB430304EBC30301200F49187182
:107830009E60D1F804159DF80700D9601F61C3F858
:107840001490C3F81880627000F076F8084B4FF47B
:1078500080122846C3F80021BDE79DF8070000F01C
:107860006BF80420B7E700BF6C280020001001402F
:1078700000E100E070B51B4CA37882B013B908207A
:1078800002B070BD0028FAD04369002BF7D006463D
:1078900002A8002500F8015D357400F027F8627831
:1078A000A0782178531CDBB2984208BF2B4699423E
:1078B00012D002EB420204EBC20202219DF8070043
:1078C00096601171637000F037F8074B4FF4801227
:1078D0002846C3F80021D3E79DF8070000F02CF8F4
:1078E0000420CDE76C28002000E100E070B4EFF345
:1078F000108472B60D4B9A68AAB90D490D4E012538
:107900009D60D1F8805035401D60C1F88060D1F88D
:1079100084505D604FF0FF33C1F88430027004B9C9
:1079200062B670BC704701230370F8E7642F002033
:1079300000E100E0FC06FFBD094B9A6872B168B92E
:1079400010B4EFF3108272B606491C680C605C68D4
:107950004C60986002B962B65DF8044B704700BF96
:10796000642F002000E100E001F01F024B0901211B
:1079700000EB8300914000F021B800BF01F01F022E
:1079800001234909934000EB8100D94300F024B85A
:107990004B0901F01F0150F82300C84000F001001E
:1079A000704700BF00B550E8002F0B4640E8003E8E
:1079B0009EF0000FF7D110465DF804FB00B550E8CB
:1079C000003F43EA010240E8002E9EF0000FF6D18E
:1079D00010465DF804FB00BF00B550E8003F03EA25
:1079E000010240E8002E9EF0000FF6D110465DF82F
:1079F00004FB00BF00B550E8003F03EB010240E884
:107A0000002E9EF0000FF6D110465DF804FB00BF7B
:107A100000B550E8003FA3EB010240E8002E9EF0C5
:107A2000000FF6D110465DF804FB00BF00B501233E
:107A300050E8002F42EA030E40E800E191F0000F09
:107A4000F6D170465DF804FB00B5002350E800EF66
:107A50000EEA030240E8002191F0000FF6D17046D3
:107A60005DF804FBB8B130B4416882680468521A0A
:107A7000D2B2531E2160DBB242B101680A685C1EBB
:107A8000551C0D601370E3B2FF2BF6D10368002084
:107A9000187130BC70470E20704700BFF0B583B03E
:107AA00002AB002503F8015D04461846FFF71EFFF0
:107AB000236861681A688A4210D9511E19602168CA
:107AC000A3680E6812F8015C0A79278AE0689B1B9C
:107AD000DBB29A4207FB050538BF0B719DF8070022
:107AE000FFF72AFF284603B0F0BD00BF30B583B0D2
:107AF00002AB002203F8012D054618460C46FFF79D
:107B0000F5FE2A681368591C1160E9682A8A641A0C
:107B1000B4FBF2F41C709DF80700FFF70DFF03B0F3
:107B200030BD00BF826802B9704710B50446436992
:107B30000168006998470023A36010BD0EB400B52A
:107B400082B0039929B102AA04AB42F8043D00F0C7
:107B500095F802B05DF804EB03B070472DE9F84FDB
:107B60001746B942884606461D46DDF828B00B9AEE
:107B70007DD30B464FF00109B3FBF7F39F4209F1A8
:107B80000109F9D9A94538BFA94612F0010A02D165
:107B9000BBF1000F49D1B268012402E0013D07FBAF
:107BA00004F4012DFAD8B8FBF4F18F42F7D9324D25
:107BB00005E0B4FBF7F4A4B1B8FBF4F1B268685C7B
:107BC000531CB36033689854B26873689A4204FBDC
:107BD0001188EED33046FFF7A5FFB4FBF7F4002C75
:107BE000EAD1BAF1000F16D0BBF1000F33D0CB456C
:107BF00088BF20243ED9B3683268591CB160D45480
:107C0000B26873689A420BF1FF3B06D2BBF1000FDA
:107C100009D0D945EFD1BDE8F88F3046FFF782FF94
:107C2000BBF1000FF5D1BDE8F88F93071AD42024DB
:107C3000CB45B0D9B2683368511CB1609C54B2686E
:107C400073689A420BF1FF3B07D2BBF1000FA3D040
:107C5000CB45F0D1A0E7BDE8F88F3046FFF762FFD3
:107C6000B268F2E7002D0CBF30242024E0E74FF08B
:107C7000010987E7BDE8F88F38C50200002900F048
:107C80006F822DE9F04F064685B093460C460B787F
:107C90000DE0B2683168501CB0608B54B2687368F4
:107CA0009A4280F0D3802378002B00F0BA80013410
:107CB000002B00F0B680252BEBD14FF000082346B7
:107CC00014F8012B2D2A00F0BB80302A00F0BB8075
:107CD0002B2A00F0AD802A2A00F0BC80A2F13005EA
:107CE000E9B2092998BF013302D9A9E1A1F1300510
:107CF0001C4613F8012BA2F1300005EB8501092881
:107D000002EB4101F2D92E2A00F0B080002701E0F9
:107D100014F8012F02F0FB03682BF9D0253A532AFF
:107D20007AD8DFE812F07A017900790079007900D9
:107D3000790079007900790079007900790079007B
:107D4000790079007900790079007900790079006B
:107D5000790079007900790079007900790079005B
:107D6000790079007900790079007900790079004B
:107D7000790079007900790079007900790079003B
:107D80007900790079007900790079006A01790039
:107D9000790079007900790079007900790079001B
:107DA00079005501FC007900790079007900FC0028
:107DB0007900790079007900790079005400790020
:107DC0007900CA007900BA00790079006A01DBF80D
:107DD0000020131DCBF80030B368156831685A1CB9
:107DE000B2604FF03002CA54B3687268934280F0B8
:107DF000A0813268581C7821B060D154B268736891
:107E00009A4280F092810022082301922946009331
:107E100010223046FFF7A2FE01342378002B7FF4B6
:107E200046AF337B002B40F0058105B0BDE8F08FF5
:107E3000234614F8012B2D2A48F004087FF445AF9F
:107E400048F001083BE748F0020838E73046FFF702
:107E500069FE28E7DBF80020111DCBF8001015683B
:107E60005A782E2A03F101047FF450AF6278A2F110
:107E70003003092B04F101044FF000073FF64AAF2D
:107E800007EB870702EB470714F8012FA2F1300335
:107E9000092BA7F13007F3D93CE7DBF800301A1DB6
:107EA000CBF800201968CDF804803B4600950A22E3
:107EB0003046FFF753FE0134AFE7DBF800301A1D00
:107EC000CBF8002018F0010FD3F8009040F0BB80F1
:107ED000B9F1000F00F04781484604F04DFA07461B
:107EE000BD4240F2F180002D00F0EE804FF02008FE
:107EF00005E0BD4200F0E880002D00F0E580B368A9
:107F00003268591CB16002F80380B26873689A4203
:107F100005F1FF35EDD33046FFF704FEE9E7DBF866
:107F200000301A1DCBF80020D3F8009089EAE973DD
:107F3000A3EBE973092B4FF0010A09DD8F4A82FB9D
:107F40000312DB17C3EBA203092B0AF1010AF5DCCC
:107F5000BA4538BFBA462DB3B9F1000F02DB18F0AD
:107F6000040F00D0013D18F0020F40F0F58018F02A
:107F7000010F17D1002D00F0FE80AA4538BF202147
:107F800010D2B2683368501CB0609954B2687368FC
:107F90009A4205F1FF3580F0E880002D00F0EB807B
:107FA000AA45EED1B9F1000FC0F2C88018F0040F55
:107FB0007BD108F00303022B00F09A808DE82001AA
:107FC0003B4649460A223046FFF7C8FD013424E704
:107FD000DBF80020131DCBF80030B368316812784D
:107FE000581CB060CA54B26873689A42FFF414AF68
:107FF0003046FFF797FD01340FE7DBF800301A1D1C
:10800000CBF800201968CDF804803B46009510227B
:108010003046FFF7A3FD0134FFE6B3683268591C10
:10802000B1604FF02501D154B26873689A42DFD233
:108030000134F2E6304605B0BDE8F04FFFF772BDFF
:108040001C4600255FE64F46A7EB090817F8013BE1
:108050008BB1B2683168501CB0608B54B2687368E1
:108060009A42F1D33046FFF75DFDA7EB090817F8F8
:10807000013B002BEDD145457FF6CEAE202705E034
:1080800045453FF4C9AE002D3FF4C6AEB368326833
:10809000591CB160D754B26873689A4205F1FF3534
:1080A000EED33046FFF73EFDEAE7B2683368501C76
:1080B0002B21B0609954B26873689A42FFF479AF8B
:1080C0003046FFF72FFD74E709F1FF3919F8013F3A
:1080D000002B3FF4A1AEB2683168501CB0608B54E5
:1080E000B26873689A42F1D33046FFF71BFDEDE7A3
:1080F000002F7FF463AF002D33D0AA45BFF45EAFED
:10810000B2683368511CB1604FF030019954B268C5
:1081100073689A4205F1FF3503D215B3AA45EFD132
:108120004CE73046FFF7FEFCF7E73046FFF7FAFC76
:1081300069E63046FFF7F6FCB3685AE6B268336882
:10814000501C2D21B0609954B26873689A42C9F1ED
:108150000009FFF42EAFB3E7002F3FF423AF06E78B
:10816000704700252AE74F46BAE630460391FFF7ED
:10817000D9FC039911E7002514E700BF676666661E
:10818000FFF770BC2DE9F041B0F81080CF1CA8F1CA
:10819000040847440646B7FBF8F7FFF77FFC80B3B7
:1081A000FFB200250123013F0446A0F806800660C7
:1081B0000571437128D0804609E06379AF4203F12D
:1081C00001036371C8F80000066080461CD0304689
:1081D000FFF764FC01350028EFD16679721E16D0D6
:1081E0002346013082421B68FBD81F684EB12146EE
:1081F00000250C6801353846FFF778FCAE42214671
:10820000F7D10020BDE8F0812046BDE8F081276865
:10821000EDE700BF04300121FFF7ECBBF8B5012109
:1082200004460430FFF7F4FBC0B200B1F8BD667934
:10823000721E12D02346013082421B68FBD81F6891
:10824000002EF3D0214600240D6801343846FFF794
:108250004DFCA6422946F7D1F8BD2768F2E700BFDA
:108260002DE9F843C78890F805E0154607FB0EFE98
:10827000EC18AEF1040E1A1DA6458846B2FBF7F6BF
:1082800038BFAEEB030507FB1621044616B1013ECD
:108290002468FCD17E1AAE4228BF2E469DB14FF015
:1082A0000009081DAD1B08EB09012044324604F00B
:1082B00046F8AF42B14424683E464FF0000128BF63
:1082C0002E46002DEDD1BDE8F88300BF2DE9F8431F
:1082D000C78890F805E0154607FB0EFEEC18AEF1D6
:1082E000040E1A1DA6458846B2FBF7F638BFAEEB62
:1082F000030507FB1621044616B1013E2468FCD194
:108300007E1AAE4228BF2E469DB14FF000090431BF
:108310002144AD1B324608EB090004F010F8AF42CF
:10832000B14424683E464FF0000128BF2E46002D80
:10833000EDD1BDE8F88300BF41DF7047064A074B27
:1083400010B5002414701C60BFF35F8F044905480A
:1083500000F040F8204610BD982900209C290020FC
:1083600048C502009029002000B583B002A8002370
:1083700000F8013DFFF7BAFAF1EE103A23F09F033F
:10838000E1EE103ABFF35F8F0A4B4022C3F884211D
:108390009DF80700FFF7D0FA03F0ECFD28B920BFE5
:1083A00040BF20BF03B05DF804FBFFF7C5FF03B07B
:1083B0005DF804FB00E100E08268002393608268BE
:1083C0001361826853618268D360826853608268F7
:1083D0001360704701600B6843604A68934204BFB2
:1083E00000234360704700BF436843B1026891684F
:1083F0000B4443605268934204BF002343607047BC
:1084000030B4184DA5F59472AB1ADB1003EBD3739F
:108410005B1002EBC30152F83330984228BF0C4680
:1084200005D311E052F8333098420CD221468B1A12
:10843000DB1003EBD3735B10914202EBC304F1D862
:10844000094830BC70470D46984204D904F108022F
:10845000AA42D9D3F4E76068034B002808BF184646
:10846000EFE700BF9CC6020060C50200F0B4B44B49
:108470001A78062A20D0B34B1B68062B00F08A809E
:10848000B14AD2F8883043F47003C2F88830BFF3A1
:108490004F8FBFF36F8F4FF01023D3F80022002AC5
:1084A000C0F28A81D3F80432002BC0F28581A74B39
:1084B000A74A1A60F0BC704704331B681807DAD16A
:1084C000A44B1B6803F0F002302A00F0658103F032
:1084D000E003402B00F060819E4B1B6803F0F0032B
:1084E000302B00F01E819B4B1B6803F0F002302AFA
:1084F00000F0078103F0E003402B00F00281954B70
:108500001B6803F0F003302B00F0EB80914B1B68ED
:1085100003F0F002302A00F0D08003F0E003402B9B
:1085200000F0CB808B4B1B6803F0F003302B00F086
:10853000B680884B1B6803F0F003302B00F0988066
:10854000844B1B6803F0F003502B3FD0814B1B681A
:1085500003F0F002302A28D003F0E003402B24D0AF
:108560007C4B1B6803F0F002302A03D003F0E003D9
:10857000402B80D14FF08043D3F80024D2077FF501
:108580007AAF6FF00102C3F800246E4B1B68062B14
:108590007FF476AF704B1B68062B7FF471AF6F4A88
:1085A000136843F4806313606AE76D4B6D4A1B6880
:1085B00003F04F031360624B1B78062B7FF45BAF15
:1085C000694B1B6818077FF456AFC9E74FF080521C
:1085D000664BD2F80414C3F82015D2F80814C3F877
:1085E0002415D2F80C14C3F82815D2F81014C3F8C7
:1085F0002C15D2F81414C3F83015D2F81814C3F897
:108600003415D2F81C14C3F84015D2F82014C3F85E
:108610004415D2F82414C3F84815D2F82814C3F826
:108620004C15D2F82C14C3F85015D2F83014C3F8F6
:108630005415D2F83414C3F86015D2F83814C3F8BE
:108640006415D2F83C14C3F86815D2F840143C48BD
:10865000C3F86C15D2F844140278C3F87015062AD2
:108660007FF409AF404B1B681C077FF404AF6DE734
:108670003F4E404C4049414B0527012500203F22F9
:108680003760256008601A602D4B1B78062B7FF43D
:10869000F2AE354B1B681D077FF4EDAE50E7284B5B
:1086A000374A1B780321062B11607FF4E4AE2E4B72
:1086B0001B681E077FF4DFAE3BE74FF080430022CC
:1086C000C3F80C21C3F81021C3F838251C4B1B78C4
:1086D000062B7FF470AF244B1B681F077FF4CBAED3
:1086E00020E72849164ACB68127823F08073062ABF
:1086F000CB607FF4C0AE1C4B1B681B077FF4BBAE86
:1087000004E7214B0E4A1B6812782049C3F3423319
:10871000062A0B60B8D1144B1B681A077FF4ABAE66
:10872000EDE6074B1A4A1B781A491160062B7FF4B5
:10873000A2AE0D4B1B6819077FF49DAED3E600BFB8
:10874000E00F00F03001001000ED00E08C1D002073
:108750000090D003E80F00F0340100103C170040F7
:1087600058020010E40E0040E40F00F000C000408A
:1087700010560040885600401856004014560040DD
:10878000A0050040F0ED00E0440200103C05004070
:1087900074C007400DF0ADBA204B214A1B68127817
:1087A0002049C3F30423062A0B608FD11E4B1B689C
:1087B00019073FF491AE5EE61C4B0122C3F8042575
:1087C000D3F80024002AFBD04FF0102315221749BC
:1087D000C3F80022D1F80034002BFBD04FF0102258
:1087E0001521124BC2F80412D3F80024002AFBD042
:1087F00000220E49C3F80425D1F80034002BFBD029
:10880000BFF34F8F0A490B4BCA6802F4E06213436F
:10881000CB60BFF34F8F00BFFDE700BF2403001004
:10882000E00F00F040350140E40F00F000E00140AF
:1088300000ED00E00400FA05044B195C4FF0A04283
:1088400001238B40C2F80C35704700BF88CA020074
:10885000044B195C4FF0A04201238B40C2F808354D
:10886000704700BF88CA0200C20770B41AD54FF023
:10887000A04303224FF400364FF480254FF4002428
:108880004FF48011C3F84427C3F84827C3F84C2796
:10889000C3F85027C3F80865C3F80855C3F808455E
:1088A000C3F8081583070AD54FF0A0430C22C3F87C
:1088B0003427C3F83827C3F83C27C3F8402770BCD7
:1088C000704700BF10B568B101280AD10C4C23696C
:1088D000A07033B10CCB0120226198472369002B93
:1088E000F8D110BD064CA36801226270002BF8D0AD
:1088F0000CCB0020A2609847A368002BF8D110BDD4
:10890000A029002068B910B5064CA3680122627046
:1089100033B10CCB0020A2609847A368002BF8D19C
:1089200010BD7047A029002030B5012883B01CD0AD
:1089300015D3032811D100F0C9F802A800231F4C59
:1089400000F8013DFEF7D2FFE368013BE360E56814
:1089500065B39DF80700FEF7EFFF03B030BD184B7D
:108960000122C3F8802003B030BD02A80023134CBD
:1089700000F8013DFEF7BAFF237853B1E3689DF894
:10898000070001330122E360A270FEF7D5FF03B0B8
:1089900030BD0C486360A3602361E36000F088F899
:1089A00003F0E8FA30B101232370E7E700F0A2F802
:1089B000A570CEE700F08AF8F5E700BFA0290020F7
:1089C00000E100E0C588020070B50A4A0A4B06784B
:1089D0004568047AC06853F8213052F8211084B0F9
:1089E00003908DF8006001958DF80840684698471F
:1089F00004B070BDB4290020B829002070B50A4A1F
:108A00000A4B067845688468C06853F8213052F8EC
:108A1000211084B003908DF8006001958DF8084016
:108A20006846984704B070BDB4290020B8290020DA
:108A3000F0B51A4B06781A4D0C6991F81DC045F82F
:108A400026400746174803F806C040F826200C4683
:108A500096460FCC89B06D460FC594E80F0085E8A7
:108A60000F000496BCF1000F0BD0BEF1000F0E4AB0
:108A7000694607F1040008BF002200F0EBFF09B0CF
:108A8000F0BDBEF1000F094A694607F10C0008BFAE
:108A9000002200F0AFFD09B0F0BD00BF702F002034
:108AA000B4290020B8290020C9890200FD890200EC
:108AB000054A13790BB1852070470121106053716D
:108AC00018461171704700BFBC290020084B1A6876
:108AD000D20706D40122E02183F80013C3F88021D5
:108AE0001A604FF080430122C3F81825704700BF79
:108AF00000E100E0044B01221A604FF08042D2F8FE
:108B00001834DB03FBD470470C00004010B5144B45
:108B10001A6882B062B10021124A19601B6850794C
:108B200000934FF080410123009CC1F8083390B1BD
:108B30000D4B1A686AB100221A601B6801934FF04E
:108B400080420221074B0198C2F808131B680120DC
:108B5000984702B010BD116853718847E8E700BF1D
:108B600000010040BC2900200401004070B5224CE7
:108B700094F8585082B015B1082002B070BD4FF083
:108B8000FF332946FF26042204F154002363636364
:108B9000A363E36323646364A364E36423606360A7
:108BA000A360E36023616361A361E361236284F8EE
:108BB00050306362A36284F85230E36284F8533029
:108BC00084F8516003F0C6FB0C4B0D4A0D4E156046
:108BD0004021E02083F80603C3F880111960136870
:108BE000019301994FF000430122284684F8582050
:108BF000C6F8043302B070BDC429002000E100E0D3
:108C00007C61004000600040034B93F85800003046
:108C100018BF0120704700BFC4290020F0B5664C82
:108C2000231893F93050002D01DB0820F0BD91F896
:108C300002E0CEF3400EBEF1000F50D025680135A2
:108C400000F0B5800125082654F8253001334CD0BA
:108C50006B1C54F82370013748D0AB1CB3423CD294
:108C600054F82370013741D0EB1CB34235D254F88D
:108C7000237001373AD02B1DB3422ED254F8237003
:108C8000013733D06B1DB34227D254F8237001371C
:108C90002CD0AB1DB34220D254F82370013725D01D
:108CA000EB1DB34219D254F8237001371ED005F1E1
:108CB0000803B34211D254F82370013716D005F1DE
:108CC0000903B34209D254F8237001370ED00A3594
:108CD000B54202D2E36A013367D00420F0BD256AB1
:108CE000013533D009250C26AEE72B4626185DB298
:108CF00044F8232086F83050BEF1000F2CD08B783A
:108D00005A0715D4DE0747D5830003F1A043D3F8F3
:108D1000002722F00202C3F80027284EC20800F004
:108D2000070EB75C012303FA0EF33B43B3548B7871
:108D300013F0020314D1083D2C44097894F8502014
:108D400042EA811284F850201846F0BD082683F8C4
:108D50003060354622623346234483F84800CEE72C
:108D6000AD0005F1804505F5C0450A78D5F8101528
:108D700021F4473121F44071C5F8101503021204A3
:108D8000D5F8101502F4403203F4F85313430B43A3
:108D9000C5F810350020F0BD4A784FF0A04600F528
:108DA000E073920046F82320B7E70B239EE70025E7
:108DB000226083F83050A2E7C4290020182A00203E
:108DC000F0B42E4D2E1882B096F93030072B1CDDF2
:108DD0002B4493F848309B09032B41D0012B14BF3F
:108DE0004FF440314FF40031800000F1A040D0F842
:108DF000002722F44032C0F80027D0F800370B4398
:108E0000C0F8003702B0F0BC7047DAB2072AF9D8D0
:108E1000980000F1804000F5C04003F1400292004C
:108E2000D0F8104592B202F18042002744F00104CC
:108E300002F5C042C0F8104501970198176000295B
:108E4000E0D096F9302055F82220002ADAD001220D
:108E50000B4902FA03F3C1F8043302B0F0BC7047C7
:108E60004FF0A043D3F81035C34013F0010F0CBFEF
:108E70004FF400314FF44031B6E700BFC429002061
:108E8000006000404FF0A043D3F8103523FA00F003
:108E900000F00100704700BF2DE9F04F87B00023BC
:108EA000CC4A01931168012900F00A821E46CA4B80
:108EB0001A68012A00F0F681C84B1A68012A00F0EE
:108EC000E381C74B1A68012A00F0D081C54B1A68AC
:108ED000012A00F0BD81C44B1A68012A00F0AA8162
:108EE000C24B1A68012A00F09781C14B1A68012A07
:108EF00000F08481BF4B1A68012A00F05E8116F0F1
:108F0000FF0F1AD0BC4F01250024A30003F18043BA
:108F10002E4203F5C0434FEA45050BD0D3F81005A8
:108F200057F82420D3F81015C0F30420C1F30141F1
:108F300002B190470134082CE7D1002E02DB07B0C4
:108F4000BDE8F08F00224FF0FF33AB4C0292039349
:108F5000012502AE94F950104F1C2DD0C9B221F05A
:108F6000C00006AB4FEAD00E03EB0E0701F007037B
:108F700017F80C2C05FA03F31A421DD022188909A0
:108F800092F9302054F82220002A00F0F0800329C2
:108F900000F0F0804FEA800E0EF1A04E17F814CCCE
:108FA000DEF800771CEA0303C7F3014940F0B880FC
:108FB000B9F1030F00F0D7814FF0030A4FF0020917
:108FC0004FF00108002794F95110481C2DD0C9B268
:108FD00021F0C00006AB4FEAD00C03EB0C0E01F001
:108FE00007031EF80C2C05FA03F31A421DD02218B1
:108FF000890992F9302054F82220002A00F0CA8012
:10900000032900F0CA804FEA800C0CF1A04C1EF836
:1090100014BCDCF800E71BEA030FCEF3014E40F06E
:109020009080BEF1030F00F08A8194F952104A1C1F
:109030002CD0C9B221F0C00006AB4FEAD00C03EB34
:109040000C0E01F007031EF80C2C05FA03F31A426C
:109050001CD02218890992F9302054F82220002AC5
:1090600000F08F80032900F08E804FEA800C0CF115
:10907000A04C1EF814ACDCF800E71AEA030FCEF39C
:10908000014E6AD1BEF1030F00F0468194F95310EE
:109090004B1C2CD0C9B221F0C00006AB4FEAD00E59
:1090A00003EB0E0201F0070312F80CCC05FA03F3F0
:1090B0001CEA030F1BD004EB000C89099CF930C09B
:1090C00054F82C90B9F1000F6ED003296ED04FEAFE
:1090D000800E0EF1A04E12F814CCDEF800271CEA28
:1090E000030FC2F3014211D1032A00F0F580002FD3
:1090F0003FF425AF4FF0A043019AD3F810359A42C0
:109100003FF41DAF029A0193039223E7022AEED1A6
:10911000032900F04681B9F1000FE8D0C847E6E71F
:10912000B9F1020F7FF448AF032900F043814FF0FB
:10913000030A4FF001080027002A3FF444AF90478C
:1091400041E7BEF1020F7FF470AF032900F02C81DC
:10915000002A3FF46AAF904767E7BEF1020F95D14E
:10916000032900F02481002A90D090478EE703293C
:109170007FF422AF16F80EC04CEA030C06F80EC0BE
:1091800008E7032982D116F80CA04AEA030A06F878
:109190000CA06AE703297FF448AF16F80CB04BEA3D
:1091A000030B06F80CB02EE70329A0D116F80EC069
:1091B0004CEA030C06F80EC089E700221A601B680F
:1091C00005934FF0A043059AD3F81035019346F06C
:1091D000004694E6006100400461004008610040E0
:1091E0000C610040106100401461004018610040B3
:1091F0001C6100407C610040C42900206F4AD2F805
:10920000042312067FF576AE00221A601B680493D1
:10921000049B46F080066DE6684AD2F804235106A6
:109220007FF563AE00221A601B680493049B46F02E
:1092300040065AE6614AD2F8042390067FF550AE04
:1092400000221A601B680493049B46F0200647E640
:109250005A4AD2F80423D4067FF53DAE00221A60A4
:109260001B680493049B46F0100634E6534AD2F878
:10927000042315077FF52AAE00221A601B680493A9
:10928000049B46F0080621E64C4AD2F8042357070F
:109290007FF517AE00221A601B680493049B46F00A
:1092A00004060EE6454AD2F8042392077FF504AE81
:1092B00000221A601B680493049B46F00206FBE53B
:1092C0003E49D1F8046316F001063FF4F0AD136097
:1092D00013680493049BEAE503297FF41CAF4FF461
:1092E0000032DEF8003723F44033CEF80037DEF8E2
:1092F00000371343CEF80037B9F1000F01D04746CD
:109300000CE74FF0A043019AD3F8103593427FF455
:10931000F9AE07B0BDE8F08F03297FF424AF4FF416
:109320000037DCF8003723F44033CCF80037DCF8A2
:1093300000373B43CCF800374746C84613E70329BC
:109340007FF406AF4FF40037DCF8003723F44033E6
:10935000CCF80037DCF800373B43CCF80037474601
:10936000C846D146F4E6032906D0CA461F464FF048
:1093700002094FF00108DFE64FF40037DEF800374E
:1093800023F44033CEF80037DEF800373B43CEF805
:1093900000374FF0040A4FF003094FF0020801278D
:1093A000CAE64FF440329CE74FF44037CCE74FF425
:1093B0004037B6E74FF44037E0E700BF00600040B9
:1093C000014B1B68184700BF202A0020104B984211
:1093D00001D00020704730B583B002A8002300F808
:1093E000013D0D46FEF782FA0A4B1C7934B19DF817
:1093F0000700FEF7A1FA112003B030BD01229DF84D
:1094000007001D601A71FEF797FA204603B030BDC1
:1094100000200040202A0020034B984203D1034B38
:1094200000221A601A71704700200040202A002094
:1094300030B56E4AD2F8043399058BB05BD5D2F8BB
:109440002431002B57D00023C2F82431D2F8243124
:1094500003934FF40171664B0398C2F8081393F815
:10946000291009B901215160604902228DF81820A4
:10947000D1F88024C1F880249869D9680992002223
:10948000089007919A6193E81200DA6106A8A04754
:10949000564AD2F81C31C3B1554B186A59698842F3
:1094A00065D293F8280000F0FF0400285FD1C2F8CD
:1094B0001C41D2F81C11029102999C68186A196A21
:1094C000205C01311962C2F81C05484AD2F84431C7
:1094D0007BB10021464BC2F84411D2F8440193F805
:1094E00029100090009809B1012111609A69002AA1
:1094F00052D10BB030BD3D4AD2F804335B07C7D51B
:10950000D2F80831002BC3D0394B9969002952D0C9
:109510000021C2F80811D2F8081104910499D86802
:10952000596AD2F8182542545A6A996901325A6226
:109530005A6A8A42ACD1DA69002A45D193F82920C7
:1095400012B92A4A01215160284A4FF40171C2F828
:109550000813596ADA6808910024012007928DF8EF
:10956000180093E806009C6106A8904790E71F4A00
:109570000020C2F81C01D2F81C210192019A002996
:10958000A3D09A688DF8180008915861079206A830
:1095900093E80600904798E70022586AD9689A61D4
:1095A0000122089007918DF8182006A893E806007C
:1095B00090470BB030BDC2F80811D2F808010590F1
:1095C0000598D2F81825B3E7DD685C6A18699A61D6
:1095D00001210022D860DA615A628DF818100795CF
:1095E000089493E8060006A8904751E70020004041
:1095F000282A00202DE9F041604E05792C2303FB39
:10960000056382B093F82A301BB1082002B0BDE890
:10961000F0810F4604465A4900689046FFF7D6FE8F
:1096200018B1112002B0BDE8F0813A68511C0BD08E
:109630004FF0A04101239340C1F808353B6803F582
:10964000E073032241F823207B685A1C06D003F5FF
:10965000E0734FF0A042002142F823102368BA695A
:10966000C3F82425397D7B7D22680B43C2F86C3515
:1096700097E806002368C3F81425C3F80C153B7D52
:10968000012B51D02C2303FB05F3F218C2F8048000
:109690003A69F250B8F1000F35D023683A7F394F5C
:1096A0000021C3F81C11D3F81C3100932368DDF8A6
:1096B00000E0C3F84411D3F84411236801910199E3
:1096C000C3F804732168090B4BB2002B4EDB03F186
:1096D000604303F561435201D2B283F8002322684C
:1096E000120B42F3C40323F0604323F0030303F19E
:1096F000604303F5614302F01F02012101FA02F207
:10970000C3F880211A602C23246803FB0563002220
:1097100004250121C4F8005583F82A109A61DA6102
:1097200083F829205A6171E7BB68591C06D003F5FC
:10973000E0734FF0A042002142F82310FB685A1C4E
:109740000DD001224FF0A04102FA03F3C1F8083511
:10975000FB6803F5E073032241F82320FB682268CD
:10976000B968C2F80835C2F810158BE7064B01F04E
:109770000F0152010B44D2B21A76B0E7282A00201A
:109780003194020080000200FCEC00E0F8B52F4D9F
:10979000047902682C2303FB045300215B68C2F8A0
:1097A000001583B103682A4AC3F808230368294EC9
:1097B0001B0B5AB25209203203F01F03012101FA98
:1097C00003F346F8223003684FF0FF32D3F80CE57C
:1097D000D3F81475D3F80815D3F81065C3F8142519
:1097E000C3F80C2503689645C3F80825C3F810256F
:1097F00006D00EF5E07E4FF0A043022243F82E2063
:109800007B1C06D007F5E0774FF0A043022243F817
:109810002720721C06D006F5E0764FF0A043022206
:1098200043F826204B1C06D001F5E0714FF0A04311
:10983000022243F821200068FFF7EEFD2C2303FBF2
:109840000454002384F82A306360F8BD282A0020DD
:109850008402020000E100E0F0B5304E05792C23CF
:1098600003FB056385B05C6914B1112005B0F0BD40
:109870001C62996083F828405A610268C2F81C4152
:10988000D2F81C11026802910121029F91600268C6
:10989000D3F808E0C2F81C41D2F81C1101910199DB
:1098A000D3F820C0196A5F681EF80CC00131196234
:1098B000C2F81CC517B1204605B0F0BD1A6A5C6934
:1098C0000168944203D819E093F82820F2B9D1F83E
:1098D0001C21002AF8D0C1F81C71D1F81C21039278
:1098E000039AD3F820C01A6A1EF80CC001321A621B
:1098F000C1F81CC51A6AA242E9D30168D1F81C312B
:10990000002BFBD00123CB60002000E00F202C2394
:1099100003FB056300225A61A8E700BF282A002044
:1099200070B54A4BD3F8242188B0002A55D1D3F81A
:109930001011F1B9454BD3F8442152B10020444AEB
:10994000C3F84401D3F8444191690194019C002972
:1099500060D13E4BD3F820214AB100213C4AC3F8E4
:109960002011D3F8204150690094009C30BB08B00E
:1099700070BDC3F81021D3F8101135480391039935
:109980008169D3F83C458C42D4D1C569002D50D0B3
:10999000D3F80012C668856121F02001C3F80012D7
:1099A0000369C26101220168C3608DF818404368F1
:1099B00005968DF8102004A89847BBE7D3F84C050E
:1099C00093688DF818008DF810105161059304A864
:1099D00092E80A00984708B070BD0021C3F824112E
:1099E000D3F82421029202228DF81020029AD3F893
:1099F0008004174AC3F880040790D3F83C05D36865
:109A00008DF818009161D16105931168536804A81D
:109A100098478FE7D3F83C458DF81840D36890619C
:109A200001240593116853688DF8104004A89847E5
:109A30008FE7C36801688561012205938DF818409E
:109A400043688DF8102004A8984773E70020004071
:109A5000542A00202DE9F0430479704EE7003B19A9
:109A600006EB830385B093F820301BB1082005B0C6
:109A7000BDE8F08389460546694900689046FFF7CE
:109A8000A5FC18B1112005B0BDE8F083D9F800207D
:109A9000511C0CD04FF0A04101239340C1F8083570
:109AA000D9F8003003F5E073032241F82320D9F8F8
:109AB00004305A1C06D003F5E0734FF0A042002199
:109AC00042F823102B68D9F81820C3F8242599F8F8
:109AD000141099F815202B680A43C3F86C252A68DE
:109AE000D9F80030D9F80410C2F80C35C2F81415B2
:109AF00099F81430012B61D03A199200B318C3F8C9
:109B00000480D9F81030B350B8F1000F47D029685D
:109B100099F81C20DFF810E10023C1F81031D1F8CA
:109B2000101100912968DDF800C0C1F82031D1F88A
:109B3000201101912968DDF804C0C1F82431D1F861
:109B4000241102912968DDF808C0C1F84431D1F828
:109B500044112B6803910399C3F804E32968090BA6
:109B60004BB2002B51DB03F1604303F5614352011B
:109B7000D2B283F800232A68120B42F3C40323F005
:109B8000604323F0030303F1604303F5614302F0F4
:109B90001F02012101FA02F2C3F880211A603C443D
:109BA0002A6806EB840400230125082184F820504C
:109BB000C2F80015A361E361636158E7D9F8083082
:109BC000591C06D003F5E0734FF0A042002142F883
:109BD0002310D9F80C305A1C0FD001224FF0A041AD
:109BE00002FA03F3C1F80835D9F80C3003F5E07335
:109BF000032241F82320D9F80C302A68D9F808103C
:109C0000C2F80835C2F8101576E7064B01F00F01CF
:109C100052010B44D2B21A76ADE700BF542A00209D
:109C200021990200FCEC00E010030200F8B506796F
:109C30002F4C0268F500AB1904EB830300215B682D
:109C4000C2F8001583B103682A4AC3F808230368E1
:109C5000294F1B0B5AB25209203203F01F03012176
:109C600001FA03F347F8223003684FF0FF32D3F8CC
:109C70000CC5D3F814E5D3F80815D3F81075C3F85C
:109C80000C25C3F8142503689445C3F80825C3F8C8
:109C9000102506D00CF5E07C4FF0A043022243F8DB
:109CA0002C20BEF1FF3F06D00EF5E07E4FF0A04322
:109CB000022243F82E207A1C06D007F5E0774FF0F9
:109CC000A043022243F827204B1C06D001F5E07187
:109CD0004FF0A043022243F82120354404EB8504D1
:109CE0000068FFF799FB002384F820306360F8BD1B
:109CF000542A00201003020000E100E001F060435C
:109D0000B3F1005F01D010207047F0B50579214E06
:109D1000EF007C1906EB840483B0636913B1112052
:109D200003B0F0BDA1606261D0F800E0CEF8203150
:109D3000DEF820C1D0F800E0CDF804C0DDF804C0A2
:109D4000CEF85831DEF858C1D0F800E0CDF800C0A8
:109D5000DDF800C0CEF84415CEF848250268012190
:109D6000916062680AB11846DAE7036800E079B9E1
:109D7000D3F82021D3F85811002AF8D0002914BFB5
:109D80000F2000207B1906EB830300225A61C7E7EE
:109D90000F20F7E7542A0020032801D90720704735
:109DA000012A12D0012917D008D30229F6D10D4B70
:109DB00000EB4000034400205A707047094B00EB51
:109DC0004000034400209A707047012901D000220E
:109DD000E8E700F10E02D2B200EB40030149002097
:109DE000CA547047782A002010B50388102B08D079
:109DF000112B05D1264B18680138186038B110BDF9
:109E000010BD234C216881B10131216010BD0122B8
:109E10000221FFF7C1FF48B3072827D01D4B1B685D
:109E2000002BECD0BDE81040184701220846FFF790
:109E3000B3FF48B1072807D0164B1B6803B19847FA
:109E400021680131216010BD072202210120FFF7A6
:109E5000A3FF08B10728EFD1042202210020FFF759
:109E60009BFF0028ECD00728E6D1E9E70722022172
:109E70000120FFF791FF08B10728CFD10021084644
:109E80000A22FFF789FF0028B9D00728C6D110BDE4
:109E9000882A0020842A002075DF704776DF70470B
:109EA0008FDF70470146014801F046BE8C2A002032
:109EB0000378062B01D1406800B97047FDF796B9C9
:109EC0000D280FD110B50F480C4601F069FF58B1AD
:109ED00043F20202904214D0082812D0BDE810408C
:109EE000FDF784B9FDF782B90748084B0849C01A45
:109EF000C0080004224640F00300BDE81040FCF713
:109F000091BD10BD8C2A0020E0D10200B8D1020022
:109F1000D4CA020038B50B78012B0C4614D0022BA2
:109F200011D11B4B1B480A791B49C01AC0080004F9
:109F300040F00300FCF776FD23790120EBB9BDE882
:109F40003840FEF785BC38BD0A1D054649881348D0
:109F500001F076FF0E4B0F4862881149C01AC00805
:109F6000000440F00300FCF75DFDFDF729F960B93E
:109F7000284601F0CBFE20B938BDBDE83840FEF7D9
:109F80005BBCBDE83840FDF731B9FDF72FF9EFE7CD
:109F9000B8D10200E0D1020020CB02008C2A0020C0
:109FA000ECCA020010B503881F2B82B0044659D0BA
:109FB00011D93B2B05D0562B03D0212B27D002B033
:109FC00010BDA0881321FFF769FF0028F7D0FDF727
:109FD0000DF902B010BD102B25D0112BEFD1274B5E
:109FE00027482849C01AC008000440F00300FCF7C5
:109FF0009FFC254801F05AFC08B1FDF7F7F8022054
:10A00000FEF726FC0020FEF717FC02B010BD00236F
:10A0100080888DF8043001A98DF80530FFF740FFE6
:10A020000028CCD0D3E7154B15481849C01AC008F2
:10A03000000440F00300FCF77BFC0022A1881448D8
:10A0400001F0FEFEB8B9A188124800F0EFFA08B19D
:10A05000FDF7CCF80220FEF7EFFB0020FEF7F8FB3F
:10A0600002B010BD00F108018088FFF715FF00283D
:10A07000ADD102B010BDFDF7B9F8E4E7B8D10200E8
:10A08000E0D10200C4CA0200B02A0020B8CA02000F
:10A090008C2A0020981D002000B54FF4004185B0A7
:10A0A0000020FCF7AFFA08B1FDF7A0F8FCF72EFA94
:10A0B000FDF724FB08B1FDF799F80120FEF7D4FB6A
:10A0C00040F2666201213C48FDF722F808B1FDF735
:10A0D0008DF8FEF733F908B1FDF788F801F0BEFE00
:10A0E00008B1FDF783F804AC002344F8103D0120CB
:10A0F000214601F08DFF08B1FDF778F8204602F007
:10A1000041F808B1FDF772F810220021204602F054
:10A1100021F90123294A2A488DF8043021468DF877
:10A120000C3001F05DFB08B1FDF760F80022012161
:10A13000234801F041FB08B1FDF758F8214A2048B7
:10A14000002101F009FB08B1FDF750F800211E487D
:10A1500001F0B2F908B1FDF749F81C4800F0E8F940
:10A1600008B1FDF743F81A4B1A480093214601F055
:10A1700045FD08B1FDF73AF8174B18481849C01AC1
:10A18000C008000440F00300FCF7D2FB0C4801F0CB
:10A190008DFB08B1FDF72AF80220FEF759FB0020DD
:10A1A000FEF74AFB0020FEF747FBFCF789FA002880
:10A1B000FBD1FEF7D9F8F8E7901D0020B19E020010
:10A1C000B02A002048CB02009C2A0020A59E020055
:10A1D000159F02008C2A0020B8D10200E0D10200B5
:10A1E00058CB020072B368B370B54378092B2BD0FB
:10A1F000B9B10024234601E0994212D9045D01342B
:10A2000023449BB2C5181C466D78092DF4D19942A0
:10A2100007D9C45C0233013C9BB2A4B2C51803B198
:10A220000CB9002070BD1046164602F0A5F8A042F9
:10A23000F7D122462946304602F072F8B0FA80F093
:10A24000400970BD002070470029EAD0054615F886
:10A25000024B013CA4B2002CE3D0E4E72DE9F04F1F
:10A260000388B0F804A0112B99B073D01A2B814643
:10A270005FD0102B02D019B0BDE8F08F3D4A936833
:10A2800018A8DB4340F8603D5168FDF7A5FB009B33
:10A290000193019B8BB34FF000084446214601A86F
:10A2A000FDF776FB30B118AB03EB480308F101086A
:10A2B00023F8284C0134142CF0D1CDF834800DADA6
:10A2C0000FCD02AC0FC40FCD0FC495E8070084E892
:10A2D0000700B8F1000F10D0274E0DF10A0B002730
:10A2E0003BF8025F254C204629460434FDF746FB27
:10A2F000A642F8D101374745F2D1BAF1130F05D97B
:10A300000420FCF773FF19B0BDE8F08F51461C48DC
:10A31000FDF72AFB51461948FDF726FB99F80F3047
:10A32000012BA8D051461748FDF71EFB19B0BDE818
:10A33000F08F047A14482409012C514611DDFDF7F1
:10A3400013FB022C514611480FD0FDF70DFB19B03D
:10A35000BDE8F08F51460A48FDF710FB19B0BDE883
:10A36000F08FFDF70BFB09485146FDF707FB19B0CD
:10A37000BDE8F08F182B0020902B00201C2B002014
:10A38000202B0020242B0020282B00202C2B002009
:10A390009BDF70479DDF70479EDF7047F0B5324B03
:10A3A0001E6890F8C632A1B01EB3C3EB0315C3EB11
:10A3B00085035D0044192D4BA4789F78A7421AD0DD
:10A3C000012E16D99F79A74247D0022E11D09F7A2D
:10A3D000A7423CD0032E0CD09F7BA74231D0042E45
:10A3E00007D09F7CA74226D0052E02D09E7DA64294
:10A3F0001BD021B0F0BDB3F800E0475BBE45DFD114
:10A400001B4B1E68002EF4D015460C467C22002102
:10A4100001A801F09FFF012301A8ADF806500294A6
:10A420008DF80430B04721B0F0BD9C8A435B9C425C
:10A43000E6D021B0F0BDB3F810E0475BBE45D3D104
:10A44000DEE7B3F80CE0475BBE45C8D1D8E7B3F808
:10A4500008E0475BBE45BDD1D2E7B3F804E0475BF7
:10A46000BE45B2D1CCE700BF982B0020A02E002023
:10A47000902B00202DE9F04190F8C64290F8C532AB
:10A48000C4EB0415C4EB8504640000EB040C122635
:10A490009CF804E016FB03465D1C0A36754582B045
:10A4A00006443AD0734530D205EBC50504EB4504AC
:10A4B0000A3404440EF1FF389845358911D0E688F6
:10A4C0000135B54217D0013EADF80660ADF8045035
:10A4D00000230B70104601A9FFF75EFF02B0BDE834
:10A4E000F081BCF80860B54215D00135ADF80450D4
:10A4F000ADF80660ECE726465D1CEFB2BE452B4684
:10A5000080F8C55204F11204D6D8012300200B7044
:10A5100002B0BDE8F0810026EEE73389BCF8080000
:10A520008342F2D00133ADF80430ADF80600CFE736
:10A5300068B170B40749084A084E094D10600124FB
:10A5400000230C7033602B60184670BC70470E23DC
:10A5500018467047942B0020902B0020982B002049
:10A560009C2E002020B12D4B1B781BB90820704772
:10A570000E20704770B42A4C2A4B2268002A41D022
:10A5800081789D788D421BD0012A44D99D798D42D6
:10A5900033D0022A3FD09D7A8D4229D0032A3AD067
:10A5A0009D7B8D421FD0042A35D09D7C8D4215D0D5
:10A5B000052A30D09D7D8D420BD0042070BC7047A1
:10A5C0001E880588AE42DFD11749096809B300200B
:10A5D000F4E79D8A01888D42EFD1F5E71E8A058850
:10A5E000AE42E5D1F0E79E890588AE42DBD1EBE7CC
:10A5F0001E890588AE42D1D1E6E706889D88AE4225
:10A60000C7D1E1E70121006843F822002160002062
:10A61000D4E7052AD1D8511CF5E700BF942B0020C0
:10A62000982B0020A02E0020902B002078B11D4BED
:10A630001B780BB9082070471B4B1B68002BF9D007
:10A6400070B590F8C76204461EB1112070BD0E208F
:10A6500070470D464FF43372314601F07BFE134ACA
:10A66000134B10682060A4F8CA5284F8C96284F8B9
:10A67000C66284F8C5622246284601211E60FFF7A3
:10A6800087FE112807D00028E0D1012384F8C802F2
:10A6900084F8C73270BD012384F8C73284F8C83209
:10A6A000304670BD942B0020982B0020A02E002057
:10A6B0009C2E002090B389B3A94B1B7873B32DE96E
:10A6C000F04F0388113BA7B004460D46222B00F241
:10A6D0008880DFE813F02A01860086008600860065
:10A6E000860086008600860086008600860086003A
:10A6F000860086008600860086008600860086002A
:10A700008600860086008600860086008600860019
:10A7100086008600D6008600CB009700704793899C
:10A72000F382B38A2BB1F38A1BB1338B0BB1738BDA
:10A730002BB963890130984202F106027AD376225E
:10A7400002FB01520EF101031279002693428DF8AB
:10A750001B6040F0E28201238DF81B30DFF80C9281
:10A76000B4F804A0D9F80060002E00F051867622DB
:10A7700002FB01F2AB187B4F9B78B878984200F04F
:10A78000A184012E40F24B86B879984200F0A18452
:10A79000022E15D0B87A984200F0A984032E0FD06B
:10A7A000B87B984200F09C84042E09D0B87C984273
:10A7B00000F08184052E03D0B87D984200F04584D6
:10A7C00095F8C9320133DBB2B34285F8C932C0F023
:10A7D0001384654B03210022A3F802A0197085F8A9
:10A7E000C72295F8C83253B12388303B9BB21F2B48
:10A7F00005D8A388B5F8CA629E4200F0B98027B098
:10A80000BDE8F08F8288B1F8CA329A42E9D1C08897
:10A8100091F8C61295F8C5E2002890D16389002B03
:10A820008DD0762606FB01F60EEBCE0306EB430633
:10A830002E442246D389A3F52453082B3FF671AF4B
:10A8400001A757F823F000BF1FA7020059A9020073
:10A8500053A9020023A7020023A7020023A7020096
:10A8600023A7020023A702004BA902008388B1F8A6
:10A87000CA62B34200F0A18095F8C822002ABBD179
:10A88000BDE78388B1F8CA62B342F5D1C38891F8B5
:10A89000C612002B00F0EA81DFF8D090D9F80080D2
:10A8A000B8F1000F00F09885C1EB0113C1EB8303F1
:10A8B0005B00EA182B4F9278B878904200F0D7826C
:10A8C000B8F1010F40F28F85B879904200F0C8824C
:10A8D000B8F1020F18D0B87A904200F0D682B8F1E1
:10A8E000030F11D0B87B904200F0C882B8F1040F7A
:10A8F0000AD0B87C904200F0AC82B8F1050F03D0CA
:10A90000B87D904200F0738295F8C9320133DBB212
:10A91000434585F8C932C0F02A82134B0321002237
:10A920005E80197085F8C7225BE78288B1F8CA3269
:10A930009A427FF464AF00234FF6FF7281F8C7326A
:10A9400081F8C832A1F8CA2259E79789B38A778378
:10A95000E8E69389B382E5E693893383B38AE1E637
:10A96000942B0020A02E00209C2B0020982B002050
:10A970004FF433720021284601F0ECFCB74BB84C81
:10A98000186828600023A5F8CA6285F8C9323046E5
:10A9900085F8C63285F8C5322A4601212360FFF7C3
:10A9A000F7FC112800F0DD8100287FF428AF012397
:10A9B00085F8C80285F8C73221E7C388002B40F02C
:10A9C000EC8091F8C682817AC8EB0813C8EB830348
:10A9D0005E00AF1997F804904944062900F3EE8110
:10A9E000C9B23971C64689454B4680F0A6802246D9
:10A9F000762000FB08F009EBC90100EB410152F899
:10AA00000C9F2944D2F80480C1F80E80C1F80A9046
:10AA100012894A8200228A82CA820A834A83397949
:10AA200003F1010C8C4580F08C810CEBCC01A44629
:10AA300000EB41015CF816AF2944DCF80490C1F842
:10AA40000E90C1F80AA0BCF808C0A1F812C08A8212
:10AA5000CA820A834A83397903F1020C8C4580F05B
:10AA600070810CEBCC01A44600EB41015CF820AFF7
:10AA70002944DCF80490C1F80E90C1F80AA0BCF893
:10AA800008C0A1F812C08A82CA820A834A8339792F
:10AA900003F1030C8C4580F054810CEBCC01A446EF
:10AAA00000EB41015CF82AAF2944DCF80490C1F8BE
:10AAB0000E90C1F80AA0BCF808C0A1F812C08A82A2
:10AAC000CA820A834A83397903F1040C8C4580F0E9
:10AAD00038810CEBCC01A44600EB41015CF834AFAB
:10AAE0002944DCF80490C1F80E90C1F80AA0BCF823
:10AAF00008C0A1F812C08A82CA820A834A833979BF
:10AB000003F1050C8C4580F01C810CEBCC01A446B4
:10AB100000EB41015CF83E9F2944DCF80480C1F859
:10AB20000E80C1F80A90BCF808C0A1F812C08A8251
:10AB3000CA820A834A8339790633013B762203EBC2
:10AB4000C30302FB0EFE05EB4303334405EB0E0685
:10AB50005B8A3289934220D206291ED085F8C5121D
:10AB6000A088002940F0DB82F388ADF81C3007A9EB
:10AB7000ADF81E20FFF70EFC00283FF432AE002394
:10AB800085F8C7320146A2882846FFF707FC354BF7
:10AB9000A2885A8003221A7023E6002785F8C5721E
:10ABA000A2880DF11B012846FFF764FC0646002829
:10ABB00040F0CE819DF81B30002B3FF412AEDFF841
:10ABC000A890B4F804B0D9F8008095F8C612B8F18E
:10ABD000000F00F02784C1EB0113C1EB83035B007E
:10ABE000EA181E4F9278B878904200F02983B8F1A5
:10ABF000010F40F21D84B879904200F05A83B8F1F9
:10AC0000020F18D0B87A904200F06E83B8F1030FAB
:10AC100011D0B87B904200F06083B8F1040F0AD0E5
:10AC2000B87C904200F05283B8F1050F03D0B87D94
:10AC3000904200F0458395F8C9320133DBB24345B9
:10AC400085F8C932C0F05783064B03210022A3F8D0
:10AC500002B0197085F8C722C3E500BFA02E0020FE
:10AC60009C2E00209C2B0020982B0020C1EB011370
:10AC7000C1EB83035B00C268EA502B440269C3F84E
:10AC8000062095F8C5228088002A5CD1DA881B89C5
:10AC9000ADF81E3007A9ADF81C20FFF77BFB064678
:10ACA00000283FF49EADA14A95F8C63211680022F3
:10ACB00085F8C722B4F8048049B3C3EB0312C3EB91
:10ACC00082035A00AB189A4F9B78B878984200F0EC
:10ACD0005B8201291BD9B879984200F04E82022983
:10ACE00015D0B87A984200F0418203290FD0B87B82
:10ACF000984200F02082042909D0B87C984200F0E4
:10AD00005082052903D0B97D994200F04482894BD5
:10AD10000322A3F802801A7063E585F8C532A28881
:10AD20000DF11B012846FFF7A5FB8046002840F0E7
:10AD3000B3809DF81B30002B3FF453AD95F8C6123D
:10AD40000CE56346F9E6013AD2B2762602EBC2027E
:10AD500006FB01F101EB42022A44528A013292B20F
:10AD600095E7012385F8C73285F8C83247E595F89D
:10AD7000C6320133DBB2C3EB0312C3EB82025200D3
:10AD8000A91857F8230085F8C632002385F8C53284
:10AD9000A8500A460B7130460121FFF7F9FA002846
:10ADA0003FF41FAD85F8C732014632462846FFF70B
:10ADB000F5FA604B03225E801A7012E55E4B5F4A23
:10ADC0005F49A3EB020A4FEADA0A06234FEA0A4A6E
:10ADD0003B714AF0020A5046AA5BFBF723FE594931
:10ADE0005046FBF7A5FD95F8C6E23979FBE5EB5A2D
:10ADF000BA8A9A427FF488AD534B1B680493002BA8
:10AE00003FF482AD514B0193D3F800A0BAF1050F86
:10AE10003FF67AAD474B03934FEACA1003EB000BA2
:10AE2000762202FB01510290ABF802600BF10400A4
:10AE300001F085FA019B0298049ECBF87C600AF130
:10AE400001021A60039B0221424519545BD0A68877
:10AE50005AE535F803E0388A86457FF44EADCBE7F6
:10AE600035F803E0B88886457FF432ADC4E735F89D
:10AE700003E0388886457FF423ADBDE735F803E06D
:10AE8000B88986457FF432ADB6E735F803E03889F6
:10AE900086457FF424ADAFE7244B85F8C762196877
:10AEA000A68895F8C63249B3C3EB0312C3EB8203FD
:10AEB0005A00AB181E4F9B78B878984200F0A181D9
:10AEC00001291BD9B879984200F09481022915D044
:10AED000B87A984200F0878103290FD0B87B984256
:10AEE00000F06681042909D0B87C984200F0968170
:10AEF000052903D0B97D994200F08A810D4B0322C8
:10AF00005E801A706DE41E464FF0000AF36F304603
:10AF10009847D9F800300AF1010A9A4506F18006EF
:10AF2000F4D3019A98460023136090E7982B0020F1
:10AF3000A02E00209C2B0020E8D10200B8D10200F6
:10AF400078CB0200C0CB0200902B00209C2E00206A
:10AF5000B64B85F8C7721968B4F8048095F8C63204
:10AF600000293FF4D4AEC3EB0312C3EB82035B00B2
:10AF7000EA18AF4F9278B878904200F02682012903
:10AF80007FF6C5AEB879904200F0188202293FF4EE
:10AF9000BEAEB87A904200F00A8203293FF4B7AE01
:10AFA000B87B904200F0FC8104293FF4B0AEB87C3D
:10AFB000904200F0EE8105293FF4A9AEB97D91429F
:10AFC0007FF4A5AEBA8AEB5A9A427FF4A0AE994BB1
:10AFD0001F68002F3FF49BAE7C22002107A801F0E0
:10AFE000B9F90123ADF81E8007A808968DF81C302A
:10AFF000B847B4F804808AE695F8C6320133DBB26C
:10B00000C3EB0312C3EB82025200A91857F82300C6
:10B0100085F8C632002385F8C532A8500A460B7160
:10B0200050460121FFF7B4F900283FF4DAAB85F868
:10B03000C732014652462846FFF7B0F97E4B03223D
:10B04000A3F802A01A70FFF7CCBBAB5ABA8A9A4297
:10B050007FF4B6AB774B1B680493002B3FF4B0AB87
:10B06000764B0193D3F80080B8F1050F3FF6A8ABFB
:10B07000714B03934FEAC81003EB000B762202FBDF
:10B0800001510290ABF802A00BF1040001F057F956
:10B09000019B02980499CBF87C1008F101021A6018
:10B0A000039B4FF0000AB24203F800A026D0B4F888
:10B0B00004A0FFF785BBB7F810E0A85A86457FF4D7
:10B0C00079ABC7E7B7F800E0A85A86457FF459ABDB
:10B0D000C0E7B7F804E0A85A86457FF459ABB9E752
:10B0E000B7F80CE0A85A86457FF45EABB2E7B7F834
:10B0F00008E0A85A86457FF451ABABE79846D8F8EC
:10B100007C3040469847D9F800600AF1010AB24500
:10B1100008F18008F3D3019A00231360C7E74B1EA0
:10B12000DBB203EBC3030EEB430E05EB0E035B8AAE
:10B1300001339BB219E535F802E0B88986457FF402
:10B14000DAAD3C4B1F68002F3FF4E1AD7C220021BB
:10B1500007A801F0FFF80123ADF81E80089607A8A4
:10B160008DF81C30B847B4F80480D0E535F802E01B
:10B17000388986457FF4B9ADE3E7B7F804E0A85A0B
:10B1800086457FF4ACADDCE735F802E038888645CB
:10B190007FF49FADD5E7B98AAB5A99427FF4B7AD3A
:10B1A000CFE735F802E0388A86457FF4AAADC8E7D4
:10B1B000B7F80CE0A85A86457FF494AE1D4B1F6883
:10B1C000002F3FF49BAE7C22002107A801F0C2F8BB
:10B1D0000123ADF81E6007A8CDF820808DF81C3043
:10B1E000B847A6888AE6B7F808E0A85A86457FF4EB
:10B1F00073AEE3E7B7F804E0A85A86457FF466AE7D
:10B20000DCE7B7F800E0A85A86457FF459AED5E7E9
:10B21000B98AAB5A99427FF471AECFE7B7F810E024
:10B22000A85A86457FF464AEC8E700BF982B00207B
:10B23000A02E0020902B00209C2B00209C2E002074
:10B2400035F803E0388886457FF4D1AC944B1B6811
:10B250000293002B3FF4EFAC924B0193D3F800A084
:10B26000BAF1050F3FF6E7AC8F4B05934FEACA12D0
:10B2700003929A1813461846762202FB0151A3F84E
:10B2800002B00430049301F05AF80498019B0AF1CB
:10B29000010286461A60039B0298CEF87C0018468D
:10B2A000059B00214245195400F0A180B4F804B078
:10B2B000C1E435F803E0B88886457FF4A0ACC5E763
:10B2C000EB5ABA8A9A427FF4B6ACBFE735F803E08E
:10B2D000388A86457FF4A8ACB8E7B7F80CE0E85A9E
:10B2E00086457FF49AACB1E7B7F808E0E85A86459E
:10B2F0007FF48CACAAE795F8C6320133DBB24FF08D
:10B30000760A13FB0AF2A91857F8230085F8C6320B
:10B31000002685F8C562A8500A460E7158460121DC
:10B32000FFF736F8814600283FF45BAA95F8C6324D
:10B3300085F8C76213FB0AF3EA18B978927891424C
:10B340007AD0B8F1010F1DD0B979914200F0A280F6
:10B35000B8F1020F16D0B97A914200F09580B8F199
:10B36000030F0FD0B97B914200F08880B8F1040F31
:10B3700008D0B97C91427BD0B8F1050F02D0B97DDD
:10B38000914270D0484B0322A3F802B01A70FFF725
:10B3900028BA35F803E0388A86457FF40CAE16E605
:10B3A00035F803E0B88986457FF4FEAD0FE635F841
:10B3B00003E0388986457FF4F0AD08E635F803E010
:10B3C000B88886457FF4E2AD01E635F803E03888B9
:10B3D00086457FF4D4ADFAE595F8C932013385F896
:10B3E000C932FFF79ABA4FF00108FFF78DBA9A46B3
:10B3F000DAF87C3050469847D9F8003001369E4242
:10B400000AF1800AF4D3019A9846002313604DE7AD
:10B4100095F8C932013385F8C932FFF7DAB9012648
:10B42000FFF7CEB995F8C932013385F8C9320BE47C
:10B430004FF00108FFF7FFBBE85A3988884280D1F6
:10B44000174B1E68002E9DD007A87C22002100F01B
:10B4500081FF012307A8ADF81EB0CDF820908DF82C
:10B460001C30B0478EE7BA8AEB5A9A428AD1E7E796
:10B47000E85A398A88427FF47FAFE1E7B889E95A10
:10B4800088427FF473AFDBE7E85A398988427FF45A
:10B4900066AFD5E7E85AB98888427FF459AFCFE75D
:10B4A000902B00209C2E00209C2B002090DF7047CA
:10B4B000A5DF7047B5DF704788B110B41B224FF08D
:10B4C0001714002301610460C0F806400271027382
:10B4D00042738372C3725DF8044B184670470E20A6
:10B4E000704700BF70B5858884B02DBB0388232BBF
:10B4F0000C4600F0C78021D93A2B00F0B180552BC3
:10B5000071D0242B00F09880A37AABB1E1880020A1
:10B51000FFF7CEFF002800F08B8011280CD0FCF73D
:10B520006FFF834A834B84499B1ADB081B04024646
:10B5300043F00100FBF776FA04B070BD102B0BD07E
:10B54000112BE1D11B234FF017128D72CD72C1F870
:10B5500006200B734B73EFE70B790B73C27B012A49
:10B5600000F0AC80022A00F0A680C98822898A42B5
:10B57000C0F0A780627B9A42C6D200259BB22846C3
:10B580006A4602A9ADF80830ADF80A30ADF80C50A3
:10B59000ADF80E500095ADF80450FFF787FF002876
:10B5A000B2D0634B634EF61AF608FCF729FF360457
:10B5B00046F0010603462A4630466049FBF7ACFADE
:10B5C000BDF80020BDF8023002B91BB15C4930461D
:10B5D000FBF7A2FABDF80420002A95D0304659495D
:10B5E000FBF720FA90E7C388C988A572172B38BFEC
:10B5F00017238B4228BF0B4628462381FFF75AFFAB
:10B60000002866D1E37A002B7FF47EAF2269002AFE
:10B610003FF47AAF2189ADF80A3040F67720ADF8D3
:10B620000800ADF80C10204602A99047A37A6CE7F9
:10B630000122A072E2727FE70B69027A4A73002B43
:10B640003FF462AF4DF67A200295ADF80C50ADF89C
:10B65000080002A98DF80C2020469847A37A54E7E9
:10B660004389C98822698B4228BF0B46172B38BFF4
:10B670001723238112B1E17A002938D10023E37224
:10B68000A37259E7037A0A7BADF80C50934228BFA6
:10B69000134602A96A462846ADF80E500095ADF84B
:10B6A0000830ADF80A30ADF80450FFF7FFFE00286F
:10B6B0003FF42AAF75E74988E18057E70988E180C0
:10B6C00054E70020FFF7F4FEE8B90123E372237B7F
:10B6D00050E7FCF795FE164A164B1B499B1ADB08F0
:10B6E0001B04024643F00100FBF79CF98AE740F691
:10B6F0007721ADF80810ADF80A50ADF80C3002A96A
:10B7000020469047BAE7112803D10123A372237B77
:10B7100030E7FCF775FE064A064B07499B1ADB0823
:10B720001B04024643F00100FBF77CF9237B21E771
:10B73000B8D1020008D202000CCD020028CC0200D1
:10B7400074CC0200B4CC020040CD02008ADF704706
:10B750008BDF70478CDF704718B112B119B1072029
:10B7600070470E20704770B504461046164600F02C
:10B7700003FE0138C0B21F2801D90C2070BD94F817
:10B7800020500DB1042070BD3146204600F0EAFD86
:10B7900080B194F82000431C84F8203004EB40145E
:10B7A000304600F0E9FD31460246204600F0C7FD74
:10B7B000284670BD70BD00BF78B1CB0601D107200F
:10B7C000704711F0010116BF012380F8211080F8A5
:10B7D000213080F82220002070470E20704700BFE3
:10B7E00058B3F8B50D46C26300212322044600F089
:10B7F000B1FD25B32B7984F823302B7B84F82C30D2
:10B800002B68002B3ED01E6858689968C4F8361023
:10B81000C4F82E60C4F832009B896387AB685BB3C1
:10B820001868596804F1240303C304F140021F237C
:10B830002266A4F864300020F8BD0E20704794F80A
:10B840002E30A58643F0040365F3C4034FF0A00E29
:10B85000502701264FF4C87006211822258584F848
:10B86000235084F82E30A4F830E0678684F82F60E7
:10B870006085A184E284D8E70B4B63624FF0C87304
:10B88000A362D2E794F82E20A38642F0040263F369
:10B89000C402A0205021012384F82E202086618636
:10B8A00084F82F30BAE700BF0600180010B310B5B7
:10B8B000044686B01422002101A800F04BFDFFF7DA
:10B8C00047FF94F82E301B070BD404F1600104F1FC
:10B8D0002E00FFF73BFF044630F008000CD106B005
:10B8E00010BDE36B002BF0D0012201A88DF80420DD
:10B8F0009847EAE70E207047064B07480749C01AE9
:10B90000C008000440F001002246FBF78BF82046F7
:10B9100006B010BDB8D10200F8D1020080CD0200FF
:10B920002DE9F04F0388103B8BB005460C4600F123
:10B930000807102B33D8DFE803F0A332323232325B
:10B9400032323232328E324D3232350094F8233078
:10B9500000218DF80010002B7BD094F82C60FFF7AD
:10B96000F7FE142205A800F0F5FC3346514605F118
:10B970000A0004F12402FFF7EDFE062306908DF87D
:10B980001430E36B18B12BB105A89847E36B0BB1EA
:10B990006846984704F160010020FFF7D7FE0BB01E
:10B9A000BDE8F08F142205A8002100F0D3FCE26B63
:10B9B000002AF4D0386879683D7A06AB03C32E3488
:10B9C00005211D70099405A88DF8141090470BB03F
:10B9D000BDE8F08F68461422002100F0BBFC94F80B
:10B9E0002E3004F12E0A1B07CDF810A05FD494F876
:10B9F000213094F822B0002B00F0868094F820309B
:10BA0000B5F82490002B00F0898003F1FF385FFA2D
:10BA100088F808F1010804EB4818264601E0B04513
:10BA20007CD032464946286AFEF7DCFB20360028E7
:10BA3000F5D09DF80830019743F001038DF80830E8
:10BA4000BBF1000F82D194F823308DF800B0002BA9
:10BA500066D1E36B9BE705A81422002100F07AFC75
:10BA60002B7A012B9BD1E26B002A98D02E34042133
:10BA700009948DF8183005A88DF8141090478EE7BA
:10BA8000142205A8002100F065FCE36BAA88ADF83C
:10BA90001C202E34072206978DF814200994002BC1
:10BAA0003FF47DAF05A898470BB0BDE8F08F0223A7
:10BAB00068468DF800300197E36B984704F1600108
:10BAC0000020FFF743FE94F82330002B3FF467AFCC
:10BAD00094F82C60FFF73CFE1422002105A800F02A
