:020000022000DC
:1060000000000120E1620200096302000B6302004C
:106010000D6302000F630200116302000000000024
:1060200000000000000000000000000013630200F8
:1060300015630200000000001763020019630200EC
:106040005D9802001B63020011A10200C18E0200D4
:106050001B6302001B630200E99B02001B6302003A
:106060001B6302001B6302001B6302001B63020030
:106070001B6302001B6302001B6302001B63020020
:106080001B630200C97402001B6302001B63020051
:10609000697502001B630200551103001B630200B7
:1060A0001B6302001B6302001B6302001B630200F0
:1060B000E9AA02001B6302000000000000000000CB
:1060C0001B6302009DAB02001B6302001B63020006
:1060D0001B6302001B6302001B6302000000000040
:1060E00000000000000000000000000000000000B0
:1060F00000000000000000000000000000000000A0
:10610000000000000000000000000000000000008F
:10611000000000000000000000000000000000007F
:10612000000000000000000000000000000000006F
:10613000000000000000000000000000000000005F
:10614000000000000000000000000000000000004F
:10615000000000000000000000000000000000003F
:10616000000000000000000000000000000000002F
:10617000000000000000000000000000000000001F
:10618000000000000000000000000000000000000F
:1061900000000000000000000000000000000000FF
:1061A00000000000000000000000000000000000EF
:1061B00000000000000000000000000000000000DF
:1061C00000000000000000000000000000000000CF
:1061D00000000000000000000000000000000000BF
:1061E00000000000000000000000000000000000AF
:1061F000000000000000000000000000000000009F
:1062000010B5054C237833B9044B13B10448AFF3F0
:1062100000800123237010BD003500200000000025
:106220006C3103000C4B43B10C480D4910B5AFF372
:1062300000800C48036823B910BD0A48036833B9CD
:106240007047094B002BF7D0BDE810401847064BAC
:10625000002BF5D0184700BF000000006C31030090
:1062600004350020FC34002000000000154B002BFA
:1062700008BF134B9D46A3F5803A00218B460F467D
:106280001348144A121A0BF05BF90F4B002B00D085
:1062900098470E4B002B00D09847002000210400A7
:1062A0000D000D48002802D00C48AFF300800BF021
:1062B000E9F82000290005F023F80BF0CFF800BF23
:1062C00000000800000001200000000000000000A5
:1062D00000350020084600200000000000000000FB
:1062E0000649074A074B9B1A03DD043BC858D050A8
:1062F000FBDC02F0E1F9FFF7B9FF0000A432030074
:106300000030002000350020FEE7FEE7FEE7FEE754
:10631000FEE7FEE7FEE7FEE7FEE7FEE7F0B595B035
:10632000002415460F4608461E4602F099F83846E6
:1063300023460822089505A91A9D09960D950A94E9
:106340008DF82C400C9402F0E7F89DF81430079873
:1063500006998DF8114003F00302012A029003917F
:1063600028D0022A04D0384602F07EF815B0F0BDDD
:10637000BDF81650C3F3C2038DF81030C5F389156C
:106380000826082D2C4628BF0824334622460EA98D
:10639000384602F0C1F82D1B214608AB02AA0EA810
:1063A000264400F0DBFD002DEBD1384602F05CF80E
:1063B00015B0F0BDBDF81460059DC6F38316C3F398
:1063C000C204B2000EA9384608238DF81040C5F368
:1063D000952502F0A1F808AB0093324628460EA995
:1063E00002AB00F015FDBEE7014B01221A707047A9
:1063F00060350020704700BF00B583B0044B0093A8
:10640000044A4023FFF78AFF03B05DF804FB00BF96
:10641000196402002035002038B50F480F4D03786D
:106420000F4CEB5C00252570D2B253B90C3004F050
:10643000BBF858B90B4B1B7813B12378002BFCD059
:1064400038BD043004F002FB0028F3D0064A532183
:1064500000F0AEFFEEE700BF003000200046002055
:10646000603500201C350020B41E030070B51448B0
:10647000144A0378D35C88B0EBB90C3004F02EF8E2
:10648000114D0FCD6C460FC495E80F0008AD0626E0
:1064900045F8206D84E80F0029460022084803F0E3
:1064A0006FF918B1094A432100F082FF084B00221E
:1064B0001A7008B070BD043004F060FAE0E700BF65
:1064C0000030002000460020881E0300B41E030098
:1064D0001C35002070B50E4D0FCD88B06C460FC432
:1064E00095E80F0008AD062645F8206D84E80F00FA
:1064F0002946084A084803F043F918B1074A4321DE
:1065000000F056FF064B01221A7008B070BD00BFA4
:10651000881E0300E963020000300020B41E03005F
:106520001C35002008B5FFF7D5FF0421034800F013
:1065300027FC034B01225A7108BD00BF8C320300B7
:1065400014300020F0B5334D85B005F5836001F0BF
:1065500093FB05F2144001F08FFB6B68AE6803EA11
:106560000600C11C05EB810215F8214014F004045B
:106570000ED0117801F0030101293BD0022903F16B
:10658000020700F1030126D005EB8102002CF0D1B7
:1065900005EB80005A1CC1680191324005EB820274
:1065A00001F00301D2680292012903F1020429D00B
:1065B000022925D1BDF80630BDF80A60C3F389135E
:1065C000033304EB9304144801F064FB00B16C60E6
:1065D000304605B0F0BD538807EB931306EA03007D
:1065E000C11C05EB810215F8214004F00404002CC5
:1065F000BFD1CDE711880233C1F383110B44EDE71E
:106600000026E0E7BDF80430BDF80A60C3F3831349
:106610001C44D8E734360020483A00200B4B0C4885
:1066200010B50022FF21C3F8182499601A605A603F
:10663000C3F8142483F8202401F0C8FE044610B9DE
:10664000044801F0DFFF204610BD00BF34360020B3
:10665000603203002C1F030021B9114B03EBC00073
:106660000068704730B40F4A0D4C121BD2080CD092
:106670000D4D2B88834210D0002303E035F8231002
:10668000814205D001339A42F8D1002030BC7047D6
:1066900004EBC300006830BC70472046FAE700BF37
:1066A000D03103006032030000350020094B01396E
:1066B00003EBC00003290BD8DFE801F00208060451
:1066C0000220704740797047007970470420704776
:1066D00000207047D03103002DE9F047944C94E836
:1066E0000C009A4284B000F0BB800023C4F8183438
:1066F000BFF34F8F6368A56803EA0501CA1C04EB6A
:10670000820614F8222050071AD52768327802F042
:106710000302012A44D0022A03F1020202D1738843
:1067200002EB931305EA0301D4F81804CA1C04EB26
:10673000820628B99F4239D914F822205207E5D49D
:1067400004EB81015A1CC96801912A4004EB8202C2
:1067500001F00301D2680292022903F1020829D054
:10676000012900F08180D4F810543DB12B682846EF
:106770009B689847EB681D68002DF7D16D486E4BFC
:106780006E49C01AC008000440F0020000F0DCF8B6
:1067900060682368C01A18BF012004B0BDE8F08704
:1067A00032880233C2F383121344BBE7676004B03C
:1067B000BDE8F087BDF806306148C3F389194F463C
:1067C000502FA8BF502767F38F1307F10801ADF8CA
:1067D000063001F0FDFD06460028C4D025EA080A6F
:1067E0000AF1010A01F03CFE4FEA8A0A002308225E
:1067F00001A9304601F05AFE574572D9BAF1000F8F
:106800007ED13A4608234F49304601F04FFE09F148
:10681000030708EB9707D4F81834002B6CD1D4F891
:1068200010545DB1EB685A79314628461AB12B688D
:106830001B689847EB681D68002DF3D1304601F0C6
:1068400013FE04A8002300F80D3D01F075F9D4F8FB
:10685000183403B967609DF8030001F093F997E7D6
:10686000002004B0BDE8F087BDF804303448C3F31D
:106870008312062A28BF0622911C62F3891389001D
:10688000ADF8043001F0A4FD064600283FF46BAFDC
:1068900001F0E6FD0023082201A9304601F006FEC2
:1068A000BDF8043013F4707F3FD04FF0000A4FF072
:1068B000080905EA080103314B4604EB8101042273
:1068C000304601F0F3FDBDF804300AF1010AC3F3CC
:1068D000831308F10107534509F10409B846E8D8C4
:1068E00099E705EA0801033104EB81013A460823E0
:1068F000304601F0DBFD8AE7304601F0B5FD47E7A1
:1069000005EA08010331A7EB0A0504EB81015246B1
:106910003046EDB2082301F0C9FD2A460AF108030A
:106920000849304601F0C2FD71E7474673E700BFF2
:106930003436002008320300D0310300381F030032
:1069400060320300403600202DE9F04383B002ABF3
:10695000002203F8012DDFF8E0900746184688462C
:10696000D9F8085001F0E8F8D9F80820D9F804302F
:10697000D9F80060134401339B1B012B57D809F24F
:106980001C440121204601F05BF9FFF7DBFD0146C5
:10699000204601F055F999E80A00D9F80820134477
:1069A00001335B1A012BECD901240A40033244F075
:1069B00004036FF3891302319DF8070049F8223070
:1069C000C9F8001001F0DEF800211A4801F010F9B2
:1069D00080F3100033192B4009EB8303000435408A
:1069E000033540EA1740D86019F8253067F3C5032E
:1069F00009F8253039F825306FF3891329F8253047
:106A000059F8252068F39F22134664F301036FF3BE
:106A1000820349F8252009F8253099F820341BB164
:106A2000FFF75AFE0028FBD103B0BDE8F0833146E2
:106A3000BAE700BF503A0020343600202DE9F04775
:106A400082B002AB002403F8014D374C8046184653
:106A500092468946A56801F06FF8A26863682768C6
:106A600013440133DB1B022B5BD804F21C460121CB
:106A7000304601F0E5F8FFF765FD0146304601F0CC
:106A8000DFF894E80A00A268134401335B1A022B72
:106A9000EDD901260A40033246F0040366F3891358
:106AA00044F8223003319DF80700216001F06AF8B4
:106AB000BB1C2B4004EB830300211C48C3F80CA033
:106AC00001F096F880F31000BB192B4004EB830310
:106AD00000043D40033540EA1840D86014F82530E2
:106AE00068F3C50304F8253034F8253066F38913BC
:106AF00024F8253054F8252069F39F22134666F3C5
:106B000001036FF3820344F8252004F8253094F83C
:106B100020341BB1FFF7E0FD0028FBD102B0BDE837
:106B2000F0873946B5E700BF34360020503A0020E0
:106B30002DE9F04F85B004AD002405F8014D3C4C23
:106B400001938046284693468946A66800F0F4FFE4
:106B5000A2686368276813440133DB1B032B65D8E5
:106B600004F21C450121284601F06AF8FFF7EAFC0F
:106B70000146284601F064F894E80A00A26813442C
:106B800001335B1A032BEDD901250A4003324FF084
:106B9000020A45F004036AF3891344F822300431F1
:106BA0009DF80F00216000F0EDFF07EB0A0EFA1CC4
:106BB0000EEA060E324004EB820204EB8E0E019BBD
:106BC0001C48CEF80CB00021D36001F011F880F31E
:106BD00010007A19324004EB820200043E40033672
:106BE00040EA1840D06014F8262068F3C50204F883
:106BF000262034F826206AF3891224F8262054F837
:106C0000262069F39F22134665F301036FF3820385
:106C100044F8262004F8263094F820341BB1FFF7FE
:106C20005BFD0028FBD105B0BDE8F08F3946ABE72E
:106C300034360020503A00202DE9F04F89B008ADDD
:106C4000002405F8154D04934B4C129F0597994667
:106C5000139B06938046149B039228469246079303
:106C6000A6688B4600F068FFA26863682768134433
:106C70000133DB1B062B7CD804F21C45012128467E
:106C800000F0DEFFFFF75EFC0146284600F0D8FF6B
:106C900094E80A00A268134401335B1A062BEDD96D
:106CA0000A400125D31C45F0040E052262F3891E1B
:106CB00044F823E007319DF80B000192216000F0B9
:106CC00061FFB91CF81C07F1040C314030400CEA9C
:106CD000060C07F1050E0EEA060E04EB810104EB2B
:106CE000800004EB8C0CBB1D129AC1F80CA0334041
:106CF00004EB8E0EC0F80C9004EB8303CCF80C2050
:106D0000139ACEF80C200021149A1C48DA6000F087
:106D10006FFF80F310007B19334004EB8303000402
:106D20003E40033640EA1840D86014F82630019AF5
:106D300068F3C50304F8263034F8263062F389136B
:106D400024F8263054F826206BF39F22134665F36F
:106D500001036FF3820344F8262004F8263094F8E8
:106D600020341BB1FFF7B8FC0028FBD109B0BDE807
:106D7000F08F394694E700BF34360020503A0020A7
:106D800030B4174DD5F8104400215CB1E3681A798E
:106D90008A4204D116E0DB681A798A4212D01B6855
:106DA000002BF8D1C3681971D5F8103493B1DA68A3
:106DB000C36812681A60D5F81034DB68186008469A
:106DC00030BC704701310A29DFD14FF0FF3108464E
:106DD00030BC7047C5F81004C2681360EFE700BF0D
:106DE0003436002038B5094BD3F81044012583F818
:106DF00020544CB1E3685D71236820465B68984776
:106E0000E3681C68002CF5D138BD00BF3436002083
:106E10002DE9F04784B01D460C9C002394F80C80AB
:106E20002373EB8881460E461746002B3BD1297A07
:106E300005290FD06B7A002B3DD1404BA88853F821
:106E400021A00021FFF708FC524603463C4920469A
:106E500000F09AFF062F0FD8DFE807F0484D535A8D
:106E600004633900F168B06896E80C000191009065
:106E70004946204600F088FF2B7A052B05D06B7A17
:106E80005BB93049204600F07FFF204600F070FFDC
:106E900084F80C8004B0BDE8F0872B4A2B492046CB
:106EA00000F072FFEDE7284A00922949294A20465E
:106EB00000F06AFFBBE7A888FFF7F8FB264B2349E1
:106EC00053F82020204600F05FFF297AB5E770696B
:106ED000316996E80C000390B068F76802918DE87C
:106EE00081004946204600F04FFFC5E7494620464D
:106EF00000F04AFFC0E732684946204600F044FFF0
:106F0000BAE7494696E80C00204600F03DFFB3E79B
:106F1000B16896E80C0020460091494600F034FF25
:106F2000AAE7B068F768316996E80C0002918DE82D
:106F300081004946204600F027FF9DE7C01F03005F
:106F4000B41F030014290300A81F0300B01F03008F
:106F5000901F0300881F0300501F0300082900D959
:106F600070472DE9F04F1D46904600232A7B2B7376
:106F700085B0B8F80630039207460E46002B6BD159
:106F800098F80810052911D098F80930002B6BD11A
:106F90003C4BB8F8040053F821400021FFF75CFB9C
:106FA000224603463849284600F0EEFEDFF8F8B0E6
:106FB000DFF8F8900024A642494628463ED93A5DBB
:106FC000013400F0E1FE082CF5D13049DFF8E09003
:106FD000DFF8E0B0284600F0D7FE002411E017F8F3
:106FE00004A00AF073FA50445946437813F0970FFF
:106FF00014BF52462E222846013400F0C5FE082C4C
:1070000008D0A64249462846E9D8013400F0BCFE23
:10701000082CF6D198F80830052B02D098F80930E2
:10702000A3B91B49284600F0AFFE284600F0A0FE99
:107030009DF80C302B7305B0BDE8F08F0134594634
:10704000284600F0A1FE082CB5D1BEE7114A12492E
:10705000284600F099FEE4E70E4A00920F49104AD4
:10706000284600F091FE8BE7B8F80400FFF71EFBFE
:107070000C4B094953F82020284600F085FE98F86B
:10708000081085E7C01F0300B41F0300801F030022
:1070900014290300A81F0300B01F0300901F030062
:1070A000881F0300501F03007C1F0300741F030090
:1070B000BC1F0300841F0300434B1978002900F014
:1070C00081802DE9F04F8C4687B00024012503E034
:1070D0000134E4B2644560D23C4B27B21E6816F816
:1070E00037E0AEF1200305FA03F9394BCEF1200168
:1070F000D3E9002325FA01F149EA010905FA0EF85E
:1071000008EA020009EA0301014306EBC70BDFD0DE
:107110002F4922EA080223EA09037046C1E9002345
:1071200002F058FD16F837E0AEF1200205FA02F23F
:1071300001920199CEF12003C6B225FA03F3AEF114
:107140002002194306FA02F30393224B0191D3E97B
:107150000023CDE9042305FA0EF30093CEF12001BC
:10716000039B26FA01F10B43039306FA0EF30293F5
:10717000DDE90467DDE9002316401F4032463B4647
:10718000DDE90267BB4208BFB24209D00E4B0134B1
:1071900093F800C0E4B264459ED307B0BDE8F08F19
:1071A000DBF80430002BF1D09BF80110A1F10101B4
:1071B000B1FA81F14909091AB1FA81F14909704618
:1071C0009847E3E7704700BFF03A0020283B0020D3
:1071D000203B0020183B00202DE9F84306462048BC
:1071E00000F06EFCD0B91F4F0123A6F1200103FA75
:1071F00001F5C6F12002D7E9000123FA02F2154396
:1072000003FA06F404EA000205EA0103134307D077
:1072100020EA040421EA0505C7E90045BDE8F88332
:10722000304602F0D7FC104ED6E9008998B148EA02
:10723000040849EA0509D7E9002314431D43C6E9B8
:107240000089C7E90045094B054819680022BDE8D7
:10725000F84300F0DFBB28EA040829EA0509EAE759
:10726000F83A0020203B0020183B0020F43A002090
:10727000042A01D8072070472DE9F04182B00F465B
:107280000546164602F068FB002834D01C4C1D4A07
:107290001D4B1E481E49256017707C1E00221E6073
:1072A0000023C0E90023C1E90023E4B2EFB1DFF815
:1072B0006C800027032601E0FF2C16D023B205EBDB
:1072C000C30215F8330093788DF80670424601A981
:1072D0008DF804608DF8053002F048FB013CE4B203
:1072E0000028E9D002B0BDE8F0810A4A0A4800212E
:1072F00000F07EFBF6E702F0E1FA0028C6D0F1E7E5
:10730000283B0020F03A0020F43A0020183B0020EF
:10731000203B0020B97002002C200300D97102002C
:1073200070B5084D2B785BB1074E002433680121FE
:1073300013F8340002F0ECFB2B780134A342F5D8AB
:10734000002070BDF03A0020283B002030B482B00D
:1073500001248DF80740154B9DF80750186044F242
:107360000104A04259609A6014D044F2020188429C
:1073700008D072B69DF80730002BFBD162B602B080
:1073800030BC7047DA60DA6812889A61DA6852684D
:10739000DA61EEE71A611A6992685A611A6912682D
:1073A0009A611A695268DA61E3E700BF2C3B00205A
:1073B00000B583B002900091019244F20100714641
:1073C0006A4600F003F803B000BD00BF2DE9F041AC
:1073D000044684B00E46154672B6FFF703FDFFF76C
:1073E0007BF90028FBD141F201039C4256D03CD9E5
:1073F00044F201039C421CD044F202039C4241D15E
:107400002848294F2B886A682849C01BC0080004F7
:1074100040F00100FFF78CFB254B1B68DB0700D514
:1074200000BE2A463146204604B0BDE8F041FFF7D1
:107430008DBFD5F808801C4B1A4F4046FF1AFF0835
:1074400001F004F92B68019302963F046B680093E6
:1074500047F001070346424638461649FFF7ECFB62
:1074600038461549FFF770FAD6E7012C0AD10D48C6
:107470000D4B1249C01AC008000440F00100FFF78C
:1074800063FAC9E7084B07480D49C01AC008000451
:1074900040F001003246FFF7D1FABDE70148024B48
:1074A0000849E7E708320300D031030074200300E5
:1074B000F0ED00E090200300B8200300302003002E
:1074C000CC20030050200300F8B5204A204B0025B3
:1074D000C2F84051C2F84451C2F84851C2F84C5168
:1074E000C2F80051C2F804511B6813B31949D2F80D
:1074F00004450A68A41A1A6824F07F44A2422F4661
:1075000009D8197CDE69A41A154499B91EB133460D
:107510001A68A242F5D91049104A0B7812789A429B
:107520000DD00F490F4A41F823504FF48013C2F891
:107530000031F8BD1F745A6998699047E6E7531CFB
:10754000DBB2022B08BF00230B70EAE700100140FA
:107550006C3C0020683C0020653C0020643C00201E
:107560005C3C002000E100E02DE9F04FB74AB8494B
:1075700013780978994285B033D00133DBB2022BFE
:1075800008BF0023B3481370B34A0768DFF8E082EE
:1075900052F82320D8F80010BB18002423F07F43B2
:1075A000036025462046A646A9B10B68934200F227
:1075B0007D81CC68C1F800E0D21A1844CB6934B19F
:1075C0003E1826F07F46CD618C604E600D46194610
:1075D00001240029E9D1002C40F0A5814FF0010BD6
:1075E00005E0DFF88C820025D8F80010AB469B4BF5
:1075F0009B4FDFF8809243F0010300930E464FF05B
:10760000000A002D2DD0D5F804E0D5F808C02C468E
:10761000ED69904B93481B68AEEB030222F07F426A
:10762000824255D802EB0C032360002201206260E5
:10763000A260E2612074002E6BD03068834261D971
:10764000B64603E0106898424CD29646DEF81C20FD
:107650001B1A002AF6D12360E261CEF81C40002DEF
:10766000D1D197F801C097F800E0F44571D0734686
:1076700003EB43030EF10100BA7807EBC3035FFA93
:1076800080FE7245187987F800E004BF4FF0000EC5
:1076900087F800E002289A684CD003283DD00128E2
:1076A000E3D1107C0028E0D1D3F80CE0C2F804E06C
:1076B000D3F810C0C2F808C014465A69E26099F8BD
:1076C00000209B69A361002AA3D060608646A0E7E2
:1076D000A3EB0E0323F07F4363450AD2ACEB030315
:1076E0002360A2E7C01A10602360E261CEF81C405C
:1076F000B5E70023012223606360A360E361227485
:107700003EB13068C8F80040C31A3360E6612646CF
:1077100077E7C8F80040264673E7002EA5D0002280
:1077200000E01E46F3693274002BFAD1C8F800302D
:107730001E4696E74EB1B242344603D1BDE09A42AE
:1077400060D01C46E369002BF9D100231374F44583
:107750008DD1BAF1000F02D18E4200F09D80002E33
:1077600000F0C5803B4B404A1C68D2F80475DFF836
:107770000881D6F800A098F800103B1B23F07F4347
:10778000DD1CA9B93949354B4FF48030C2F84403A8
:107790000126C2F804034FF40030C1F8800143F021
:1077A0000103086016604FF43C60984788F8006059
:1077B000AA452CBF04EB0A0363192B4923F07F432E
:1077C000C1F84035D1F80425D21BDB1B22F07F42E3
:1077D00023F07F4303329A420ED9204BD1F804257F
:1077E000C1F8402543F001034FF43C6098471F4B1C
:1077F0004FF40032C3F80021002389F8003005B0AF
:10780000BDE8F08FA24239D0D2F81CE01368C4F86A
:107810001CE0BEF1000F11D03046DEF800402344DA
:10782000CEF80030864209D0002397F800E097F8A0
:1078300001C0137406464FF0010A88E7002397F849
:1078400000E097F801C0137481E700BF643C00209A
:10785000653C0020683C00205C3C0020F0200300D8
:107860004C3B0020FEFF7F000010014000E100E0E3
:107870006C3C0020583C0020593C00201346F06925
:10788000C8F80000D8B1D3F81CE01B68C4F81CE0AD
:10789000BEF1000FC1D1C5E7BBF1000F7FF45FAFB0
:1078A000002389F8003005B0BDE8F08F002C3DD1F1
:1078B0009B1A0B604FF0010B99E63346DFE701930B
:1078C0001C4BDFF87CC003924FF0010E0291C3F80D
:1078D00008E0009BCCF8000089F800E04FF43C6021
:1078E0009847D8F80000019B0299039ACBE7114D05
:1078F000114A124C4FF480334FF400310127C2F883
:1079000080103C43C5F848334FF43C60C5F8083359
:107910006F60A0470A4BAF604FF43C601E60A04709
:10792000084B1E7068E7C8F8001057E6C8F800104A
:10793000BEE700BF0010014000E100E0F0200300BE
:10794000683C0020593C00202DE9F8431F4D204E93
:10795000204FDFF898804FF480334FF400324FF01F
:1079600001090024C6F8802047EA0907C5F8483312
:107970004FF43C60C5F80833C5F80490B847C5F823
:1079800008904FF43C60C8F80040B847124B1348C9
:107990001349144A1C70144B04600C7014704FF49B
:1079A0008011E0220B2098701C705C70C6F880116A
:1079B00086F814233160C5F8084586F81123D5F8F8
:1079C0000435C8F800302046BDE8F88300100140B7
:1079D00000E100E0F0200300593C00206C3C002056
:1079E000643C0020653C00204C3B0020683C0020AB
:1079F000074B9B780BB9082070473AB130B1036848
:107A0000187C0028F7D159745A61704707207047D5
:107A10004C3B00202DE9F043264CA37883B01BB9E2
:107A2000082003B0BDE8F0830028F9D0042903D86A
:107A3000072003B0BDE8F0834369002BF0D0064671
:107A400002A8737C0025012B00F8015D0CBF89465C
:107A5000A94690460F4600F06FF86378A078217829
:107A60005A1CD2B2904208BF2A4691421BD003EB67
:107A7000430304EBC30301200F4918719E60D1F842
:107A800004159DF80700D9601F61C3F81490C3F86E
:107A90001880627000F076F8084B4FF48012284688
:107AA000C3F80021BDE79DF8070000F06BF8042043
:107AB000B7E700BF4C3B00200010014000E100E0B0
:107AC00070B51B4CA37882B013B9082002B070BD0A
:107AD0000028FAD04369002BF7D0064602A80025FB
:107AE00000F8015D357400F027F86278A0782178FD
:107AF000531CDBB2984208BF2B46994212D002EBCE
:107B0000420204EBC20202219DF807009660117147
:107B1000637000F037F8074B4FF480122846C3F823
:107B20000021D3E79DF8070000F02CF80420CDE7F2
:107B30004C3B002000E100E070B4EFF3108472B61B
:107B40000D4B9A68AAB90D490D4E01259D60D1F8DB
:107B5000805035401D60C1F88060D1F884505D6070
:107B60004FF0FF33C1F88430027004B962B670BCC4
:107B7000704701230370F8E7F445002000E100E0BE
:107B8000FC06FFBD094B9A6872B168B910B4EFF3F7
:107B9000108272B606491C680C605C684C60986084
:107BA00002B962B65DF8044B704700BFF44500208F
:107BB00000E100E001F01F024B09012100EB83000E
:107BC000914000F021B800BF01F01F0201234909D4
:107BD000934000EB8100D94300F024B84B0901F039
:107BE0001F0150F82300C84000F00100704700BF9B
:107BF00000B550E8002F0B4640E8003E9EF0000F15
:107C0000F7D110465DF804FB00B550E8003F43EAA9
:107C1000010240E8002E9EF0000FF6D110465DF8FC
:107C200004FB00BF00B550E8003F03EA010240E852
:107C3000002E9EF0000FF6D110465DF804FB00BF49
:107C400000B550E8003F03EB010240E8002E9EF033
:107C5000000FF6D110465DF804FB00BF00B550E8F8
:107C6000003FA3EB010240E8002E9EF0000FF6D18A
:107C700010465DF804FB00BF00B5012350E8002F5B
:107C800042EA030E40E800E191F0000FF6D17046A1
:107C90005DF804FB00B5002350E800EF0EEA030294
:107CA00040E8002191F0000FF6D170465DF804FB2A
:107CB000B8B130B4416882680468521AD2B2531E17
:107CC0002160DBB242B101680A685C1E551C0D6080
:107CD0001370E3B2FF2BF6D103680020187130BC9B
:107CE00070470E20704700BFF0B583B002AB00258F
:107CF00003F8015D04461846FFF71EFF236861681C
:107D00001A688A4210D9511E19602168A3680E684A
:107D100012F8015C0A79278AE0689B1BDBB29A4261
:107D200007FB050538BF0B719DF80700FFF72AFF19
:107D3000284603B0F0BD00BF30B583B002AB0022CF
:107D400003F8012D054618460C46FFF7F5FE2A6894
:107D50001368591C1160E9682A8A641AB4FBF2F4AA
:107D60001C709DF80700FFF70DFF03B030BD00BF8A
:107D7000826802B9704710B504464369016800691A
:107D800098470023A36010BD0EB400B582B00399DC
:107D900029B102AA04AB42F8043D00F095F802B004
:107DA0005DF804EB03B070472DE9F84F1746B94270
:107DB000884606461D46DDF828B00B9A7DD30B4653
:107DC0004FF00109B3FBF7F39F4209F10109F9D91B
:107DD000A94538BFA94612F0010A02D1BBF1000F34
:107DE00049D1B268012402E0013D07FB04F4012DF2
:107DF000FAD8B8FBF4F18F42F7D9324D05E0B4FB65
:107E0000F7F4A4B1B8FBF4F1B268685C531CB3603A
:107E100033689854B26873689A4204FB1188EED3B1
:107E20003046FFF7A5FFB4FBF7F4002CEAD1BAF116
:107E3000000F16D0BBF1000F33D0CB4588BF2024F4
:107E40003ED9B3683268591CB160D454B2687368C3
:107E50009A420BF1FF3B06D2BBF1000F09D0D94586
:107E6000EFD1BDE8F88F3046FFF782FFBBF1000F7E
:107E7000F5D1BDE8F88F93071AD42024CB45B0D9AB
:107E8000B2683368511CB1609C54B26873689A42FE
:107E90000BF1FF3B07D2BBF1000FA3D0CB45F0D1D4
:107EA000A0E7BDE8F88F3046FFF762FFB268F2E75F
:107EB000002D0CBF30242024E0E74FF0010987E7B4
:107EC000BDE8F88FF8200300002900F06F822DE94B
:107ED000F04F064685B093460C460B780DE0B2682D
:107EE0003168501CB0608B54B26873689A4280F05D
:107EF000D3802378002B00F0BA800134002B00F0EF
:107F0000B680252BEBD14FF00008234614F8012B47
:107F10002D2A00F0BB80302A00F0BB802B2A00F015
:107F2000AD802A2A00F0BC80A2F13005E9B209290F
:107F300098BF013302D9A9E1A1F130051C4613F81D
:107F4000012BA2F1300005EB8501092802EB41016C
:107F5000F2D92E2A00F0B080002701E014F8012F9A
:107F600002F0FB03682BF9D0253A532A7AD8DFE8D0
:107F700012F07A01790079007900790079007900AE
:107F80007900790079007900790079007900790029
:107F90007900790079007900790079007900790019
:107FA0007900790079007900790079007900790009
:107FB00079007900790079007900790079007900F9
:107FC00079007900790079007900790079007900E9
:107FD00079007900790079006A01790079007900E7
:107FE00079007900790079007900790079005501EC
:107FF000FC007900790079007900FC0079007900B3
:108000007900790079007900540079007900CA007C
:108010007900BA00790079006A01DBF80020131DAD
:10802000CBF80030B368156831685A1CB2604FF065
:108030003002CA54B3687268934280F0A0813268FB
:10804000581C7821B060D154B26873689A4280F0AD
:108050009281002208230192294600931022304683
:10806000FFF7A2FE01342378002B7FF446AF337B69
:10807000002B40F0058105B0BDE8F08F234614F8D1
:10808000012B2D2A48F004087FF445AF48F0010881
:108090003BE748F0020838E73046FFF769FE28E77B
:1080A000DBF80020111DCBF8001015685A782E2A35
:1080B00003F101047FF450AF6278A2F13003092B81
:1080C00004F101044FF000073FF64AAF07EB8707C2
:1080D00002EB470714F8012FA2F13003092BA7F197
:1080E0003007F3D93CE7DBF800301A1DCBF800204D
:1080F0001968CDF804803B4600950A223046FFF708
:1081000053FE0134AFE7DBF800301A1DCBF8002036
:1081100018F0010FD3F8009040F0BB80B9F1000FC8
:1081200000F04781484609F041FA0746BD4240F257
:10813000F180002D00F0EE804FF0200805E0BD42F8
:1081400000F0E880002D00F0E580B3683268591C2B
:10815000B16002F80380B26873689A4205F1FF3596
:10816000EDD33046FFF704FEE9E7DBF800301A1DD7
:10817000CBF80020D3F8009089EAE973A3EBE97308
:10818000092B4FF0010A09DD8F4A82FB0312DB172E
:10819000C3EBA203092B0AF1010AF5DCBA4538BF8B
:1081A000BA462DB3B9F1000F02DB18F0040F00D06E
:1081B000013D18F0020F40F0F58018F0010F17D1C3
:1081C000002D00F0FE80AA4538BF202110D2B268F1
:1081D0003368501CB0609954B26873689A4205F1D4
:1081E000FF3580F0E880002D00F0EB80AA45EED14D
:1081F000B9F1000FC0F2C88018F0040F7BD108F06D
:108200000303022B00F09A808DE820013B4649468B
:108210000A223046FFF7C8FD013424E7DBF80020CE
:10822000131DCBF80030B36831681278581CB06069
:10823000CA54B26873689A42FFF414AF3046FFF72D
:1082400097FD01340FE7DBF800301A1DCBF8002052
:108250001968CDF804803B46009510223046FFF7A0
:10826000A3FD0134FFE6B3683268591CB1604FF0DA
:108270002501D154B26873689A42DFD20134F2E624
:10828000304605B0BDE8F04FFFF772BD1C46002533
:108290005FE64F46A7EB090817F8013B8BB1B268C0
:1082A0003168501CB0608B54B26873689A42F1D345
:1082B0003046FFF75DFDA7EB090817F8013B002BDF
:1082C000EDD145457FF6CEAE202705E045453FF48C
:1082D000C9AE002D3FF4C6AEB3683268591CB16018
:1082E000D754B26873689A4205F1FF35EED3304631
:1082F000FFF73EFDEAE7B2683368501C2B21B060FF
:108300009954B26873689A42FFF479AF3046FFF728
:108310002FFD74E709F1FF3919F8013F002B3FF4F5
:10832000A1AEB2683168501CB0608B54B2687368FB
:108330009A42F1D33046FFF71BFDEDE7002F7FF4A3
:1083400063AF002D33D0AA45BFF45EAFB268336887
:10835000511CB1604FF030019954B26873689A4271
:1083600005F1FF3503D215B3AA45EFD14CE73046EE
:10837000FFF7FEFCF7E73046FFF7FAFC69E6304608
:10838000FFF7F6FCB3685AE6B2683368501C2D213B
:10839000B0609954B26873689A42C9F10009FFF459
:1083A0002EAFB3E7002F3FF423AF06E77047002559
:1083B0002AE74F46BAE630460391FFF7D9FC039906
:1083C00011E7002514E700BF67666666FFF770BC1B
:1083D0002DE9F041B0F81080CF1CA8F10408474403
:1083E0000646B7FBF8F7FFF77FFC80B3FFB2002526
:1083F0000123013F0446A0F8068006600571437121
:1084000028D0804609E06379AF4203F1010363712C
:10841000C8F80000066080461CD03046FFF764FCB8
:1084200001350028EFD16679721E16D0234601303F
:1084300082421B68FBD81F684EB1214600250C689C
:1084400001353846FFF778FCAE422146F7D10020CF
:10845000BDE8F0812046BDE8F0812768EDE700BF68
:1084600004300121FFF7ECBBF8B5012104460430CC
:10847000FFF7F4FBC0B200B1F8BD6679721E12D0EE
:108480002346013082421B68FBD81F68002EF3D0C0
:10849000214600240D6801343846FFF74DFCA64202
:1084A0002946F7D1F8BD2768F2E700BF2DE9F84368
:1084B000C78890F805E0154607FB0EFEEC18AEF1F4
:1084C000040E1A1DA6458846B2FBF7F638BFAEEB80
:1084D000030507FB1621044616B1013E2468FCD1B2
:1084E0007E1AAE4228BF2E469DB14FF00009081DEE
:1084F000AD1B08EB09012044324609F016F8AF42E3
:10850000B14424683E464FF0000128BF2E46002D9E
:10851000EDD1BDE8F88300BF2DE9F843C78890F896
:1085200005E0154607FB0EFEEC18AEF1040E1A1D11
:10853000A6458846B2FBF7F638BFAEEB030507FB4E
:108540001621044616B1013E2468FCD17E1AAE42C3
:1085500028BF2E469DB14FF0000904312144AD1BC8
:10856000324608EB090008F0E0FFAF42B14424684E
:108570003E464FF0000128BF2E46002DEDD1BDE84C
:10858000F88300BF41DF7047064A074B10B500244F
:1085900014701C60BFF35F8F0449054800F040F879
:1085A000204610BD783C00207C3C002008210300C0
:1085B000703C002000B583B002A8002300F8013D04
:1085C000FFF7BAFAF1EE103A23F09F03E1EE103A0A
:1085D000BFF35F8F0A4B4022C3F884219DF8070048
:1085E000FFF7D0FA08F0B0FD28B920BF40BF20BF88
:1085F00003B05DF804FBFFF7C5FF03B05DF804FBB3
:1086000000E100E082680023936082681361826861
:1086100053618268D36082685360826813607047D8
:1086200001600B6843604A68934204BF00234360C3
:10863000704700BF436843B1026891680B444360D0
:108640005268934204BF00234360704730B4184D12
:10865000A5F59472AB1ADB1003EBD3735B1002EB3E
:10866000C30152F83330984228BF0C4605D311E0BD
:1086700052F8333098420CD221468B1ADB1003EBB0
:10868000D3735B10914202EBC304F1D8094830BCAC
:1086900070470D46984204D904F10802AA42D9D382
:1086A000F4E76068034B002808BF1846EFE700BFF7
:1086B0005C22030020210300F0B4B44B1A78062A90
:1086C00020D0B34B1B68062B00F08A80B14AD2F849
:1086D000883043F47003C2F88830BFF34F8FBFF384
:1086E0006F8F4FF01023D3F80022002AC0F28A8146
:1086F000D3F80432002BC0F28581A74BA74A1A6039
:10870000F0BC704704331B681807DAD1A44B1B6810
:1087100003F0F002302A00F0658103F0E003402B03
:1087200000F060819E4B1B6803F0F003302B00F0DB
:108730001E819B4B1B6803F0F002302A00F007817A
:1087400003F0E003402B00F00281954B1B6803F01F
:10875000F003302B00F0EB80914B1B6803F0F0022C
:10876000302A00F0D08003F0E003402B00F0CB80F3
:108770008B4B1B6803F0F003302B00F0B680884B66
:108780001B6803F0F003302B00F09880844B1B68CB
:1087900003F0F003502B3FD0814B1B6803F0F00235
:1087A000302A28D003F0E003402B24D07C4B1B68F8
:1087B00003F0F002302A03D003F0E003402B80D115
:1087C0004FF08043D3F80024D2077FF57AAF6FF0E3
:1087D0000102C3F800246E4B1B68062B7FF476AFB2
:1087E000704B1B68062B7FF471AF6F4A136843F41C
:1087F000806313606AE76D4B6D4A1B6803F04F039B
:108800001360624B1B78062B7FF45BAF694B1B68D0
:1088100018077FF456AFC9E74FF08052664BD2F885
:108820000414C3F82015D2F80814C3F82415D2F89C
:108830000C14C3F82815D2F81014C3F82C15D2F86C
:108840001414C3F83015D2F81814C3F83415D2F83C
:108850001C14C3F84015D2F82014C3F84415D2F8FC
:108860002414C3F84815D2F82814C3F84C15D2F8CC
:108870002C14C3F85015D2F83014C3F85415D2F89C
:108880003414C3F86015D2F83814C3F86415D2F85C
:108890003C14C3F86815D2F840143C48C3F86C1572
:1088A000D2F844140278C3F87015062A7FF409AF91
:1088B000404B1B681C077FF404AF6DE73F4E404CF4
:1088C0004049414B0527012500203F2237602560A4
:1088D00008601A602D4B1B78062B7FF4F2AE354BE7
:1088E0001B681D077FF4EDAE50E7284B374A1B7815
:1088F0000321062B11607FF4E4AE2E4B1B681E078C
:108900007FF4DFAE3BE74FF080430022C3F80C2139
:10891000C3F81021C3F838251C4B1B78062B7FF4B5
:1089200070AF244B1B681F077FF4CBAE20E72849AC
:10893000164ACB68127823F08073062ACB607FF446
:10894000C0AE1C4B1B681B077FF4BBAE04E7214B7A
:108950000E4A1B6812782049C3F34233062A0B6083
:10896000B8D1144B1B681A077FF4ABAEEDE6074B8A
:108970001A4A1B781A491160062B7FF4A2AE0D4BE0
:108980001B6819077FF49DAED3E600BFE00F00F02F
:108990003001001000ED00E01C3000200090D003FA
:1089A000E80F00F0340100103C170040580200109E
:1089B000E40E0040E40F00F000C0004010560040FC
:1089C000885600401856004014560040A00500404C
:1089D000F0ED00E0440200103C05004074C0074088
:1089E0000DF0ADBA204B214A1B6812782049C3F321
:1089F0000423062A0B608FD11E4B1B6819073FF416
:108A000091AE5EE61C4B0122C3F80425D3F8002486
:108A1000002AFBD04FF0102315221749C3F800227B
:108A2000D1F80034002BFBD04FF010221521124B4F
:108A3000C2F80412D3F80024002AFBD000220E4909
:108A4000C3F80425D1F80034002BFBD0BFF34F8FBF
:108A50000A490B4BCA6802F4E0621343CB60BFF3D0
:108A60004F8F00BFFDE700BF24030010E00F00F0B0
:108A700040350140E40F00F000E0014000ED00E06F
:108A80000400FA0510B568B101280AD10C4C23691D
:108A9000A07033B10CCB0120226198472369002BD1
:108AA000F8D110BD064CA36801226270002BF8D0EB
:108AB0000CCB0020A2609847A368002BF8D110BD12
:108AC000803C002068B910B5064CA3680122627092
:108AD00033B10CCB0020A2609847A368002BF8D1DB
:108AE00010BD7047803C002030B5012883B01CD0F9
:108AF00015D3032811D100F091FE02A800231F4CCA
:108B000000F8013DFFF718F8E368013BE360E56812
:108B100065B39DF80700FFF735F803B030BD184B7B
:108B20000122C3F8802003B030BD02A80023134CFB
:108B300000F8013DFFF700F8237853B1E3689DF892
:108B4000070001330122E360A270FFF71BF803B0B6
:108B500030BD0C486360A3602361E36000F050FE09
:108B600008F0F2FA30B101232370E7E700F06AFE63
:108B7000A570CEE700F052FEF5E700BF803C002074
:108B800000E100E0858A0200F0B585B0057804793F
:108B90000D4A0E4B477986688DF800508DF80440D9
:108BA000C56804694069039053F821308DF8057059
:108BB0008DF806608DF80750029452F8211068462F
:108BC000984705B0F0BD00BF943C00209C3C0020BD
:108BD0002DE9F04F824690F80090384D384845F81E
:108BE00029300C46497B40F8292081B0934669B969
:108BF000344ABBF1000F4B4621460AF1040008BF7E
:108C0000002201B0BDE8F04F00F022BB23682E4ADD
:108C10004FF0A04503F5E07340F20C6145F82310D6
:108C2000636803F5E073012745F82310236807FA0A
:108C300003F3C5F80835636807FA03F3C5F8083588
:108C4000236803F5E07340F20D6145F82310636873
:108C500003F5E07342EA070845F823104FF48070EB
:108C6000C04700266268D5F81035D340DB074FF4C3
:108C7000807020D4236807FA03F3C5F80C35C04789
:108C8000236807FA03F30136C5F808354FF48070FE
:108C9000C047092EE6D1626801254FF0A04605FACB
:108CA00002F2C6F80C254FF48070C04763689D40FF
:108CB000C6F808559CE7002EEED199E7943C0020B9
:108CC0009C3C0020898B0200502603002DE9F043D4
:108CD0008FB07A4C00940024C1F80441D1F80451BB
:108CE0000495049DC1F82441D1F824510395039DB6
:108CF000C1F81C41D1F81C510295029DC1F80841F0
:108D0000D1F808510195012B446380F82E400CBF27
:108D100002240124019DC1F8004201240C620C6070
:108D200005684DB140F2862383608368C1F804333F
:108D300000200FB0BDE8F083009E002E23DD264604
:108D400090F82E4003F1FF394FF0020E002C34D181
:108D5000D1F82471D0F83480002F41D0C1F82441DB
:108D6000D1F824410A940A9C4E6180F82E60434554
:108D700019D1D1F80441B4B10023C1F80431D1F8BC
:108D800004310593059B90F82E30002B64D1002010
:108D9000009B002BCDDC00220523C1F80025032019
:108DA000C1F80035C5E7009C013C0094009C002CF4
:108DB000E9DD90F82E40002CCAD0C1F82451D1F83A
:108DC00024410B940B9CC1F81C51D1F81C410C940C
:108DD0000C9CC1F80851D1F808410D940D9CC8E7CE
:108DE000D1F81C4194B1C1F81C71D1F81C4109940F
:108DF000099CD1F824412CBB446BA34258D9145D83
:108E0000C1F81C45446B01344463B0E7D1F808C194
:108E1000BCF1000FABD0C1F80841D1F808C1CDF8C2
:108E20001CC0DDF81CC0D1F824C1BCF1000F2DD04E
:108E3000C1F82441D1F824410694069C4E6180F883
:108E40002E6094E7C1F82471D1F824410894089C5D
:108E50004E6180F82E608AE7D1F8C434C1F8C4347A
:108E6000002B94D013F0010F18BF4FF4024048F2CA
:108E7000012208BF032013F0020F18BF104648F26A
:108E8000022213F0040F18BF104681E7446BA3427F
:108E90007FF66DAFD1F818C502F804C0446B0134F9
:108EA0004C45446306D0A3423FF461AF0E625EE7D7
:108EB0004E615CE7C1F800E2F8E700BFA086010060
:108EC0002DE9F043A84CA94B94F82E209DB0A2B9EF
:108ED000D3F82411A56A606B00294BD0C3F8242174
:108EE000D3F8242105920122059984F82E205A6195
:108EF000854215D01DB0BDE8F0830022C3F82421BF
:108F0000D3F8241106910699C3F81C21D3F81C113B
:108F100007910799C3F80821D3F808310893089BF3
:108F2000924BD3F80421002AE4D00022C3F8042194
:108F3000D3F804310093009B94F82E10002934D10B
:108F4000207B831E012B68D9894E0FCE17AD0FC52C
:108F500033682B6000238DF85830236A00225907AC
:108F600084F82F20C6D42368616816A898471DB0DE
:108F7000BDE8F083D3F81C21666A6AB3C3F81C11FC
:108F8000D3F81C210492049AD3F8242194F82C706D
:108F9000002A58D0C3F82411D3F8242103920122C7
:108FA000039984F82E205A61A2E7714E6F4F0FCEBD
:108FB00017AD0FC533682B60D7F8C434C7F8C43475
:108FC0009A0703D501238DF85830C6E7580744BFE8
:108FD00002238DF85830C0E7D3F80811002987D054
:108FE000C3F80821D3F8081102910299D3F824118B
:108FF000002934D185427FF67BAFD3F8182532544F
:10900000626B691E01328A42626333D095423FF43B
:1090100071AF564B01221A626CE7626AA3699A42E9
:1090200092D1256AE26963696262C5F3401603283A
:1090300084F82C6005F02005A3621FD04B494A48F4
:10904000FFF744FE56E7854203D8012287B1DA6173
:1090500072E7325CC3F81C25013060634AE7C3F84D
:109060002421D3F8242101920199012284F82E2091
:109070005A613DE70222C3F80022CAE73B483D4E51
:109080000996C0F80411D0F804610A960A9EC0F847
:109090002411D0F824610B960B9EC0F81C11D0F857
:1090A0001C610C960C9EC0F80811D0F808610D9652
:1090B0000126616384F82E100D9FC0F8001206622D
:1090C00086606BB11178C0F81C156663266866B1BE
:1090D00040F28623A360254BA268C3F8042309E766
:1090E0000DB1C661F2E74661F0E70999002926DD76
:1090F0001E4903F1FF384FF0010E4FF0020C94F8B7
:109100002E0000284DD1D1F82491676BB9F1000FE2
:109110005AD0C1F82401D1F82401139084F82EE02C
:109120001398C1F814E0BB4234D1D1F8040188B3DC
:109130000023C1F80431D1F804310E930E9B94F84A
:109140002E3023B1094BD3F8C424C3F8C424099B9F
:10915000002B3FF7CFAE054B00210522C3F80015C9
:10916000C3F80025C6E600BFA43C00200030004044
:10917000B03C0020A0860100BB42D4D9D1F818052C
:10918000D055606B0130404560635ED0834201D0B2
:10919000C1F820E009980138099009980028AEDC50
:1091A000CDE7C1F82461D1F8240114901498C1F8D6
:1091B0001C61D1F81C0115901598C1F80861D1F80F
:1091C000080116901698B0E7D1F81C0198B1C1F8C3
:1091D0001C91D1F81C0112901298D1F8240138B3D7
:1091E000C1F82491D1F82401119084F82EE011984F
:1091F000C1F814E097E7D1F80891B9F1000F92D0C7
:10920000C1F80801D1F80891CDF84090DDF8409000
:10921000D1F82491B9F1000FAED0C1F82401D1F8F2
:1092200024010F900F9884F82EE0C1F814E07AE73B
:10923000BB4205D9D05DC1F81C0501376763A9E7BA
:10924000002DF2D00123CB6179E7C1F800C29FE77E
:109250002DE9F04F05793F4F4FEA0518A8EB0504BB
:10926000A4003E1983B096F82DE0BEF1000F03D0A4
:10927000082003B0BDE8F08F8B468246364900686F
:109280000193914600F04AFF18B1112003B0BDE8E8
:10929000F08F47F80490019BB060736086F82F0050
:1092A00086F830009BF80D2086F83820DBF8002087
:1092B0004FF0A04102F5E07240F20C6441F8224008
:1092C000DBF8042002F5E07241F822409BE814002C
:1092D000DAF80010C1F80825C1F80C45DBF80820C1
:1092E000C1F82425B9F1000F24D0DAF800409BF82A
:1092F0000C20240B61B2002924DB01F1604101F54F
:1093000061415201D2B281F80023DAF80020120B39
:1093100042F3C40323F0604323F0030303F16043EB
:1093200003F5614302F01F02012101FA02F2C3F8C2
:1093300080211A60A8EB050507EB8507012387F854
:109340002D3096E7054904F00F0452012144D2B2B2
:109350000A76DAE7A43C0020C18E0200FCEC00E0B3
:109360000379064A0168C3EB031302EB830302206F
:10937000052283F82D00C1F800257047A43C002089
:109380002DE9F04F0779DFF8D4E20468B248C4F859
:10939000080397B04FEA071BABEB07060EEB8606F8
:1093A0009DF880A096F82F5000920020BAF1000F8F
:1093B00099460CBF034620230193129011901390FD
:1093C0001490159035B1B368C4F80433112017B068
:1093D000BDE8F08F05F0FF0C14928DF84510CDF824
:1093E00048904FF0010211AD86F82F20DFF870820F
:1093F000C4F888150FCDCDF80C80C4F804C1D4F89A
:109400000481CDF81080DDF81080C4F824C106F185
:109410000C08A8E80F00D4F824310593059BC4F884
:109420001CC1D4F81C310693019A00992B68326252
:10943000C6F82890716286F82CA0069AC4F808C174
:10944000D4F80821C8F800300792C7EB0713079A31
:10945000C6F834C001220EEB830386F82EC0C4F890
:1094600000C22262A2605A6B914515D8019BD3B10C
:109470000123E361ABEB07039B000EEB03025EF8F5
:1094800003309BB140F2862393609368C4F80433A1
:10949000002017B0BDE8F08F8A5CC4F81C255A6B19
:1094A00001325A63E6E701236361E3E70399002988
:1094B00028DD09F1FF3601254FF0020892F82E1041
:1094C00000295BD1D4F82401D2F834C0002868D038
:1094D000C4F82411D4F824110D910D99656182F816
:1094E0002E50E1453FD1D4F8041100293BD0002390
:1094F000C4F80431D4F804310893ABEB0703089A9D
:109500005EF82330ABEB07020EEB820292F82E20BE
:10951000002A7FD0D4F8C424C4F8C424002A79D007
:1095200012F0010F18BF4FF4024048F2012108BFAA
:10953000032012F0020F18BF084648F2022112F071
:10954000040F18BF084666E0E145CAD90098D4F870
:10955000181500F80C10516B0131B142516377D0EE
:10956000894500D0256203990139039103990029A7
:10957000A4DCABEB07035EF82330C3E7C4F8243167
:10958000D4F824110E910E99C4F81C31D4F81C1192
:109590000F910F99C4F80831D4F80811109110995F
:1095A000A1E7D4F81C1199B1C4F81C01D4F81C111E
:1095B0000C910C99D4F8241111BBE14540D90099C4
:1095C00011F80C10C4F81C150CF101015163CAE725
:1095D000D4F80801002884D0C4F80811D4F8080190
:1095E0000A900A98D4F824010028ADD0C4F82411B8
:1095F000D4F8241109910999656182F82E5070E719
:10960000C4F82401D4F824110B910B99656182F8F8
:109610002E5066E70020039A002A09DD002B7FF414
:10962000D6AEABEB07070EEB870E8EF82F30CEE6EB
:1096300000210522C4F800150320C4F80025EDE739
:10964000019909B965614CE70123E361136859E7A2
:10965000C4F8008286E700BF86420400A43C0020D4
:10966000A08601002DE9F04F0779DFF8A880D0F837
:1096700000E02748CEF80803C7EB0716B60008EB52
:10968000060589B095F82F400020049003900590BE
:109690000690079034B1AB68CEF80433112009B0BE
:1096A000BDE8F08F94464FF0010204F0FF0B8DF8F7
:1096B0000D100493CDF818C08DF80C2003AC99461A
:1096C00001910FCC05F10C0AAAE80F002468019B58
:1096D000C5F820B04FF00102C7EB071785F82F201F
:1096E00008EB8700CEF8883562464B467146C5F8D0
:1096F0002890C5F824C085F82CB0CAF80040FFF7C0
:10970000E5FA58F80630002BC9D185F82F30C6E7A6
:1097100086420400A43C002070B50A4A0A4B067831
:109720004568047AC06853F8213052F8211084B09B
:1097300003908DF8006001958DF8084068469847C1
:1097400004B070BDE03C0020E43C002070B50A4A43
:109750000A4B067845688468C06853F8213052F88F
:10976000211084B003908DF8006001958DF80840B9
:109770006846984704B070BDE03C0020E43C0020FF
:10978000F0B51A4B06781A4D0C6991F81DC045F8D2
:1097900026400746174803F806C040F826200C4626
:1097A00096460FCC89B06D460FC594E80F0085E84A
:1097B0000F000496BCF1000F0BD0BEF1000F0E4A53
:1097C000694607F1040008BF002200F0EBFF09B072
:1097D000F0BDBEF1000F094A694607F10C0008BF51
:1097E000002200F0AFFD09B0F0BD00BF0046002030
:1097F000E03C0020E43C0020199702004D97020055
:10980000054A13790BB1852070470121106053710F
:1098100018461171704700BFE83C0020084B1A68D9
:10982000D20706D40122E02183F80013C3F8802177
:109830001A604FF080430122C3F81825704700BF1B
:1098400000E100E0044B01221A604FF08042D2F8A0
:109850001834DB03FBD470470C00004010B5144BE8
:109860001A6882B062B10021124A19601B685079EF
:1098700000934FF080410123009CC1F8083390B160
:109880000D4B1A686AB100221A601B6801934FF0F1
:1098900080420221074B0198C2F808131B6801207F
:1098A000984702B010BD116853718847E8E700BFC0
:1098B00000010040E83C00200401004070B5224C4B
:1098C00094F8585082B015B1082002B070BD4FF026
:1098D000FF332946FF26042204F154002363636307
:1098E000A363E36323646364A364E364236063604A
:1098F000A360E36023616361A361E361236284F891
:1099000050306362A36284F85230E36284F85330CB
:1099100084F8516007F014FE0C4B0D4A0D4E156093
:109920004021E02083F80603C3F880111960136812
:10993000019301994FF000430122284684F85820F2
:10994000C6F8043302B070BDF03C002000E100E036
:109950007C61004000600040034B93F858000030E9
:1099600018BF0120704700BFF03C0020F0B5664CE6
:10997000231893F93050002D01DB0820F0BD91F839
:1099800002E0CEF3400EBEF1000F50D02568013545
:1099900000F0B5800125082654F8253001334CD05D
:1099A0006B1C54F82370013748D0AB1CB3423CD237
:1099B00054F82370013741D0EB1CB34235D254F830
:1099C000237001373AD02B1DB3422ED254F82370A6
:1099D000013733D06B1DB34227D254F823700137BF
:1099E0002CD0AB1DB34220D254F82370013725D0C0
:1099F000EB1DB34219D254F8237001371ED005F184
:109A00000803B34211D254F82370013716D005F180
:109A10000903B34209D254F8237001370ED00A3536
:109A2000B54202D2E36A013367D00420F0BD256A53
:109A3000013533D009250C26AEE72B4626185DB23A
:109A400044F8232086F83050BEF1000F2CD08B78DC
:109A50005A0715D4DE0747D5830003F1A043D3F896
:109A6000002722F00202C3F80027284EC20800F0A7
:109A7000070EB75C012303FA0EF33B43B3548B7814
:109A800013F0020314D1083D2C44097894F85020B7
:109A900042EA811284F850201846F0BD082683F867
:109AA0003060354622623346234483F84800CEE7CF
:109AB000AD0005F1804505F5C0450A78D5F81015CB
:109AC00021F4473121F44071C5F810150302120446
:109AD000D5F8101502F4403203F4F85313430B4346
:109AE000C5F810350020F0BD4A784FF0A04600F5CB
:109AF000E073920046F82320B7E70B239EE700258A
:109B0000226083F83050A2E7F03C0020443D002062
:109B1000F0B42E4D2E1882B096F93030072B1CDD94
:109B20002B4493F848309B09032B41D0012B14BFE1
:109B30004FF440314FF40031800000F1A040D0F8E4
:109B4000002722F44032C0F80027D0F800370B433A
:109B5000C0F8003702B0F0BC7047DAB2072AF9D873
:109B6000980000F1804000F5C04003F140029200EF
:109B7000D0F8104592B202F18042002744F001046F
:109B800002F5C042C0F810450197019817600029FE
:109B9000E0D096F9302055F82220002ADAD00122B0
:109BA0000B4902FA03F3C1F8043302B0F0BC70476A
:109BB0004FF0A043D3F81035C34013F0010F0CBF92
:109BC0004FF400314FF44031B6E700BFF03C0020C5
:109BD000006000404FF0A043D3F8103523FA00F0A6
:109BE00000F00100704700BF2DE9F04F87B000235F
:109BF000CC4A01931168012900F00A821E46CA4B23
:109C00001A68012A00F0F681C84B1A68012A00F090
:109C1000E381C74B1A68012A00F0D081C54B1A684E
:109C2000012A00F0BD81C44B1A68012A00F0AA8104
:109C3000C24B1A68012A00F09781C14B1A68012AA9
:109C400000F08481BF4B1A68012A00F05E8116F093
:109C5000FF0F1AD0BC4F01250024A30003F180435D
:109C60002E4203F5C0434FEA45050BD0D3F810054B
:109C700057F82420D3F81015C0F30420C1F3014194
:109C800002B190470134082CE7D1002E02DB07B067
:109C9000BDE8F08F00224FF0FF33AB4C02920393EC
:109CA000012502AE94F950104F1C2DD0C9B221F0FD
:109CB000C00006AB4FEAD00E03EB0E0701F007031E
:109CC00017F80C2C05FA03F31A421DD02218890943
:109CD00092F9302054F82220002A00F0F080032965
:109CE00000F0F0804FEA800E0EF1A04E17F814CC71
:109CF000DEF800771CEA0303C7F3014940F0B8809F
:109D0000B9F1030F00F0D7814FF0030A4FF00209B9
:109D10004FF00108002794F95110481C2DD0C9B20A
:109D200021F0C00006AB4FEAD00C03EB0C0E01F0A3
:109D300007031EF80C2C05FA03F31A421DD0221853
:109D4000890992F9302054F82220002A00F0CA80B4
:109D5000032900F0CA804FEA800C0CF1A04C1EF8D9
:109D600014BCDCF800E71BEA030FCEF3014E40F011
:109D70009080BEF1030F00F08A8194F952104A1CC2
:109D80002CD0C9B221F0C00006AB4FEAD00C03EBD7
:109D90000C0E01F007031EF80C2C05FA03F31A420F
:109DA0001CD02218890992F9302054F82220002A68
:109DB00000F08F80032900F08E804FEA800C0CF1B8
:109DC000A04C1EF814ACDCF800E71AEA030FCEF33F
:109DD000014E6AD1BEF1030F00F0468194F9531091
:109DE0004B1C2CD0C9B221F0C00006AB4FEAD00EFC
:109DF00003EB0E0201F0070312F80CCC05FA03F393
:109E00001CEA030F1BD004EB000C89099CF930C03D
:109E100054F82C90B9F1000F6ED003296ED04FEAA0
:109E2000800E0EF1A04E12F814CCDEF800271CEACA
:109E3000030FC2F3014211D1032A00F0F580002F75
:109E40003FF425AF4FF0A043019AD3F810359A4262
:109E50003FF41DAF029A0193039223E7022AEED149
:109E6000032900F04681B9F1000FE8D0C847E6E7C2
:109E7000B9F1020F7FF448AF032900F043814FF09E
:109E8000030A4FF001080027002A3FF444AF90472F
:109E900041E7BEF1020F7FF470AF032900F02C817F
:109EA000002A3FF46AAF904767E7BEF1020F95D1F1
:109EB000032900F02481002A90D090478EE70329DF
:109EC0007FF422AF16F80EC04CEA030C06F80EC061
:109ED00008E7032982D116F80CA04AEA030A06F81B
:109EE0000CA06AE703297FF448AF16F80CB04BEAE0
:109EF000030B06F80CB02EE70329A0D116F80EC00C
:109F00004CEA030C06F80EC089E700221A601B68B1
:109F100005934FF0A043059AD3F81035019346F00E
:109F2000004694E600610040046100400861004082
:109F30000C61004010610040146100401861004055
:109F40001C6100407C610040F03C00206F4AD2F868
:109F5000042312067FF576AE00221A601B68049374
:109F6000049B46F080066DE6684AD2F80423510649
:109F70007FF563AE00221A601B680493049B46F0D1
:109F800040065AE6614AD2F8042390067FF550AEA7
:109F900000221A601B680493049B46F0200647E6E3
:109FA0005A4AD2F80423D4067FF53DAE00221A6047
:109FB0001B680493049B46F0100634E6534AD2F81B
:109FC000042315077FF52AAE00221A601B6804934C
:109FD000049B46F0080621E64C4AD2F804235707B2
:109FE0007FF517AE00221A601B680493049B46F0AD
:109FF00004060EE6454AD2F8042392077FF504AE24
:10A0000000221A601B680493049B46F00206FBE5DD
:10A010003E49D1F8046316F001063FF4F0AD136039
:10A0200013680493049BEAE503297FF41CAF4FF403
:10A030000032DEF8003723F44033CEF80037DEF884
:10A0400000371343CEF80037B9F1000F01D047466F
:10A050000CE74FF0A043019AD3F8103593427FF4F8
:10A06000F9AE07B0BDE8F08F03297FF424AF4FF4B9
:10A070000037DCF8003723F44033CCF80037DCF845
:10A0800000373B43CCF800374746C84613E703295F
:10A090007FF406AF4FF40037DCF8003723F4403389
:10A0A000CCF80037DCF800373B43CCF800374746A4
:10A0B000C846D146F4E6032906D0CA461F464FF0EB
:10A0C00002094FF00108DFE64FF40037DEF80037F1
:10A0D00023F44033CEF80037DEF800373B43CEF8A8
:10A0E00000374FF0040A4FF003094FF00208012730
:10A0F000CAE64FF440329CE74FF44037CCE74FF4C8
:10A100004037B6E74FF44037E0E700BF006000405B
:10A11000014B1B68184700BF4C3D0020104B984274
:10A1200001D00020704730B583B002A8002300F8AA
:10A13000013D0D46FDF700FD0A4B1C7934B19DF839
:10A140000700FDF71FFD112003B030BD01229DF86F
:10A1500007001D601A71FDF715FD204603B030BDE4
:10A16000002000404C3D0020034B984203D1034B9C
:10A1700000221A601A717047002000404C3D0020F8
:10A1800030B56E4AD2F8043399058BB05BD5D2F85E
:10A190002431002B57D00023C2F82431D2F82431C7
:10A1A00003934FF40171664B0398C2F8081393F8B8
:10A1B000291009B901215160604902228DF8182047
:10A1C000D1F88024C1F880249869D96809920022C6
:10A1D000089007919A6193E81200DA6106A8A047F7
:10A1E000564AD2F81C31C3B1554B186A5969884296
:10A1F00065D293F8280000F0FF0400285FD1C2F870
:10A200001C41D2F81C11029102999C68186A196AC3
:10A21000205C01311962C2F81C05484AD2F8443169
:10A220007BB10021464BC2F84411D2F8440193F8A7
:10A2300029100090009809B1012111609A69002A43
:10A2400052D10BB030BD3D4AD2F804335B07C7D5BD
:10A25000D2F80831002BC3D0394B9969002952D06C
:10A260000021C2F80811D2F8081104910499D868A5
:10A27000596AD2F8182542545A6A996901325A62C9
:10A280005A6A8A42ACD1DA69002A45D193F829206A
:10A2900012B92A4A01215160284A4FF40171C2F8CB
:10A2A0000813596ADA6808910024012007928DF892
:10A2B000180093E806009C6106A8904790E71F4AA3
:10A2C0000020C2F81C01D2F81C210192019A002939
:10A2D000A3D09A688DF8180008915861079206A8D3
:10A2E00093E80600904798E70022586AD9689A6177
:10A2F0000122089007918DF8182006A893E806001F
:10A3000090470BB030BDC2F80811D2F80801059093
:10A310000598D2F81825B3E7DD685C6A18699A6178
:10A3200001210022D860DA615A628DF81810079571
:10A33000089493E8060006A8904751E700200040E3
:10A34000543D00202DE9F041604E05792C2303FB9C
:10A35000056382B093F82A301BB1082002B0BDE833
:10A36000F0810F4604465A4900689046FFF7D6FE32
:10A3700018B1112002B0BDE8F0813A68511C0BD031
:10A380004FF0A04101239340C1F808353B6803F525
:10A39000E073032241F823207B685A1C06D003F5A2
:10A3A000E0734FF0A042002142F823102368BA69FD
:10A3B000C3F82425397D7B7D22680B43C2F86C35B8
:10A3C00097E806002368C3F81425C3F80C153B7DF5
:10A3D000012B51D02C2303FB05F3F218C2F80480A3
:10A3E0003A69F250B8F1000F35D023683A7F394FFF
:10A3F0000021C3F81C11D3F81C3100932368DDF849
:10A4000000E0C3F84411D3F8441123680191019985
:10A41000C3F804732168090B4BB2002B4EDB03F128
:10A42000604303F561435201D2B283F800232268EE
:10A43000120B42F3C40323F0604323F0030303F140
:10A44000604303F5614302F01F02012101FA02F2A9
:10A45000C3F880211A602C23246803FB05630022C3
:10A4600004250121C4F8005583F82A109A61DA61A5
:10A4700083F829205A6171E7BB68591C06D003F59F
:10A48000E0734FF0A042002142F82310FB685A1CF1
:10A490000DD001224FF0A04102FA03F3C1F80835B4
:10A4A000FB6803F5E073032241F82320FB68226870
:10A4B000B968C2F80835C2F810158BE7064B01F0F1
:10A4C0000F0152010B44D2B21A76B0E7543D00207E
:10A4D00081A1020080000200FCEC00E0F8B52F4DE5
:10A4E000047902682C2303FB045300215B68C2F843
:10A4F000001583B103682A4AC3F808230368294E6C
:10A500001B0B5AB25209203203F01F03012101FA3A
:10A5100003F346F8223003684FF0FF32D3F80CE51E
:10A52000D3F81475D3F80815D3F81065C3F81425BB
:10A53000C3F80C2503689645C3F80825C3F8102511
:10A5400006D00EF5E07E4FF0A043022243F82E2005
:10A550007B1C06D007F5E0774FF0A043022243F8BA
:10A560002720721C06D006F5E0764FF0A0430222A9
:10A5700043F826204B1C06D001F5E0714FF0A043B4
:10A58000022243F821200068FFF7EEFD2C2303FB95
:10A590000454002384F82A306360F8BD543D002041
:10A5A0008402020000E100E0F0B5304E05792C2372
:10A5B00003FB056385B05C6914B1112005B0F0BDE3
:10A5C0001C62996083F828405A610268C2F81C41F5
:10A5D000D2F81C11026802910121029F9160026869
:10A5E000D3F808E0C2F81C41D2F81C11019101997E
:10A5F000D3F820C0196A5F681EF80CC001311962D7
:10A60000C2F81CC517B1204605B0F0BD1A6A5C69D6
:10A610000168944203D819E093F82820F2B9D1F8E0
:10A620001C21002AF8D0C1F81C71D1F81C2103921A
:10A63000039AD3F820C01A6A1EF80CC001321A62BD
:10A64000C1F81CC51A6AA242E9D30168D1F81C31CD
:10A65000002BFBD00123CB60002000E00F202C2337
:10A6600003FB056300225A61A8E700BF543D0020A8
:10A6700070B54A4BD3F8242188B0002A55D1D3F8BD
:10A680001011F1B9454BD3F8442152B10020444A8E
:10A69000C3F84401D3F8444191690194019C002915
:10A6A00060D13E4BD3F820214AB100213C4AC3F887
:10A6B0002011D3F8204150690094009C30BB08B0B1
:10A6C00070BDC3F81021D3F81011354803910399D8
:10A6D0008169D3F83C458C42D4D1C569002D50D056
:10A6E000D3F80012C668856121F02001C3F800127A
:10A6F0000369C26101220168C3608DF81840436894
:10A7000005968DF8102004A89847BBE7D3F84C05B0
:10A7100093688DF818008DF810105161059304A806
:10A7200092E80A00984708B070BD0021C3F82411D0
:10A73000D3F82421029202228DF81020029AD3F835
:10A740008004174AC3F880040790D3F83C05D36807
:10A750008DF818009161D16105931168536804A8C0
:10A7600098478FE7D3F83C458DF81840D36890613F
:10A7700001240593116853688DF8104004A8984788
:10A780008FE7C36801688561012205938DF8184041
:10A7900043688DF8102004A8984773E70020004014
:10A7A000803D00202DE9F0430479704EE7003B190D
:10A7B00006EB830385B093F820301BB1082005B069
:10A7C000BDE8F08389460546694900689046FFF771
:10A7D000A5FC18B1112005B0BDE8F083D9F8002020
:10A7E000511C0CD04FF0A04101239340C1F8083513
:10A7F000D9F8003003F5E073032241F82320D9F89B
:10A8000004305A1C06D003F5E0734FF0A04200213B
:10A8100042F823102B68D9F81820C3F8242599F89A
:10A82000141099F815202B680A43C3F86C252A6880
:10A83000D9F80030D9F80410C2F80C35C2F8141554
:10A8400099F81430012B61D03A199200B318C3F86B
:10A850000480D9F81030B350B8F1000F47D0296800
:10A8600099F81C20DFF810E10023C1F81031D1F86D
:10A87000101100912968DDF800C0C1F82031D1F82D
:10A88000201101912968DDF804C0C1F82431D1F804
:10A89000241102912968DDF808C0C1F84431D1F8CB
:10A8A00044112B6803910399C3F804E32968090B49
:10A8B0004BB2002B51DB03F1604303F561435201BE
:10A8C000D2B283F800232A68120B42F3C40323F0A8
:10A8D000604323F0030303F1604303F5614302F097
:10A8E0001F02012101FA02F2C3F880211A603C44E0
:10A8F0002A6806EB840400230125082184F82050EF
:10A90000C2F80015A361E361636158E7D9F8083024
:10A91000591C06D003F5E0734FF0A042002142F825
:10A920002310D9F80C305A1C0FD001224FF0A0414F
:10A9300002FA03F3C1F80835D9F80C3003F5E073D7
:10A94000032241F82320D9F80C302A68D9F80810DE
:10A95000C2F80835C2F8101576E7064B01F00F0172
:10A9600052010B44D2B21A76ADE700BF803D002001
:10A9700071A60200FCEC00E010030200F8B50679B5
:10A980002F4C0268F500AB1904EB830300215B68D0
:10A99000C2F8001583B103682A4AC3F80823036884
:10A9A000294F1B0B5AB25209203203F01F03012119
:10A9B00001FA03F347F8223003684FF0FF32D3F86F
:10A9C0000CC5D3F814E5D3F80815D3F81075C3F8FF
:10A9D0000C25C3F8142503689445C3F80825C3F86B
:10A9E000102506D00CF5E07C4FF0A043022243F87E
:10A9F0002C20BEF1FF3F06D00EF5E07E4FF0A043C5
:10AA0000022243F82E207A1C06D007F5E0774FF09B
:10AA1000A043022243F827204B1C06D001F5E07129
:10AA20004FF0A043022243F82120354404EB850473
:10AA30000068FFF799FB002384F820306360F8BDBD
:10AA4000803D00201003020000E100E001F06043BF
:10AA5000B3F1005F01D010207047F0B50579214EA9
:10AA6000EF007C1906EB840483B0636913B11120F5
:10AA700003B0F0BDA1606261D0F800E0CEF82031F3
:10AA8000DEF820C1D0F800E0CDF804C0DDF804C045
:10AA9000CEF85831DEF858C1D0F800E0CDF800C04B
:10AAA000DDF800C0CEF84415CEF848250268012133
:10AAB000916062680AB11846DAE7036800E079B984
:10AAC000D3F82021D3F85811002AF8D0002914BF58
:10AAD0000F2000207B1906EB830300225A61C7E791
:10AAE0000F20F7E7803D002000B52A4BD3F8102156
:10AAF00085B052B10021284AC3F81011D3F81011C3
:10AB000053790391039959073ED4224BD3F814216A
:10AB100052B10021204AC3F81411D3F8141153790B
:10AB200002911B07029929D41A4BD3F81C215AB160
:10AB30000021194AC3F81C115079D3F81C31019334
:10AB400010F01000019B14D0124BD3F804216AB10D
:10AB50000021114AC3F80411D3F8041113680091BD
:10AB60000121009811710BB10320984705B05DF8E1
:10AB700004FB1368002BE7D09847E5E71368002B28
:10AB8000D2D002209847CFE71368002BBDD0012018
:10AB90009847BAE700C00140A43D002000B52A4B09
:10ABA000D3F8102185B052B10021284AC3F8101102
:10ABB000D3F81011537B0391039959073ED4224BCC
:10ABC000D3F8142152B10021204AC3F81411D3F84C
:10ABD0001411537B02911B07029929D41A4BD3F805
:10ABE0001C215AB10021194AC3F81C11507BD3F81B
:10ABF0001C31019310F01000019B14D0124BD3F8BC
:10AC000004216AB10021114AC3F80411D3F80411D8
:10AC1000936800910121009811730BB103209847AC
:10AC200005B05DF804FB9368002BE7D09847E5E793
:10AC30009368002BD2D002209847CFE79368002B6F
:10AC4000BDD001209847BAE700100240A43D002083
:10AC5000032801D907207047012A12D0012917D0F3
:10AC600008D30229F6D10D4B00EB4000034400202D
:10AC70005A707047094B00EB4000034400209A7063
:10AC80007047012901D00022E8E700F10E02D2B29C
:10AC900000EB400301490020CA547047B43D002036
:10ACA00010B50388102B08D0112B05D1264B18683E
:10ACB0000138186038B110BD10BD234C216881B136
:10ACC0000131216010BD01220221FFF7C1FF48B30D
:10ACD000072827D01D4B1B68002BECD0BDE8104087
:10ACE000184701220846FFF7B3FF48B1072807D0ED
:10ACF000164B1B6803B1984721680131216010BDD4
:10AD0000072202210120FFF7A3FF08B10728EFD196
:10AD1000042202210020FFF79BFF0028ECD0072827
:10AD2000E6D1E9E7072202210120FFF791FF08B1F0
:10AD30000728CFD1002108460A22FFF789FF002803
:10AD4000B9D00728C6D110BDC43D0020C03D0020A9
:10AD500076DF70477ADF70477CDF70478FDF7047A0
:10AD6000044A05491368012008700BB1013B1360C8
:10AD7000704700BFA840002088400020704700BFF7
:10AD8000022803D1012904BF014B1970704700BF8D
:10AD9000183E0020024A40F22111FCF709BB00BF17
:10ADA000F42603002DE9F04184B004AC1E7804F8C9
:10ADB000010D0C4D01230F4690463146224600936B
:10ADC0002846FEF7DDFA5FFA88F33A463146284610
:10ADD000FEF748FC003018BF0120404204B0BDE837
:10ADE000F08100BF8C27030070B5551C202D8AB060
:10ADF0001E7815D80AAC034604F8203D0DF1090071
:10AE000006F093FB002000902246EBB23146064844
:10AE1000FEF7B6FA003018BF012040420AB070BDFC
:10AE20004FF0FF30FAE700BF8C27030001460148CE
:10AE300005F068BF7840002030B50388112B83B03F
:10AE4000044635D014D9212B07D03B2B03D1808861
:10AE50001321FFF77DFF03B030BD002301A98088D7
:10AE60008DF804308DF80530FFF778FF03B030BD62
:10AE7000102BF0D1C37B2D48012B2D4B35D0C01AA0
:10AE8000C00800042B4940F00300FBF75DFD2A4B8E
:10AE9000A1882A48198004F01FF9294B1A884FF617
:10AEA000FF739A42D7D10321264803F059FDD2E718
:10AEB000234D83882A889A4223D01F4C22889A42A5
:10AEC000C9D11B4B19482049C01AC008000440F0E2
:10AED0000300FBF739FD1D4A1D4800214FF6FF73A3
:10AEE0001170238005F058FCB5E7C01AC0080004B3
:10AEF000184940F00300FBF727FD114BA2881A8088
:10AF0000A9E70B4B09481449C01AC008000440F0D7
:10AF10000300FBF719FD114A0A4800244FF6FF739E
:10AF2000032114702B8003F01BFD94E7083203000B
:10AF3000D0310300A42603002E3000203030002042
:10AF40002C300020203E0020E0260300404100205D
:10AF5000B84000208C260300C8260300B44000201F
:10AF60000378062B00D0704740680028FBD0024AC7
:10AF700040F25911FCF71CBAF426030060B1032813
:10AF800009D10748074B0849C01AC008000440F01F
:10AF90000300FBF7D9BC70470148024B0349F3E7B4
:10AFA00008320300D03103001829030024290300CC
:10AFB00000B97047024B800143F00103184700BFFE
:10AFC00040270300F0B50C78012C83B001D003B00A
:10AFD000F0BD0A1D054649881648174E06F016F8BA
:10AFE000284605F079FF154B1548164A1649147086
:10AFF000C01AC008000440F00300FBF7A5FC32882B
:10B000004FF6FF739A42E2D0104B1B78002BDED034
:10B010000F48104D074606F0C9FA02AC24F8020D9D
:10B02000338822463946284605F00CFE1128F7D011
:10B03000CDE700BF784000202C300020D031030045
:10B04000083203004041002048270300B44000209C
:10B0500060270300003300202DE9F0410378022B24
:10B0600092B042D0032B58D013B112B0BDE8F0819A
:10B07000914B924C858A06699149E41AE4082404AC
:10B0800044F00307384633462A46FBF751FD002DAE
:10B09000EBD035788B4AA5F13003DBB2092B98BF92
:10B0A0001D46022D4FF00A03136060D0032D50D0CF
:10B0B000012D40D0844C22884FF6FF739A42D4D0A1
:10B0C000824B1B78002BD0D08148824D074606F07A
:10B0D0006DFA12AE26F8400D2388324639462846CE
:10B0E00005F0B0FD1128F7D0BFE7734B73487A49DC
:10B0F000764CC01AC008000440F00300FBF724FCA3
:10B1000012AA142322F8403D6F4B74491B887148E2
:10B110000125257005F096FDA7E7674B6748704944
:10B12000C01AC008000440F00300FBF70DFC674B99
:10B1300000221A7099E76B4803884FF6FF78434561
:10B1400003D0694B1B78002B72D1684B01221A7017
:10B150008BE7644803884FF6FF78434503D0624B82
:10B160001B78002B3AD1614B00221A707DE75D48B5
:10B1700003884FF6FF78434502D05B4B1B781BB921
:10B180005A4B03221A7070E7294605F0EFFE00289B
:10B190007AD13846564B57494B4C2A4602AEFBF7FC
:10B1A000C7FC534B54492A46304606F0D1F9238850
:10B1B0004345E5D0454B1B78002BE1D0304606F0E7
:10B1C000F5F912AD434F25F8420D23882A46314642
:10B1D000384605F037FD1128F7D0D1E7294605F0AC
:10B1E000C5FE002858D13846414B4249364C2A46C4
:10B1F00002AEFBF79DFC3E4B3F492A46304606F027
:10B20000A7F923884345AED0304B1B78002BAAD03A
:10B21000304606F0CBF912AD2E4F25F8420D2388AB
:10B220002A463146384605F00DFD1128F7D09AE739
:10B23000294605F09BFE002836D138462C4B2D4977
:10B24000214C012202AEFBF773FC294B2A49304600
:10B25000012206F07DF9238843453FF476AF1B4B6E
:10B260001B78002B3FF471AF304606F09FF912AD0A
:10B27000184F25F8420D23882A463146384605F0F6
:10B28000E1FC1128F7D060E703462A4644F00200AB
:10B290001A49FBF74DFC73E703462A4644F00200C7
:10B2A0001649FBF745FC5EE70346012244F0020025
:10B2B0001249FBF73DFC48E7D03103000832030098
:10B2C00098280300A84000202C300020B440002023
:10B2D000FC280300003300204028030060280300FE
:10B2E00078280300784000204041002041410020A0
:10B2F000AC280300B8280300CC280300E42803008E
:10B300002DE9F04F2DED068B4FF40041C9B0002020
:10B31000FBF784F920B1B84A4FF4E171FCF748F823
:10B32000FBF700F9FCF710FBFEF716FB002800F016
:10B330009D8432220121B148FBF79AFF20B1AE4A29
:10B3400040F2BD11FCF734F8FBF7EAFF20B1AA4A3E
:10B350004FF4DF71FCF72CF8FDF716F920B1A64A7F
:10B3600040F2C511FCF724F805F05EFE20B1A24AB8
:10B370004FF4B171FCF71CF848AD002345F8AC3D23
:10B380000120294605F034FF20B19B4A40F26511A7
:10B39000FCF70EF8284605F0E7FF20B1964A40F288
:10B3A0006711FCF705F89DF834309548012248A94B
:10B3B00062F3030362F3071301F8EC3D0C460291BC
:10B3C00006F0F4F88E4982B22046FFF7C5FC002152
:10B3D0000822284606F0B4F88A4B1D9328464FF001
:10B3E000C8731E93FFF7B6FC0021874804F0BEFF28
:10B3F00020B1814A4FF4D571FBF7DAFF834803F09F
:10B40000EDFD20B17C4A40F2AB11FBF7D1FF804B40
:10B41000804802990D9305F0A9FB20B1764A4FF4BC
:10B42000B771FBF7C5FF7C4B7C481D93294605F09F
:10B43000CBFC20B1704A4FF4B971FBF7B9FF002380
:10B440000124774A77486B602946EB601D93AB6017
:10B450008DF878408DF8804005F038F920B1664AC3
:10B4600040F2B111FBF7A4FF002201216D4805F065
:10B4700019F920B1604A4FF4D971FBF799FF6A4A74
:10B480006848002105F0DEF820B15B4A40F2B311B4
:10B49000FBF78EFF1C220021284606F051F84FF4DE
:10B4A000203700234FF4702603246049604A1D931F
:10B4B0002846ADF882308DF884301E971F968DF89F
:10B4C00080402291239203F00DF820B14A4A40F2C5
:10B4D0008511FBF76DFFAC220021284606F030F8FD
:10B4E0004C4A544B12789A7002210022524C3193EC
:10B4F000062701238DF87410402650488DF87620D9
:10B50000294640928DF87770ADF8C0308DF8F03054
:10B510003F96469403F0A2F920B1374A4FF4CE711A
:10B52000FBF746FF0121454803F094F900211A205A
:10B53000E9600B460A461B274FF0CC7606241E9086
:10B5400029463F481D971F968DF88040FDF740FB28
:10B5500020B1294A4FF4D371FBF72AFF394C3A48FE
:10B56000FDF7FEFE394B3A483A493B4A2364606492
:10B57000192301272046A1646260A373277300F09A
:10B580006DFD0646002800F05283344E344B354999
:10B59000F61AF608360446EA0700FBF7D5F9324AF0
:10B5A0003248DFF8EC80DFF8ECA0DFF8EC90304FA9
:10B5B000DFF890B09FED2F9A9FED2F8ADFED2F9A45
:10B5C000DFED2F8A0121FCF713FA46F003031C4636
:10B5D00000224FF4C0312B480393FCF71BFA20469E
:10B5E00029492A4CFBF7B0F90E4805F0D5F803219C
:10B5F000124803F0B5F951E0F42603002030002092
:10B60000982703005000A0008C4000202DAE0200BF
:10B6100059B0020000330020C5AF0200784000207E
:10B6200061AF0200B84000207C2703007DAD02001E
:10B6300095AD0200283000207DAF0200203E0020A2
:10B6400088270300C83D00208C270300A5AD020019
:10B65000E9AD0200B1AF0200FC3200200832030065
:10B66000D0310300A427030061AD02007827030056
:10B67000183E00200000C8420000184200000000F0
:10B680000000284220410020B42703004027030087
:10B69000884000202C3000204141002046F0020369
:10B6A000049344F001042E4698F80030CBB10023F7
:10B6B0005946012088F8003000F09CFEC8254FF460
:10B6C0007A40A047013DFAD15B460DF1190207A966
:10B6D000012001F0FBF820B99DF81930002B40F053
:10B6E00073813B78A3B10022AD4999F800303A70DC
:10B6F0000A220A60032B00F21181DFE813F08900AF
:10B70000CD004C0010000322A6490498FBF710FA64
:10B71000FAF7E2FF0028FBD1FCF74CFFC4E7A24B8D
:10B720001B884FF6FF750022AB4289F80020EFD04E
:10B730009E4B1B78002BEBD003219B4805F016FC99
:10B7400003460028DFD19A4B9A4903980322FBF75E
:10B75000EFF9974B98490322304605F0F9FEBAF805
:10B760000030AB42D4D0954B1B78002BD0D0304664
:10B7700005F01CFF924DADF83400BAF80030029A83
:10B780003146284605F05EFA1128F6D0FAF7A4FFF4
:10B790000028BDD1C0E7844B1B884FF6FF750322FC
:10B7A000AB4289F80020B3D0804B1B78002BAFD080
:10B7B00002217D4805F0DAFB0346002840F0F181C4
:10B7C0007B4B7C4903980222FBF7B2F9784B7A490C
:10B7D0000222304605F0BCFEBAF80030AB4297D0EA
:10B7E000764B1B78002B93D0304605F0DFFE744D6E
:10B7F000ADF83400BAF80030029A3146284605F018
:10B8000021FA1128F6D0FAF767FF002880D183E7E4
:10B81000654B1B884FF6FF720125934289F8005053
:10B820003FF476AF614B1B78002B3FF471AF294694
:10B830005D4805F09BFB0346002840F0BD815C4B52
:10B840005C4903982A46FBF773F92A46584B5A4934
:10B85000304605F07DFEBAF800304FF6FF72934295
:10B860003FF456AF554B1B78002B3FF451AF304699
:10B8700005F09CFE524DADF83400BAF80030029A43
:10B880003146284605F0DEF91128F6D0FAF724FFF4
:10B8900000287FF43DAF3FE7434B1B884FF6FF7511
:10B8A0000222AB4289F800203FF432AF3F4B1B78B5
:10B8B000002B3FF42DAF03213B4805F057FB034617
:10B8C00000287FF420AF3A4B3A4903980322FBF754
:10B8D0002FF9374B38490322304605F039FEBAF8C4
:10B8E0000030AB423FF414AF344B1B78002B3FF4D5
:10B8F0000FAF304605F05AFE314DADF83400BAF8BE
:10B900000030029A3146284605F09CF91128F6D0FD
:10B91000FAF7E2FE00287FF4FBAEFDE6224B1B881F
:10B920004FF6FF750022AB4289F800203FF4F0AEDD
:10B930001E4B1B78002B3FF4EBAE03211A4805F099
:10B9400015FB034600287FF4DEAE1E4B1949039811
:10B950000322FBF7EDF81B4B17490322304605F095
:10B96000F7FDBAF80030AB423FF4D2AE134B1B7870
:10B97000002B3FF4CDAE304605F018FE104DADF86B
:10B980003400BAF80030029A3146284605F05AF9D8
:10B990001128F6D0FAF7A0FE00287FF4B9AEBBE676
:10B9A000A8400020E4280300784000204041002007
:10B9B00030280300B8280300CC280300B44000203E
:10B9C00000330020382803009DED0C7AB24BDDEDEA
:10B9D0000B7A1A68BCEEC77A17EE103A934240F21F
:10B9E0008F804CF250318B4240F28A80AA4A82ED1D
:10B9F000007A17EE102AD31A07EE103AB8EE476A0B
:10BA000007EE102AF8EE475AF7EE006A86EE257A1E
:10BA1000F4EEC87A36EEC77AF1EE10FA67EE096AEC
:10BA2000C0F2A680F4EEE87AF1EE10FA00F2A080FF
:10BA3000F3EE097AB6EE087A26EE877A97490398EC
:10BA40009DED09AA77EE277A3223FDEEE77ABDEE67
:10BA5000CAAA17EE902A17EE905ACDED057AFBF799
:10BA600067F8DDED0B7A0095FDEEE77A1AEE102A05
:10BA700017EE903A8A49029805F06AFDBAF800205C
:10BA80004FF6FF739A4203D0864B1B78002B5FD191
:10BA9000059B312B3FF725AE834B1B68002B7FF4B2
:10BAA00020AE99F80030012B3FF41BAE7F4B1B8872
:10BAB0004FF6FF75AB4204D07D4B1B78002B40F056
:10BAC0008680BAF800304FF6FF720121934289F860
:10BAD00000103FF406AE734B1B78002B3FF401AE11
