:020000022000DC
:1060000000000120E1620200096302000B6302004C
:106010000D6302000F630200116302000000000024
:1060200000000000000000000000000013630200F8
:1060300015630200000000001763020019630200EC
:10604000418B02001B630200559402001B63020097
:106050001B6302001B6302002D8F02001B63020002
:106060001B6302001B6302001B6302001B63020030
:106070001B6302001B6302001B6302001B63020020
:106080001B630200B17202001B6302001B6302006B
:10609000517302001B63020015BB02001B63020068
:1060A0001B6302001B6302001B6302001B630200F0
:1060B00041A102001B63020000000000000000007C
:1060C0001B6302001B6302001B6302001B630200D0
:1060D0001B6302001B6302001B6302000000000040
:1060E00000000000000000000000000000000000B0
:1060F00000000000000000000000000000000000A0
:10610000000000000000000000000000000000008F
:10611000000000000000000000000000000000007F
:10612000000000000000000000000000000000006F
:10613000000000000000000000000000000000005F
:10614000000000000000000000000000000000004F
:10615000000000000000000000000000000000003F
:10616000000000000000000000000000000000002F
:10617000000000000000000000000000000000001F
:10618000000000000000000000000000000000000F
:1061900000000000000000000000000000000000FF
:1061A00000000000000000000000000000000000EF
:1061B00000000000000000000000000000000000DF
:1061C00000000000000000000000000000000000CF
:1061D00000000000000000000000000000000000BF
:1061E00000000000000000000000000000000000AF
:1061F000000000000000000000000000000000009F
:1062000010B5054C237833B9044B13B10448AFF3F0
:1062100000800123237010BDC8240020000000006E
:1062200000CC02000C4B43B10C480D4910B5AFF344
:1062300000800C48036823B910BD0A48036833B9CD
:106240007047094B002BF7D0BDE810401847064BAC
:10625000002BF5D0184700BF0000000000CC020062
:10626000CC240020C424002000000000154B002B8B
:1062700008BF134B9D46A3F5803A00218B460F467D
:106280001348144A121A05F022FE0F4B002B00D0BF
:1062900098470E4B002B00D09847002000210400A7
:1062A0000D000D48002802D00C48AFF3008005F027
:1062B000BFFD2000290004F069F905F0A5FD00BF2D
:1062C00000000800000001200000000000000000A5
:1062D000C8240020782E00200000000000000000EC
:1062E0000649074A074B9B1A03DD043BC858D050A8
:1062F000FBDC02F0D5F8FFF7B9FF0000E8CC0200A4
:10630000B8220020C8240020FEE7FEE7FEE7FEE7F3
:10631000FEE7FEE7FEE7FEE7FEE7FEE7F0B595B035
:10632000002415460F4608461E4601F08DFF3846EC
:1063300023460822089505A91A9D09960D950A94E9
:106340008DF82C400C9401F0DBFF9DF81430079879
:1063500006998DF8114003F00302012A029003917F
:1063600028D0022A04D0384601F072FF15B0F0BDE3
:10637000BDF81650C3F3C2038DF81030C5F389156C
:106380000826082D2C4628BF0824334622460EA98D
:10639000384601F0B5FF2D1B214608AB02AA0EA816
:1063A000264400F02BFD002DEBD1384601F050FFC4
:1063B00015B0F0BDBDF81460059DC6F38316C3F398
:1063C000C204B2000EA9384608238DF81040C5F368
:1063D000952501F095FF08AB0093324628460EA99B
:1063E00002AB00F065FCBEE7014B01221A7070475A
:1063F00028250020704700BF00B583B0044B0093F0
:10640000044A4023FFF78AFF03B05DF804FB00BF96
:1064100019640200E824002038B50E480E4D0378B8
:106420000E4CEB5C00252570D2B253B90C3003F052
:106430005DFA58B90A4B1B7813B12378002BFCD0B6
:1064400038BD043003F0A4FC0028F3D000F0E8FECF
:10645000F0E700BFB8220020742E0020282500207D
:10646000E424002070B51348134A0378D35C88B045
:10647000DBB90C3003F0D4F9104D0FCD6C460FC4CE
:1064800095E80F0008AD062645F8206D84E80F005A
:1064900029460022074802F0E5FA08B100F0C0FEE4
:1064A000074B00221A7008B070BD043003F008FCDE
:1064B000E2E700BFB8220020742E002024BF0200B3
:1064C000E424002070B50D4D0FCD88B06C460FC48C
:1064D00095E80F0008AD062645F8206D84E80F000A
:1064E0002946074A074802F0BDFA08B100F098FEB5
:1064F000054B01221A7008B070BD00BF24BF020016
:10650000E9630200B8220020E424002008B5FFF768
:10651000D9FF0421034800F083FB034B01225A7189
:1065200008BD00BFD0CC0200CC220020F0B5334D16
:1065300085B005F5836001F093FA05F2144001F08F
:106540008FFA6B68AE6803EA0600C11C05EB810296
:1065500015F8214014F004040ED0117801F0030165
:1065600001293BD0022903F1020700F1030126D0E3
:1065700005EB8102002CF0D105EB80005A1CC168AC
:106580000191324005EB820201F00301D2680292D0
:10659000012903F1020429D0022925D1BDF80630D2
:1065A000BDF80A60C3F38913033304EB9304144862
:1065B00001F064FA00B16C60304605B0F0BD53885C
:1065C00007EB931306EA0300C11C05EB810215F8E3
:1065D000214004F00404002CBFD1CDE71188023320
:1065E000C1F383110B44EDE70026E0E7BDF804306A
:1065F000BDF80A60C3F383131C44D8E7FC250020D0
:10660000102A00200B4B0C4810B50022FF21C3F8C4
:10661000182499601A605A60C3F8142483F820245F
:1066200001F0C8FD044610B9044801F0DFFE204621
:1066300010BD00BFFC25002054CC020064BF020046
:1066400021B9114B03EBC0000068704730B40F4A0A
:106650000D4C121BD2080CD00D4D2B88834210D04C
:10666000002303E035F82310814205D001339A421C
:10667000F8D1002030BC704704EBC300006830BC88
:1066800070472046FAE700BF68CC0200D0CC020079
:10669000C8240020094B013903EBC00003290BD8A3
:1066A000DFE801F0020806040220704740797047D5
:1066B00000797047042070470020704768CC0200C2
:1066C0002DE9F047944C94E80C009A4284B000F015
:1066D000BB800023C4F81834BFF34F8F6368A568EC
:1066E00003EA0501CA1C04EB820614F822205007B5
:1066F0001AD52768327802F00302012A44D0022A10
:1067000003F1020202D1738802EB931305EA03013D
:10671000D4F81804CA1C04EB820628B99F4239D960
:1067200014F822205207E5D404EB81015A1CC968F1
:1067300001912A4004EB820201F00301D268029227
:10674000022903F1020829D0012900F08180D4F840
:1067500010543DB12B6828469B689847EB681D682C
:10676000002DF7D16D486E4B6E49C01AC008000469
:1067700040F0020000F0DCF860682368C01A18BF1F
:10678000012004B0BDE8F08732880233C2F38312DF
:106790001344BBE7676004B0BDE8F087BDF806307E
:1067A0006148C3F389194F46502FA8BF502767F39C
:1067B0008F1307F10801ADF8063001F0FDFC064625
:1067C0000028C4D025EA080A0AF1010A01F03CFDBC
:1067D0004FEA8A0A0023082201A9304601F05AFD37
:1067E000574572D9BAF1000F7ED13A4608234F4976
:1067F000304601F04FFD09F1030708EB9707D4F885
:106800001834002B6CD1D4F810545DB1EB685A7970
:10681000314628461AB12B681B689847EB681D68FB
:10682000002DF3D1304601F013FD04A8002300F839
:106830000D3D01F075F8D4F8183403B967609DF880
:10684000030001F093F897E7002004B0BDE8F0875B
:10685000BDF804303448C3F38312062A28BF062249
:10686000911C62F389138900ADF8043001F0A4FC97
:10687000064600283FF46BAF01F0E6FC0023082237
:1068800001A9304601F006FDBDF8043013F4707F15
:106890003FD04FF0000A4FF0080905EA0801033124
:1068A0004B4604EB81010422304601F0F3FCBDF8B5
:1068B00004300AF1010AC3F3831308F101075345B9
:1068C00009F10409B846E8D899E705EA0801033157
:1068D00004EB81013A460823304601F0DBFC8AE7ED
:1068E000304601F0B5FC47E705EA08010331A7EBA4
:1068F0000A0504EB810152463046EDB2082301F04F
:10690000C9FC2A460AF108030849304601F0C2FCD6
:1069100071E7474673E700BFFC25002098CC0200D2
:1069200068CC020070BF020054CC02000826002090
:106930002DE9F04383B002AB002203F8012DDFF80C
:10694000E090074618468846D9F8085000F0E8FF5E
:10695000D9F80820D9F80430D9F80060134401337D
:106960009B1B012B57D809F21C440121204601F042
:106970005BF8FFF7DBFD0146204601F055F899E88A
:106980000A00D9F80820134401335B1A012BECD913
:1069900001240A40033244F004036FF389130231E7
:1069A0009DF8070049F82230C9F8001000F0DEFF1A
:1069B00000211A4801F010F880F3100033192B4021
:1069C00009EB830300043540033540EA1740D860E3
:1069D00019F8253067F3C50309F8253039F8253053
:1069E0006FF3891329F8253059F8252068F39F2281
:1069F000134664F301036FF3820349F8252009F875
:106A0000253099F820341BB1FFF75AFE0028FBD13E
:106A100003B0BDE8F0833146BAE700BF182A002072
:106A2000FC2500202DE9F04782B002AB002403F8DA
:106A3000014D374C8046184692468946A56800F0BD
:106A40006FFFA2686368276813440133DB1B022BC6
:106A50005BD804F21C460121304600F0E5FFFFF749
:106A600065FD0146304600F0DFFF94E80A00A268A9
:106A7000134401335B1A022BEDD901260A4003327D
:106A800046F0040366F3891344F8223003319DF87D
:106A90000700216000F06AFFBB1C2B4004EB83035E
:106AA00000211C48C3F80CA000F096FF80F31000F2
:106AB000BB192B4004EB830300043D40033540EA3F
:106AC0001840D86014F8253068F3C50304F8253061
:106AD00034F8253066F3891324F8253054F825203E
:106AE00069F39F22134666F301036FF3820344F8B0
:106AF000252004F8253094F820341BB1FFF7E0FD81
:106B00000028FBD102B0BDE8F0873946B5E700BFE9
:106B1000FC250020182A00202DE9F04F85B004AD97
:106B2000002405F8014D3C4C0193804628469346CD
:106B30008946A66800F0F4FEA268636827681344DB
:106B40000133DB1B032B65D804F21C4501212846C9
:106B500000F06AFFFFF7EAFC0146284600F064FFF8
:106B600094E80A00A268134401335B1A032BEDD9A1
:106B700001250A4003324FF0020A45F004036AF38C
:106B8000891344F8223004319DF80F00216000F091
:106B9000EDFE07EB0A0EFA1C0EEA060E324004EB7D
:106BA000820204EB8E0E019B1C48CEF80CB0002133
:106BB000D36000F011FF80F310007A19324004EB2B
:106BC000820200043E40033640EA1840D06014F8C8
:106BD000262068F3C50204F8262034F826206AF33C
:106BE000891224F8262054F8262069F39F221346A0
:106BF00065F301036FF3820344F8262004F826307E
:106C000094F820341BB1FFF75BFD0028FBD105B0E1
:106C1000BDE8F08F3946ABE7FC250020182A00209C
:106C200030B4174DD5F8104400215CB1E3681A79EF
:106C30008A4204D116E0DB681A798A4212D01B68B6
:106C4000002BF8D1C3681971D5F8103493B1DA6804
:106C5000C36812681A60D5F81034DB6818600846FB
:106C600030BC704701310A29DFD14FF0FF310846AF
:106C700030BC7047C5F81004C2681360EFE700BF6E
:106C8000FC25002038B5094BD3F81044012583F8C2
:106C900020544CB1E3685D71236820465B689847D7
:106CA000E3681C68002CF5D138BD00BFFC2500202E
:106CB0002DE9F04784B01D460C9C002394F80C800D
:106CC0002373EB8881460E461746002B3BD1297A69
:106CD00005290FD06B7A002B3DD1404BA88853F883
:106CE00021A00021FFF7ACFC524603463C49204658
:106CF00000F03EFF062F0FD8DFE807F0484D535A4B
:106D000004633900F168B06896E80C0001910090C6
:106D10004946204600F02CFF2B7A052B05D06B7AD4
:106D20005BB93049204600F023FF204600F014FFF5
:106D300084F80C8004B0BDE8F0872B4A2B4920462C
:106D400000F016FFEDE7284A00922949294A20461B
:106D500000F00EFFBBE7A888FFF79CFC264B2349F9
:106D600053F82020204600F003FF297AB5E7706928
:106D7000316996E80C000390B068F76802918DE8DD
:106D800081004946204600F0F3FEC5E7494620460B
:106D900000F0EEFEC0E732684946204600F0E8FE0B
:106DA000BAE7494696E80C00204600F0E1FEB3E75A
:106DB000B16896E80C0020460091494600F0D8FEE4
:106DC000AAE7B068F768316996E80C0002918DE88F
:106DD00081004946204600F0CBFE9DE7FCBF020043
:106DE000ECBF0200F8BF0200E0BF0200E8BF0200F3
:106DF000C8BF0200C0BF020088BF0200082900D936
:106E000070472DE9F04F1D46904600232A7B2B73D7
:106E100085B0B8F80630039207460E46002B6BD1BA
:106E200098F80810052911D098F80930002B6BD17B
:106E30003C4BB8F8040053F821400021FFF700FC58
:106E4000224603463849284600F092FEDFF8F8B0A3
:106E5000DFF8F8900024A642494628463ED93A5D1C
:106E6000013400F085FE082CF5D13049DFF8E090C0
:106E7000DFF8E0B0284600F07BFE002411E017F8B0
:106E800004A004F0F9FF50445946437813F0970FDB
:106E900014BF52462E222846013400F069FE082C09
:106EA00008D0A64249462846E9D8013400F060FEE1
:106EB000082CF6D198F80830052B02D098F8093044
:106EC000A3B91B49284600F053FE284600F044FEB3
:106ED0009DF80C302B7305B0BDE8F08F0134594696
:106EE000284600F045FE082CB5D1BEE7114A1249EC
:106EF000284600F03DFEE4E70E4A00920F49104A92
:106F0000284600F035FE8BE7B8F80400FFF7C2FB17
:106F10000C4B094953F82020284600F029FE98F828
:106F2000081085E7FCBF0200ECBF0200B8BF0200FA
:106F3000F8BF0200E0BF0200E8BF0200C8BF0200C5
:106F4000C0BF020088BF0200B4BF0200ACBF020095
:106F5000F4BF0200BCBF0200434B1978002900F0C7
:106F600081802DE9F04F8C4687B00024012503E095
:106F70000134E4B2644560D23C4B27B21E6816F877
:106F800037E0AEF1200305FA03F9394BCEF12001C9
:106F9000D3E9002325FA01F149EA010905FA0EF8BF
:106FA00008EA020009EA0301014306EBC70BDFD040
:106FB0002F4922EA080223EA09037046C1E90023A7
:106FC00001F0AAFF16F837E0AEF1200205FA02F24E
:106FD00001920199CEF12003C6B225FA03F3AEF176
:106FE0002002194306FA02F30393224B0191D3E9DD
:106FF0000023CDE9042305FA0EF30093CEF120011E
:10700000039B26FA01F10B43039306FA0EF3029356
:10701000DDE90467DDE9002316401F4032463B46A8
:10702000DDE90267BB4208BFB24209D00E4B013412
:1070300093F800C0E4B264459ED307B0BDE8F08F7A
:10704000DBF80430002BF1D09BF80110A1F1010115
:10705000B1FA81F14909091AB1FA81F14909704679
:107060009847E3E7704700BFB82A0020F02A0020C5
:10707000E82A0020E02A00202DE9F84306462048AF
:1070800000F012FCD0B91F4F0123A6F1200103FA32
:1070900001F5C6F12002D7E9000123FA02F21543F7
:1070A00003FA06F404EA000205EA0103134307D0D9
:1070B00020EA040421EA0505C7E90045BDE8F88394
:1070C000304601F029FF104ED6E9008998B148EA10
:1070D000040849EA0509D7E9002314431D43C6E91A
:1070E0000089C7E90045094B054819680022BDE839
:1070F000F84300F083BB28EA040829EA0509EAE717
:10710000C02A0020E82A0020E02A0020BC2A002013
:10711000042A01D8072070472DE9F04182B00F46BC
:107120000546164601F08AFD002834D01C4C1D4A45
:107130001D4B1E481E49256017707C1E00221E60D4
:107140000023C0E90023C1E90023E4B2EFB1DFF876
:107150006C800027032601E0FF2C16D023B205EB3C
:10716000C30215F8330093788DF80670424601A9E2
:107170008DF804608DF8053001F06AFD013CE4B241
:107180000028E9D002B0BDE8F0810A4A0A4800218F
:1071900000F022FBF6E701F003FD0028C6D0F1E77E
:1071A000F02A0020B82A0020BC2A0020E02A002073
:1071B000E82A0020596F020068C0020079700200BE
:1071C00070B5084D2B785BB1074E00243368012160
:1071D00013F8340001F00EFE2B780134A342F5D8E9
:1071E000002070BDB82A0020F02A002070B5094D9B
:1071F0002B7853B1084E0024336813F8340001F0A3
:107200005BFE2B780134A342F6D80448BDE87040F9
:1072100000F04ABBB82A0020F02A0020C02A002033
:1072200000B585B000230390194601AA44F201007D
:107230000193029300F004F805B05DF804FB00BF71
:1072400010B572B6FFF71EFDFFF73AFA0028FBD122
:10725000104B114C1149E41AE408240444F00100D5
:10726000FFF766FB0E4B1B68DB0700D500BE44F042
:1072700002000C49FFF75CFBBFF34F8F0A490B4B31
:10728000CA6802F4E0621343CB60BFF34F8F00BFC4
:10729000FDE700BF68CC020098CC02006CC0020081
:1072A000F0ED00E078C0020000ED00E00400FA0517
:1072B000F8B5204A204B0025C2F84051C2F844518D
:1072C000C2F84851C2F84C51C2F80051C2F80451FA
:1072D0001B6813B31949D2F804450A68A41A1A683E
:1072E00024F07F44A2422F4609D8197CDE69A41AF3
:1072F000154499B91EB133461A68A242F5D910490E
:10730000104A0B7812789A420DD00F490F4A41F873
:1073100023504FF48013C2F80031F8BD1F745A692E
:1073200098699047E6E7531CDBB2022B08BF0023A5
:107330000B70EAE700100140142C0020102C0020F4
:107340000D2C00200C2C0020042C002000E100E07B
:107350002DE9F04FB74AB84913780978994285B0BA
:1073600033D00133DBB2022B08BF0023B3481370C4
:10737000B34A0768DFF8E08252F82320D8F80010FB
:10738000BB18002423F07F43036025462046A64611
:10739000A9B10B68934200F27D81CC68C1F800E08E
:1073A000D21A1844CB6934B13E1826F07F46CD611D
:1073B0008C604E600D46194601240029E9D1002C4D
:1073C00040F0A5814FF0010B05E0DFF88C8200252D
:1073D000D8F80010AB469B4B9B4FDFF8809243F0F0
:1073E000010300930E464FF0000A002D2DD0D5F872
:1073F00004E0D5F808C02C46ED69904B93481B6813
:10740000AEEB030222F07F42824255D802EB0C031E
:107410002360002201206260A260E2612074002EDD
:107420006BD03068834261D9B64603E01068984259
:107430004CD29646DEF81C201B1A002AF6D1236097
:10744000E261CEF81C40002DD1D197F801C097F829
:1074500000E0F44571D0734603EB43030EF10100E5
:10746000BA7807EBC3035FFA80FE7245187987F894
:1074700000E004BF4FF0000E87F800E002289A6891
:107480004CD003283DD00128E3D1107C0028E0D166
:10749000D3F80CE0C2F804E0D3F810C0C2F808C07A
:1074A00014465A69E26099F800209B69A361002A9A
:1074B000A3D060608646A0E7A3EB0E0323F07F43D2
:1074C00063450AD2ACEB03032360A2E7C01A106045
:1074D0002360E261CEF81C40B5E70023012223605F
:1074E0006360A360E36122743EB13068C8F8004075
:1074F000C31A3360E661264677E7C8F8004026469F
:1075000073E7002EA5D0002200E01E46F369327416
:10751000002BFAD1C8F800301E4696E74EB1B242B1
:10752000344603D1BDE09A4260D01C46E369002B8B
:10753000F9D100231374F4458DD1BAF1000F02D1B3
:107540008E4200F09D80002E00F0C5803B4B404AEB
:107550001C68D2F80475DFF80881D6F800A098F806
:1075600000103B1B23F07F43DD1CA9B93949354B83
:107570004FF48030C2F844030126C2F804034FF4EC
:107580000030C1F8800143F00103086016604FF439
:107590003C60984788F80060AA452CBF04EB0A03BA
:1075A00063192B4923F07F43C1F84035D1F80425F6
:1075B000D21BDB1B22F07F4223F07F4303329A422F
:1075C0000ED9204BD1F80425C1F8402543F0010322
:1075D0004FF43C6098471F4B4FF40032C3F8002132
:1075E000002389F8003005B0BDE8F08FA24239D001
:1075F000D2F81CE01368C4F81CE0BEF1000F11D0F3
:107600003046DEF800402344CEF80030864209D0F0
:10761000002397F800E097F801C0137406464FF076
:10762000010A88E7002397F800E097F801C0137477
:1076300081E700BF0C2C00200D2C0020102C002016
:10764000042C002090C00200F42A0020FEFF7F00DE
:107650000010014000E100E0142C0020002C00206C
:10766000012C00201346F069C8F80000D8B1D3F807
:107670001CE01B68C4F81CE0BEF1000FC1D1C5E7D7
:10768000BBF1000F7FF45FAF002389F8003005B035
:10769000BDE8F08F002C3DD19B1A0B604FF0010B21
:1076A00099E63346DFE701931C4BDFF87CC0039279
:1076B0004FF0010E0291C3F808E0009BCCF80000E7
:1076C00089F800E04FF43C609847D8F80000019B2F
:1076D0000299039ACBE7114D114A124C4FF48033B3
:1076E0004FF400310127C2F880103C43C5F84833FD
:1076F0004FF43C60C5F808336F60A0470A4BAF6099
:107700004FF43C601E60A047084B1E7068E7C8F845
:10771000001057E6C8F80010BEE700BF0010014097
:1077200000E100E090C00200102C0020012C00209D
:107730002DE9F8431F4D204E204FDFF898804FF47D
:1077400080334FF400324FF001090024C6F8802046
:1077500047EA0907C5F848334FF43C60C5F80833D9
:10776000C5F80490B847C5F808904FF43C60C8F8D5
:107770000040B847124B13481349144A1C70144B6D
:1077800004600C7014704FF48011E0220B2098708C
:107790001C705C70C6F8801186F814233160C5F83F
:1077A000084586F81123D5F80435C8F8003020467E
:1077B000BDE8F8830010014000E100E090C0020045
:1077C000012C0020142C00200C2C00200D2C00205B
:1077D000F42A0020102C0020074B9B780BB90820BE
:1077E00070473AB130B10368187C0028F7D159745A
:1077F0005A61704707207047F42A00202DE9F043B2
:10780000264CA37883B01BB9082003B0BDE8F083F1
:107810000028F9D0042903D8072003B0BDE8F0837D
:107820004369002BF0D0064602A8737C0025012B8B
:1078300000F8015D0CBF8946A94690460F4600F04E
:107840006FF86378A07821785A1CD2B2904208BFB2
:107850002A4691421BD003EB430304EBC3030120F0
:107860000F4918719E60D1F804159DF80700D96082
:107870001F61C3F81490C3F81880627000F076F8A6
:10788000084B4FF480122846C3F80021BDE79DF84D
:10789000070000F06BF80420B7E700BFF42A0020CF
:1078A0000010014000E100E070B51B4CA37882B0ED
:1078B00013B9082002B070BD0028FAD04369002B2C
:1078C000F7D0064602A8002500F8015D357400F0E7
:1078D00027F86278A0782178531CDBB2984208BF61
:1078E0002B46994212D002EB420204EBC202022163
:1078F0009DF8070096601171637000F037F8074B30
:107900004FF480122846C3F80021D3E79DF8070002
:1079100000F02CF80420CDE7F42A002000E100E07C
:1079200070B4EFF3108472B60D4B9A68AAB90D4982
:107930000D4E01259D60D1F8805035401D60C1F885
:107940008060D1F884505D604FF0FF33C1F884301F
:10795000027004B962B670BC704701230370F8E787
:10796000682E002000E100E0FC06FFBD094B9A688C
:1079700072B168B910B4EFF3108272B606491C6890
:107980000C605C684C60986002B962B65DF8044BAC
:10799000704700BF682E002000E100E001F01F02E8
:1079A0004B09012100EB8300914000F021B800BF9A
:1079B00001F01F0201234909934000EB8100D943E4
:1079C00000F024B84B0901F01F0150F82300C84013
:1079D00000F00100704700BF00B550E8002F0B46D3
:1079E00040E8003E9EF0000FF7D110465DF804FB22
:1079F00000B550E8003F43EA010240E8002E9EF047
:107A0000000FF6D110465DF804FB00BF00B550E84A
:107A1000003F03EA010240E8002E9EF0000FF6D17D
:107A200010465DF804FB00BF00B550E8003F03EBD3
:107A3000010240E8002E9EF0000FF6D110465DF8DE
:107A400004FB00BF00B550E8003FA3EB010240E893
:107A5000002E9EF0000FF6D110465DF804FB00BF2B
:107A600000B5012350E8002F42EA030E40E800E190
:107A700091F0000FF6D170465DF804FB00B50023CD
:107A800050E800EF0EEA030240E8002191F0000FF9
:107A9000F6D170465DF804FBB8B130B44168826835
:107AA0000468521AD2B2531E2160DBB242B101689F
:107AB0000A685C1E551C0D601370E3B2FF2BF6D1F3
:107AC00003680020187130BC70470E20704700BF5B
:107AD000F0B583B002AB002503F8015D04461846FB
:107AE000FFF71EFF236861681A688A4210D9511E89
:107AF00019602168A3680E6812F8015C0A79278A68
:107B0000E0689B1BDBB29A4207FB050538BF0B718F
:107B10009DF80700FFF72AFF284603B0F0BD00BF1D
:107B200030B583B002AB002203F8012D054618469C
:107B30000C46FFF7F5FE2A681368591C1160E968C6
:107B40002A8A641AB4FBF2F41C709DF80700FFF750
:107B50000DFF03B030BD00BF826802B9704710B599
:107B6000044643690168006998470023A36010BD7B
:107B70000EB400B582B0039929B102AA04AB42F851
:107B8000043D00F095F802B05DF804EB03B07047D7
:107B90002DE9F84F1746B942884606461D46DDF8DE
:107BA00028B00B9A7DD30B464FF00109B3FBF7F3D6
:107BB0009F4209F10109F9D9A94538BFA94612F038
:107BC000010A02D1BBF1000F49D1B268012402E0E1
:107BD000013D07FB04F4012DFAD8B8FBF4F18F4204
:107BE000F7D9324D05E0B4FBF7F4A4B1B8FBF4F1DA
:107BF000B268685C531CB36033689854B2687368A9
:107C00009A4204FB1188EED33046FFF7A5FFB4FB80
:107C1000F7F4002CEAD1BAF1000F16D0BBF1000F37
:107C200033D0CB4588BF20243ED9B3683268591C75
:107C3000B160D454B26873689A420BF1FF3B06D22C
:107C4000BBF1000F09D0D945EFD1BDE8F88F304620
:107C5000FFF782FFBBF1000FF5D1BDE8F88F930766
:107C60001AD42024CB45B0D9B2683368511CB16016
:107C70009C54B26873689A420BF1FF3B07D2BBF188
:107C8000000FA3D0CB45F0D1A0E7BDE8F88F304678
:107C9000FFF762FFB268F2E7002D0CBF302420240A
:107CA000E0E74FF0010987E7BDE8F88F98C00200D0
:107CB000002900F06F822DE9F04F064685B093460B
:107CC0000C460B780DE0B2683168501CB0608B54E4
:107CD000B26873689A4280F0D3802378002B00F05A
:107CE000BA800134002B00F0B680252BEBD14FF089
:107CF0000008234614F8012B2D2A00F0BB80302AFF
:107D000000F0BB802B2A00F0AD802A2A00F0BC8056
:107D1000A2F13005E9B2092998BF013302D9A9E1DE
:107D2000A1F130051C4613F8012BA2F1300005EB40
:107D30008501092802EB4101F2D92E2A00F0B0801A
:107D4000002701E014F8012F02F0FB03682BF9D0A3
:107D5000253A532A7AD8DFE812F07A0179007900BF
:107D6000790079007900790079007900790079004B
:107D7000790079007900790079007900790079003B
:107D8000790079007900790079007900790079002B
:107D9000790079007900790079007900790079001B
:107DA000790079007900790079007900790079000B
:107DB00079007900790079007900790079007900FB
:107DC0006A017900790079007900790079007900F9
:107DD0007900790079005501FC007900790079007B
:107DE0007900FC0079007900790079007900790048
:107DF000540079007900CA007900BA00790079004E
:107E00006A01DBF80020131DCBF80030B368156859
:107E100031685A1CB2604FF03002CA54B3687268BD
:107E2000934280F0A0813268581C7821B060D15410
:107E3000B26873689A4280F092810022082301920E
:107E40002946009310223046FFF7A2FE0134237822
:107E5000002B7FF446AF337B002B40F0058105B04B
:107E6000BDE8F08F234614F8012B2D2A48F00408B2
:107E70007FF445AF48F001083BE748F0020838E7D7
:107E80003046FFF769FE28E7DBF80020111DCBF82C
:107E9000001015685A782E2A03F101047FF450AFC0
:107EA0006278A2F13003092B04F101044FF00007BE
:107EB0003FF64AAF07EB870702EB470714F8012F9D
:107EC000A2F13003092BA7F13007F3D93CE7DBF827
:107ED00000301A1DCBF800201968CDF804803B460D
:107EE00000950A223046FFF753FE0134AFE7DBF876
:107EF00000301A1DCBF8002018F0010FD3F80090C5
:107F000040F0BB80B9F1000F00F04781484603F014
:107F1000E6FF0746BD4240F2F180002D00F0EE8002
:107F20004FF0200805E0BD4200F0E880002D00F091
:107F3000E580B3683268591CB16002F80380B2680A
:107F400073689A4205F1FF35EDD33046FFF704FE22
:107F5000E9E7DBF800301A1DCBF80020D3F80090D9
:107F600089EAE973A3EBE973092B4FF0010A09DDF4
:107F70008F4A82FB0312DB17C3EBA203092B0AF122
:107F8000010AF5DCBA4538BFBA462DB3B9F1000F86
:107F900002DB18F0040F00D0013D18F0020F40F092
:107FA000F58018F0010F17D1002D00F0FE80AA45D2
:107FB00038BF202110D2B2683368501CB060995489
:107FC000B26873689A4205F1FF3580F0E880002DB1
:107FD00000F0EB80AA45EED1B9F1000FC0F2C880E5
:107FE00018F0040F7BD108F00303022B00F09A80F5
:107FF0008DE820013B4649460A223046FFF7C8FD7E
:10800000013424E7DBF80020131DCBF80030B368FF
:1080100031681278581CB060CA54B26873689A42CA
:10802000FFF414AF3046FFF797FD01340FE7DBF89C
:1080300000301A1DCBF800201968CDF804803B46AB
:10804000009510223046FFF7A3FD0134FFE6B36828
:108050003268591CB1604FF02501D154B268736881
:108060009A42DFD20134F2E6304605B0BDE8F04F67
:10807000FFF772BD1C4600255FE64F46A7EB0908D7
:1080800017F8013B8BB1B2683168501CB0608B545B
:10809000B26873689A42F1D33046FFF75DFDA7EBF3
:1080A000090817F8013B002BEDD145457FF6CEAE10
:1080B000202705E045453FF4C9AE002D3FF4C6AE8C
:1080C000B3683268591CB160D754B26873689A4279
:1080D00005F1FF35EED33046FFF73EFDEAE7B26823
:1080E0003368501C2B21B0609954B26873689A426F
:1080F000FFF479AF3046FFF72FFD74E709F1FF3940
:1081000019F8013F002B3FF4A1AEB2683168501C52
:10811000B0608B54B26873689A42F1D33046FFF76F
:108120001BFDEDE7002F7FF463AF002D33D0AA4590
:10813000BFF45EAFB2683368511CB1604FF03001DC
:108140009954B26873689A4205F1FF3503D215B3AA
:10815000AA45EFD14CE73046FFF7FEFCF7E7304683
:10816000FFF7FAFC69E63046FFF7F6FCB3685AE61B
:10817000B2683368501C2D21B0609954B26873689E
:108180009A42C9F10009FFF42EAFB3E7002F3FF484
:1081900023AF06E7704700252AE74F46BAE6304688
:1081A0000391FFF7D9FC039911E7002514E700BFFD
:1081B00067666666FFF770BC2DE9F041B0F8108085
:1081C000CF1CA8F1040847440646B7FBF8F7FFF7B1
:1081D0007FFC80B3FFB200250123013F0446A0F8D5
:1081E000068006600571437128D0804609E06379F6
:1081F000AF4203F101036371C8F8000006608046D6
:108200001CD03046FFF764FC01350028EFD16679B9
:10821000721E16D02346013082421B68FBD81F68AD
:108220004EB1214600250C6801353846FFF778FC31
:10823000AE422146F7D10020BDE8F0812046BDE8DE
:10824000F0812768EDE700BF04300121FFF7ECBBA8
:10825000F8B5012104460430FFF7F4FBC0B200B1C9
:10826000F8BD6679721E12D02346013082421B6827
:10827000FBD81F68002EF3D0214600240D6801347E
:108280003846FFF74DFCA6422946F7D1F8BD2768CE
:10829000F2E700BF2DE9F843C78890F805E01546DE
:1082A00007FB0EFEEC18AEF1040E1A1DA64588461B
:1082B000B2FBF7F638BFAEEB030507FB1621044609
:1082C00016B1013E2468FCD17E1AAE4228BF2E466C
:1082D0009DB14FF00009081DAD1B08EB09012044BA
:1082E000324603F0E9FDAF42B14424683E464FF008
:1082F000000128BF2E46002DEDD1BDE8F88300BF58
:108300002DE9F843C78890F805E0154607FB0EFEF7
:10831000EC18AEF1040E1A1DA6458846B2FBF7F61E
:1083200038BFAEEB030507FB1621044616B1013E2C
:108330002468FCD17E1AAE4228BF2E469DB14FF074
:10834000000904312144AD1B324608EB090003F05B
:10835000B3FDAF42B14424683E464FF0000128BF50
:108360002E46002DEDD1BDE8F88300BF41DF7047F8
:10837000064A074B10B5002414701C60BFF35F8FD2
:108380000449054800F040F8204610BD202C00208C
:10839000242C0020A8C00200182C002000B583B0B7
:1083A00002A8002300F8013DFFF7BAFAF1EE103AF7
:1083B00023F09F03E1EE103ABFF35F8F0A4B402298
:1083C000C3F884219DF80700FFF7D0FA03F09CFB67
:1083D00028B920BF40BF20BF03B05DF804FBFFF702
:1083E000C5FF03B05DF804FB00E100E082680023F4
:1083F000936082681361826853618268D360826887
:10840000536082681360704701600B6843604A687C
:10841000934204BF00234360704700BF436843B1E9
:10842000026891680B4443605268934204BF002382
:108430004360704730B4184DA5F59472AB1ADB1049
:1084400003EBD3735B1002EBC30152F83330984255
:1084500028BF0C4605D311E052F8333098420CD2B5
:1084600021468B1ADB1003EBD3735B10914202EBB6
:10847000C304F1D8094830BC70470D46984204D96E
:1084800004F10802AA42D9D3F4E76068034B00283C
:1084900008BF1846EFE700BFFCC10200C0C00200E1
:1084A000F0B4B44B1A78062A20D0B34B1B68062BC5
:1084B00000F08A80B14AD2F8883043F47003C2F8E1
:1084C0008830BFF34F8FBFF36F8F4FF01023D3F877
:1084D0000022002AC0F28A81D3F80432002BC0F2B5
:1084E0008581A74BA74A1A60F0BC704704331B680C
:1084F0001807DAD1A44B1B6803F0F002302A00F011
:10850000658103F0E003402B00F060819E4B1B6807
:1085100003F0F003302B00F01E819B4B1B6803F02F
:10852000F002302A00F0078103F0E003402B00F056
:108530000281954B1B6803F0F003302B00F0EB80B9
:10854000914B1B6803F0F002302A00F0D08003F05A
:10855000E003402B00F0CB808B4B1B6803F0F00353
:10856000302B00F0B680884B1B6803F0F003302BF3
:1085700000F09880844B1B6803F0F003502B3FD031
:10858000814B1B6803F0F002302A28D003F0E0038F
:10859000402B24D07C4B1B6803F0F002302A03D020
:1085A00003F0E003402B80D14FF08043D3F8002448
:1085B000D2077FF57AAF6FF00102C3F800246E4B4B
:1085C0001B68062B7FF476AF704B1B68062B7FF47D
:1085D00071AF6F4A136843F4806313606AE76D4BB1
:1085E0006D4A1B6803F04F031360624B1B78062B28
:1085F0007FF45BAF694B1B6818077FF456AFC9E780
:108600004FF08052664BD2F80414C3F82015D2F80C
:108610000814C3F82415D2F80C14C3F82815D2F89E
:108620001014C3F82C15D2F81414C3F83015D2F86E
:108630001814C3F83415D2F81C14C3F84015D2F836
:108640002014C3F84415D2F82414C3F84815D2F8FE
:108650002814C3F84C15D2F82C14C3F85015D2F8CE
:108660003014C3F85415D2F83414C3F86015D2F896
:108670003814C3F86415D2F83C14C3F86815D2F85E
:1086800040143C48C3F86C15D2F844140278C3F87F
:108690007015062A7FF409AF404B1B681C077FF456
:1086A00004AF6DE73F4E404C4049414B0527012543
:1086B00000203F223760256008601A602D4B1B7830
:1086C000062B7FF4F2AE354B1B681D077FF4EDAE31
:1086D00050E7284B374A1B780321062B11607FF4A3
:1086E000E4AE2E4B1B681E077FF4DFAE3BE74FF076
:1086F00080430022C3F80C21C3F81021C3F83825A9
:108700001C4B1B78062B7FF470AF244B1B681F0794
:108710007FF4CBAE20E72849164ACB68127823F0C5
:108720008073062ACB607FF4C0AE1C4B1B681B070E
:108730007FF4BBAE04E7214B0E4A1B681278204938
:10874000C3F34233062A0B60B8D1144B1B681A07D7
:108750007FF4ABAEEDE6074B1A4A1B781A4911605D
:10876000062B7FF4A2AE0D4B1B6819077FF49DAE5C
:10877000D3E600BFE00F00F03001001000ED00E094
:10878000D42200200090D003E80F00F03401001044
:108790003C17004058020010E40E0040E40F00F0C7
:1087A00000C0004010560040885600401856004057
:1087B00014560040A0050040F0ED00E04402001017
:1087C0003C05004074C007400DF0ADBA204B214A73
:1087D0001B6812782049C3F30423062A0B608FD14B
:1087E0001E4B1B6819073FF491AE5EE61C4B01223D
:1087F000C3F80425D3F80024002AFBD04FF010233F
:1088000015221749C3F80022D1F80034002BFBD001
:108810004FF010221521124BC2F80412D3F8002495
:10882000002AFBD000220E49C3F80425D1F80034F9
:10883000002BFBD0BFF34F8F0A490B4BCA6802F4E1
:10884000E0621343CB60BFF34F8F00BFFDE700BF73
:1088500024030010E00F00F040350140E40F00F069
:1088600000E0014000ED00E00400FA05044B195C53
:108870004FF0A04201238B40C2F80C35704700BF77
:10888000E8C50200044B195C4FF0A04201238B4065
:10889000C2F80835704700BFE8C50200C20770B4CF
:1088A0001AD54FF0A04303224FF400364FF4802531
:1088B0004FF400244FF48011C3F84427C3F848272D
:1088C000C3F84C27C3F85027C3F80865C3F8085508
:1088D000C3F80845C3F8081583070AD54FF0A0432D
:1088E0000C22C3F83427C3F83827C3F83C27C3F851
:1088F000402770BC704700BF10B568B101280AD18D
:108900000C4C2369A07033B10CCB01202261984735
:108910002369002BF8D110BD064CA36801226270B8
:10892000002BF8D00CCB0020A2609847A368002B46
:10893000F8D110BD282C002068B910B5064CA368EA
:108940000122627033B10CCB0020A2609847A3686B
:10895000002BF8D110BD7047282C002030B501281D
:1089600083B01CD015D3032811D100F0C9F802A898
:1089700000231F4C00F8013DFEF7D2FFE368013BE6
:10898000E360E56865B39DF80700FEF7EFFF03B00D
:1089900030BD184B0122C3F8802003B030BD02A8BF
:1089A0000023134C00F8013DFEF7BAFF237853B1C2
:1089B000E3689DF8070001330122E360A270FEF72F
:1089C000D5FF03B030BD0C486360A3602361E36052
:1089D00000F088F803F098F830B101232370E7E73E
:1089E00000F0A2F8A570CEE700F08AF8F5E700BF26
:1089F000282C002000E100E0F988020070B50A4A46
:108A00000A4B06784568047AC06853F8213052F85A
:108A1000211084B003908DF8006001958DF8084016
:108A20006846984704B070BD3C2C0020402C0020C4
:108A300070B50A4A0A4B067845688468C06853F8DE
:108A4000213052F8211084B003908DF80060019518
:108A50008DF808406846984704B070BD3C2C002053
:108A6000402C0020F0B51A4B06781A4D0C6991F88D
:108A70001DC045F826400746174803F806C040F8D1
:108A800026200C4696460FCC89B06D460FC594E85B
:108A90000F0085E80F000496BCF1000F0BD0BEF16B
:108AA000000F0E4A694607F1040008BF002201F0DA
:108AB0001BF809B0F0BDBEF1000F094A694607F185
:108AC0000C0008BF002200F0DFFD09B0F0BD00BFC0
:108AD000742E00203C2C0020402C0020FD89020038
:108AE000318A0200054A13790BB1852070470121B4
:108AF0001060537118461171704700BF442C00205C
:108B0000084B1A68D20706D40122E02183F800132B
:108B1000C3F880211A604FF080430122C3F8182562
:108B2000704700BF00E100E0044B01221A604FF0E3
:108B30008042D2F81834DB03FBD470470C000040AD
:108B400010B5144B1A6882B062B10021124A196044
:108B50001B68507900934FF080410123009CC1F8BD
:108B6000083390B10D4B1A686AB100221A601B6875
:108B700001934FF080420221074B0198C2F808137D
:108B80001B680120984702B010BD116853718847D7
:108B9000E8E700BF00010040442C00200401004031
:108BA00070B5224C94F8585082B015B1082002B02C
:108BB00070BD4FF0FF332946FF26042204F1540014
:108BC00023636363A363E36323646364A364E36471
:108BD00023606360A360E36023616361A361E36179
:108BE000236284F850306362A36284F85230E362F7
:108BF00084F8533084F8516003F069F90C4B0D4A46
:108C00000D4E15604021E02083F80603C3F8801163
:108C100019601368019301994FF00043012228461F
:108C200084F85820C6F8043302B070BD4C2C0020E4
:108C300000E100E07C61004000600040034B93F8DD
:108C40005800003018BF0120704700BF4C2C002096
:108C5000F0B5664C231893F93050002D01DB082045
:108C6000F0BD91F802E0CEF3400EBEF1000F50D0FF
:108C70002568013500F0B5800125082654F8253017
:108C800001334CD06B1C54F82370013748D0AB1C17
:108C9000B3423CD254F82370013741D0EB1CB342AD
:108CA00035D254F8237001373AD02B1DB3422ED25F
:108CB00054F82370013733D06B1DB34227D254F8D8
:108CC000237001372CD0AB1DB34220D254F823704F
:108CD000013725D0EB1DB34219D254F82370013768
:108CE0001ED005F10803B34211D254F823700137A6
:108CF00016D005F10903B34209D254F823700137A5
:108D00000ED00A35B54202D2E36A013367D004209F
:108D1000F0BD256A013533D009250C26AEE72B4678
:108D200026185DB244F8232086F83050BEF1000FBB
:108D30002CD08B785A0715D4DE0747D5830003F172
:108D4000A043D3F8002722F00202C3F80027284EE0
:108D5000C20800F0070EB75C012303FA0EF33B4391
:108D6000B3548B7813F0020314D1083D2C440978D6
:108D700094F8502042EA811284F850201846F0BD41
:108D8000082683F83060354622623346234483F850
:108D90004800CEE7AD0005F1804505F5C0450A78ED
:108DA000D5F8101521F4473121F44071C5F810159C
:108DB00003021204D5F8101502F4403203F4F853FC
:108DC00013430B43C5F810350020F0BD4A784FF02F
:108DD000A04600F5E073920046F82320B7E70B2386
:108DE0009EE70025226083F83050A2E74C2C00203B
:108DF000A02C0020F0B42E4D2E1882B096F9303001
:108E0000072B1CDD2B4493F848309B09032B41D0E2
:108E1000012B14BF4FF440314FF40031800000F1BA
:108E2000A040D0F8002722F44032C0F80027D0F844
:108E300000370B43C0F8003702B0F0BC7047DAB21D
:108E4000072AF9D8980000F1804000F5C04003F1EE
:108E500040029200D0F8104592B202F18042002701
:108E600044F0010402F5C042C0F810450197019892
:108E700017600029E0D096F9302055F82220002A0A
:108E8000DAD001220B4902FA03F3C1F8043302B02D
:108E9000F0BC70474FF0A043D3F81035C34013F037
:108EA000010F0CBF4FF400314FF44031B6E700BF63
:108EB0004C2C002000600040154B034493F93030E7
:108EC000072B17DCDAB2072A13D810B49A0002F184
:108ED000804202F5C0420F4CD2F81005012120F06B
:108EE000010001FA03F3C2F81005C4F808335DF875
:108EF000044B7047800000F1A040D0F8003723F405
:108F00004033C0F80037D0F80037C0F8003770475A
:108F10004C2C0020006000404FF0A043D3F81035E7
:108F200023FA00F000F00100704700BF2DE9F04F78
:108F300087B00023CC4A01931168012900F00A820E
:108F40001E46CA4B1A68012A00F0F681C84B1A68FF
:108F5000012A00F0E381C74B1A68012A00F0D08192
:108F6000C54B1A68012A00F0BD81C44B1A68012A5A
:108F700000F0AA81C24B1A68012A00F09781C14B08
:108F80001A68012A00F08481BF4B1A68012A00F098
:108F90005E8116F0FF0F1AD0BC4F01250024A300FC
:108FA00003F180432E4203F5C0434FEA45050BD041
:108FB000D3F8100557F82420D3F81015C0F3042077
:108FC000C1F3014102B190470134082CE7D1002ED2
:108FD00002DB07B0BDE8F08F00224FF0FF33AB4C4F
:108FE00002920393012502AE94F950104F1C2DD02C
:108FF000C9B221F0C00006AB4FEAD00E03EB0E075A
:1090000001F0070317F80C2C05FA03F31A421DD0E0
:109010002218890992F9302054F82220002A00F001
:10902000F080032900F0F0804FEA800E0EF1A04E90
:1090300017F814CCDEF800771CEA0303C7F30149E4
:1090400040F0B880B9F1030F00F0D7814FF0030A68
:109050004FF002094FF00108002794F95110481C05
:109060002DD0C9B221F0C00006AB4FEAD00C03EB03
:109070000C0E01F007031EF80C2C05FA03F31A423C
:109080001DD02218890992F9302054F82220002A94
:1090900000F0CA80032900F0CA804FEA800C0CF16E
:1090A000A04C1EF814BCDCF800E71BEA030FCEF35B
:1090B000014E40F09080BEF1030F00F08A8194F9D8
:1090C00052104A1C2CD0C9B221F0C00006AB4FEAA6
:1090D000D00C03EB0C0E01F007031EF80C2C05FA64
:1090E00003F31A421CD02218890992F9302054F84F
:1090F0002220002A00F08F80032900F08E804FEAA2
:10910000800C0CF1A04C1EF814ACDCF800E71AEA55
:10911000030FCEF3014E6AD1BEF1030F00F046817A
:1091200094F953104B1C2CD0C9B221F0C00006ABEF
:109130004FEAD00E03EB0E0201F0070312F80CCC3D
:1091400005FA03F31CEA030F1BD004EB000C89099A
:109150009CF930C054F82C90B9F1000F6ED003295F
:109160006ED04FEA800E0EF1A04E12F814CCDEF84D
:1091700000271CEA030FC2F3014211D1032A00F0B9
:10918000F580002F3FF425AF4FF0A043019AD3F8AC
:1091900010359A423FF41DAF029A0193039223E7E0
:1091A000022AEED1032900F04681B9F1000FE8D080
:1091B000C847E6E7B9F1020F7FF448AF032900F092
:1091C00043814FF0030A4FF001080027002A3FF4C3
:1091D00044AF904741E7BEF1020F7FF470AF03291F
:1091E00000F02C81002A3FF46AAF904767E7BEF198
:1091F000020F95D1032900F02481002A90D09047D6
:109200008EE703297FF422AF16F80EC04CEA030C58
:1092100006F80EC008E7032982D116F80CA04AEA26
:10922000030A06F80CA06AE703297FF448AF16F892
:109230000CB04BEA030B06F80CB02EE70329A0D1C3
:1092400016F80EC04CEA030C06F80EC089E700229F
:109250001A601B6805934FF0A043059AD3F81035A8
:10926000019346F0004694E600610040046100402E
:10927000086100400C610040106100401461004032
:10928000186100401C6100407C6100404C2C0020B3
:109290006F4AD2F8042312067FF576AE00221A60D8
:1092A0001B680493049B46F080066DE6684AD2F87A
:1092B000042351067FF563AE00221A601B680493F5
:1092C000049B46F040065AE6614AD2F80423900611
:1092D0007FF550AE00221A601B680493049B46F091
:1092E000200647E65A4AD2F80423D4067FF53DAE5D
:1092F00000221A601B680493049B46F0100634E6B3
:10930000534AD2F8042315077FF52AAE00221A60CB
:109310001B680493049B46F0080621E64C4AD2F8E9
:10932000042357077FF517AE00221A601B680493C9
:10933000049B46F004060EE6454AD2F80423920741
:109340007FF504AE00221A601B680493049B46F06C
:109350000206FBE53E49D1F8046316F001063FF42E
:10936000F0AD136013680493049BEAE503297FF4CE
:109370001CAF4FF40032DEF8003723F44033CEF850
:109380000037DEF800371343CEF80037B9F1000F8D
:1093900001D047460CE74FF0A043019AD3F81035AF
:1093A00093427FF4F9AE07B0BDE8F08F03297FF454
:1093B00024AF4FF40037DCF8003723F44033CCF807
:1093C0000037DCF800373B43CCF800374746C84647
:1093D00013E703297FF406AF4FF40037DCF80037BA
:1093E00023F44033CCF80037DCF800373B43CCF8AB
:1093F00000374746C846D146F4E6032906D0CA4698
:109400001F464FF002094FF00108DFE64FF4003726
:10941000DEF8003723F44033CEF80037DEF80037AB
:109420003B43CEF800374FF0040A4FF003094FF0EA
:1094300002080127CAE64FF440329CE74FF4403758
:10944000CCE74FF44037B6E74FF44037E0E700BFD2
:1094500000600040014B1B68184700BFA82C00208B
:10946000104B984201D00020704730B583B002A85D
:10947000002300F8013D0D46FEF752FA0A4B1C7915
:1094800034B19DF80700FEF771FA112003B030BD2A
:1094900001229DF807001D601A71FEF767FA204649
:1094A00003B030BD00200040A82C0020034B9842A0
:1094B00003D1034B00221A601A717047002000404C
:1094C000A82C002030B56E4AD2F8043399058BB031
:1094D0005BD5D2F82431002B57D00023C2F82431B9
:1094E000D2F8243103934FF40171664B0398C2F80C
:1094F000081393F8291009B901215160604902222B
:109500008DF81820D1F88024C1F880249869D96892
:1095100009920022089007919A6193E81200DA619B
:1095200006A8A047564AD2F81C31C3B1554B186A59
:109530005969884265D293F8280000F0FF0400289A
:109540005FD1C2F81C41D2F81C11029102999C68AB
:10955000186A196A205C01311962C2F81C05484A70
:10956000D2F844317BB10021464BC2F84411D2F805
:10957000440193F829100090009809B1012111606D
:109580009A69002A52D10BB030BD3D4AD2F804335B
:109590005B07C7D5D2F80831002BC3D0394B996986
:1095A000002952D00021C2F80811D2F80811049104
:1095B0000499D868596AD2F8182542545A6A9969A8
:1095C00001325A625A6A8A42ACD1DA69002A45D11C
:1095D00093F8292012B92A4A01215160284A4FF4F0
:1095E0000171C2F80813596ADA6808910024012051
:1095F00007928DF8180093E806009C6106A8904732
:1096000090E71F4A0020C2F81C01D2F81C210192E9
:10961000019A0029A3D09A688DF818000891586122
:10962000079206A893E80600904798E70022586A38
:10963000D9689A610122089007918DF8182006A830
:1096400093E8060090470BB030BDC2F80811D2F87D
:10965000080105900598D2F81825B3E7DD685C6A23
:1096600018699A6101210022D860DA615A628DF886
:1096700018100795089493E8060006A8904751E74C
:1096800000200040B02C00202DE9F041604E05790B
:109690002C2303FB056382B093F82A301BB108200A
:1096A00002B0BDE8F0810F4604465A490068904672
:1096B000FFF7D6FE18B1112002B0BDE8F0813A687C
:1096C000511C0BD04FF0A04101239340C1F8083545
:1096D0003B6803F5E073032241F823207B685A1CA2
:1096E00006D003F5E0734FF0A042002142F82310AA
:1096F0002368BA69C3F82425397D7B7D22680B4332
:10970000C2F86C3597E806002368C3F81425C3F83F
:109710000C153B7D012B51D02C2303FB05F3F218D4
:10972000C2F804803A69F250B8F1000F35D02368CE
:109730003A7F394F0021C3F81C11D3F81C31009334
:109740002368DDF800E0C3F84411D3F8441123681E
:1097500001910199C3F804732168090B4BB2002BE6
:109760004EDB03F1604303F561435201D2B283F84B
:1097700000232268120B42F3C40323F0604323F05A
:10978000030303F1604303F5614302F01F0201216B
:1097900001FA02F2C3F880211A602C23246803FB2B
:1097A0000563002204250121C4F8005583F82A101E
:1097B0009A61DA6183F829205A6171E7BB68591C04
:1097C00006D003F5E0734FF0A042002142F82310C9
:1097D000FB685A1C0DD001224FF0A04102FA03F39E
:1097E000C1F80835FB6803F5E073032241F8232034
:1097F000FB682268B968C2F80835C2F810158BE713
:10980000064B01F00F0152010B44D2B21A76B0E7B9
:10981000B02C0020C594020080000200FCEC00E0A7
:10982000F8B52F4D047902682C2303FB0453002163
:109830005B68C2F8001583B103682A4AC3F808239D
:109840000368294E1B0B5AB25209203203F01F0342
:10985000012101FA03F346F8223003684FF0FF328A
:10986000D3F80CE5D3F81475D3F80815D3F81065C0
:10987000C3F81425C3F80C2503689645C3F80825DA
:10988000C3F8102506D00EF5E07E4FF0A04302226B
:1098900043F82E207B1C06D007F5E0774FF0A0435D
:1098A000022243F82720721C06D006F5E0764FF01E
:1098B000A043022243F826204B1C06D001F5E0719C
:1098C0004FF0A043022243F821200068FFF7EEFD8D
:1098D0002C2303FB0454002384F82A306360F8BD72
:1098E000B02C00208402020000E100E0F0B5304E10
:1098F00005792C2303FB056385B05C6914B1112045
:1099000005B0F0BD1C62996083F828405A61026876
:10991000C2F81C41D2F81C11026802910121029F79
:1099200091600268D3F808E0C2F81C41D2F81C111B
:1099300001910199D3F820C0196A5F681EF80CC024
:1099400001311962C2F81CC517B1204605B0F0BD3F
:109950001A6A5C690168944203D819E093F82820D8
:10996000F2B9D1F81C21002AF8D0C1F81C71D1F845
:109970001C210392039AD3F820C01A6A1EF80CC067
:1099800001321A62C1F81CC51A6AA242E9D3016801
:10999000D1F81C31002BFBD00123CB60002000E06C
:1099A0000F202C2303FB056300225A61A8E700BFA8
:1099B000B02C002070B54A4BD3F8242188B0002A7F
:1099C00055D1D3F81011F1B9454BD3F8442152B118
:1099D0000020444AC3F84401D3F8444191690194FA
:1099E000019C002960D13E4BD3F820214AB10021CF
:1099F0003C4AC3F82011D3F8204150690094009CE0
:109A000030BB08B070BDC3F81021D3F81011354831
:109A1000039103998169D3F83C458C42D4D1C5693F
:109A2000002D50D0D3F80012C668856121F02001C6
:109A3000C3F800120369C26101220168C3608DF896
:109A40001840436805968DF8102004A89847BBE796
:109A5000D3F84C0593688DF818008DF810105161FB
:109A6000059304A892E80A00984708B070BD002149
:109A7000C3F82411D3F82421029202228DF8102079
:109A8000029AD3F88004174AC3F880040790D3F8E9
:109A90003C05D3688DF818009161D1610593116878
:109AA000536804A898478FE7D3F83C458DF81840D1
:109AB000D368906101240593116853688DF81040B4
:109AC00004A898478FE7C368016885610122059360
:109AD0008DF8184043688DF8102004A8984773E764
:109AE00000200040DC2C00202DE9F0430479704E6A
:109AF000E7003B1906EB830385B093F820301BB1D8
:109B0000082005B0BDE8F08389460546694900682C
:109B10009046FFF7A5FC18B1112005B0BDE8F08311
:109B2000D9F80020511C0CD04FF0A04101239340E4
:109B3000C1F80835D9F8003003F5E073032241F885
:109B40002320D9F804305A1C06D003F5E0734FF0F7
:109B5000A042002142F823102B68D9F81820C3F83E
:109B6000242599F8141099F815202B680A43C3F896
:109B70006C252A68D9F80030D9F80410C2F80C35E1
:109B8000C2F8141599F81430012B61D03A199200DB
:109B9000B318C3F80480D9F81030B350B8F1000FEF
:109BA00047D0296899F81C20DFF810E10023C1F89C
:109BB0001031D1F8101100912968DDF800C0C1F80A
:109BC0002031D1F8201101912968DDF804C0C1F8D5
:109BD0002431D1F8241102912968DDF808C0C1F8B8
:109BE0004431D1F844112B6803910399C3F804E37D
:109BF0002968090B4BB2002B51DB03F1604303F5DD
:109C000061435201D2B283F800232A68120B42F357
:109C1000C40323F0604323F0030303F1604303F51F
:109C2000614302F01F02012101FA02F2C3F8802110
:109C30001A603C442A6806EB8404002301250821AD
:109C400084F82050C2F80015A361E361636158E70E
:109C5000D9F80830591C06D003F5E0734FF0A04244
:109C6000002142F82310D9F80C305A1C0FD00122E1
:109C70004FF0A04102FA03F3C1F80835D9F80C30CF
:109C800003F5E073032241F82320D9F80C302A6849
:109C9000D9F80810C2F80835C2F8101576E7064B57
:109CA00001F00F0152010B44D2B21A76ADE700BFAA
:109CB000DC2C0020B5990200FCEC00E0100302004F
:109CC000F8B506792F4C0268F500AB1904EB830355
:109CD00000215B68C2F8001583B103682A4AC3F803
:109CE00008230368294F1B0B5AB25209203203F094
:109CF0001F03012101FA03F347F8223003684FF0F4
:109D0000FF32D3F80CC5D3F814E5D3F80815D3F80F
:109D10001075C3F80C25C3F8142503689445C3F8DF
:109D20000825C3F8102506D00CF5E07C4FF0A043C1
:109D3000022243F82C20BEF1FF3F06D00EF5E07E54
:109D40004FF0A043022243F82E207A1C06D007F5DC
:109D5000E0774FF0A043022243F827204B1C06D0A7
:109D600001F5E0714FF0A043022243F82120354471
:109D700004EB85040068FFF799FB002384F820308A
:109D80006360F8BDDC2C00201003020000E100E05D
:109D900001F06043B3F1005F01D010207047F0B5CF
:109DA0000579214EEF007C1906EB840483B06369CA
:109DB00013B1112003B0F0BDA1606261D0F800E0E2
:109DC000CEF82031DEF820C1D0F800E0CDF804C094
:109DD000DDF804C0CEF85831DEF858C1D0F800E004
:109DE000CDF800C0DDF800C0CEF84415CEF8482507
:109DF00002680121916062680AB11846DAE70368D7
:109E000000E079B9D3F82021D3F85811002AF8D00E
:109E1000002914BF0F2000207B1906EB83030022CA
:109E20005A61C7E70F20F7E7DC2C0020F0B5047972
:109E3000834B4FEAC40E03EB0E0589B02D7915B1A3
:109E4000082009B0F0BD43F834200D78FF2D00F054
:109E5000C98025F080022F06049200F1E9800125D7
:109E60004FF0A0469540C6F80C5502F5E0724FF051
:109E7000A045032645F822604D78FF2D00F0BE80F6
:109E800025F080022E06059200F1CB8001254FF0CF
:109E9000A0469540C6F80C5502F5E0724FF0A0457B
:109EA000032645F822608D78FF2D00F0A38025F071
:109EB00080022D06069200F1AD8001254FF0A046EC
:109EC0009540C6F80C5502F5E0724FF0A045032608
:109ED00045F82260CD78FF2D00F0888025F08002C3
:109EE00015F0800F4FF0A0464FF0010505FA02F57E
:109EF000079214BFC6F80855C6F80C5502F5E07273
:109F00004FF0A045032645F822600268049F059E95
:109F1000069DC2F86075C2F86465C2F86855079D71
:109F2000C2F86C5502680125C2F8005502688E79A6
:109F30000D894F79C2F80C75C2F80465C2F808554E
:109F400002684D89C2F8105505680022C5F8002244
:109F50000568C5F800230568C5F81C21D5F81C6103
:109F600005680496049EC5F81021D5F810610568AF
:109F70000396039EC5F81421D5F81461056802966E
:109F8000029EC5F8042153F83420D5F80441019409
:109F9000019C0AB304680A79240B61B2002931DB01
:109FA00001F1604101F561415201D2B281F8002313
:109FB0000168090B41F3C40222F0604222F003025F
:109FC00002F1604202F5614201F01F01012000FA36
:109FD00001F1C2F8801111607344012200201A714E
:109FE00009B0F0BD4FF0FF32049245E74FF0FF3269
:109FF00007928AE74FF0FF3206926BE74FF0FF328D
:10A00000059250E70F4904F00F0452012144D2B2E7
:10A010000A76CDE701254FF0A0469540C6F80855D1
:10A0200051E701254FF0A0469540C6F8085533E7A3
:10A0300001254FF0A0469540C6F8085515E700BF2A
:10A04000002D0020FCEC00E0F0B504680E680579F6
:10A05000C4F820658E88C4F824658E68C4F8286525
:10A06000CE68C4F82C6504680E68C4F840658E8814
:10A07000C4F844658E68C4F84865C968C4F84C15CE
:10A08000046802F0010101EB5202C4F81425DA075A
:10A0900083B03ED413F002023DD1046800290CBF06
:10A0A00008260C26C4F80022D9B2244C04EBC502C1
:10A0B00054F83540517102251571D4B101F00402F4
:10A0C000002A01F0080E0FBF2A461222B225922460
:10A0D00011BF3227A22582242227BEF1000F1CBF08
:10A0E0003A462C46056811F0100F08BF2246C5F805
:10A0F000002301680022C1F80421D1F80411019164
:10A100001B06019916D4036801211046995103B02A
:10A11000F0BD1022C1E731B102680821C2F8001277
:10A120000C26D9B2C1E702680421C2F80012082641
:10A13000D9B2BAE70068304403B0F0BD002D00206A
:10A1400000B52A4BD3F8102185B052B10021284A1E
:10A15000C3F81011D3F810115379039103995907DB
:10A160003ED4224BD3F8142152B10021204AC3F827
:10A170001411D3F81411537902911B07029929D4B1
:10A180001A4BD3F81C215AB10021194AC3F81C11EB
:10A190005079D3F81C31019310F01000019B14D0BA
:10A1A000124BD3F804216AB10021114AC3F80411FB
:10A1B000D3F80411136800910121009811710BB1BB
:10A1C0000320984705B05DF804FB1368002BE7D027
:10A1D0009847E5E71368002BD2D002209847CFE7D5
:10A1E0001368002BBDD001209847BAE700C001409A
:10A1F000002D002072DF704773DF704776DF7047F5
:10A200007ADF70477CDF70477FDF70478FDF7047F2
:10A21000B1DF7047FDF704B808B5037803B108BD96
:10A22000054B3B211888FFF7E9FF0028F7D0BDE870
:10A230000840FCF7F5BF00BFE2220020022801D051
:10A24000FCF7EEBF104B1148C01AC008000410B54F
:10A2500040F003000C460E49FCF76AFB0D4B0E491B
:10A260001888224601F0A2FB30F008020BD043F21E
:10A270000202904207D043F20142904203D0BDE86F
:10A280001040FCF7CDBF10BD68CC020098CC020096
:10A2900044C60200E22200206C2D0020FCF7C0BF63
:10A2A00010B50388103B82B00446462B46D8DFE841
:10A2B00003F06724458345454545454545454545A6
:10A2C0004545455145454545454545454545454532
:10A2D000454545454545454545454545454745452C
:10A2E000454545454545454545454545454545451E
:10A2F000454545455D4545454700364B3648374958
:10A30000C01AC008000440F00300FCF711FB022053
:10A31000FEF7B8FA324B4FF6FF721A80FCF766FF71
:10A3200008B1FCF77DFF2F4B01211878FFF764FF80
:10A3300008B1FCF775FF0020FEF798FA02B010BDD7
:10A3400080881321FFF75AFF0028F7D0FCF768FF39
:10A3500002B010BD002380888DF8043001A98DF86B
:10A360000530FFF753FF0028E8D0EFE71C4A002331
:10A37000108819461A46FFF74BFF0028DED0E5E7A4
:10A38000144B15481849C01AC008000440F00300D7
:10A39000FCF7CEFA0220FEF769FA0020FEF772FA07
:10A3A0000F4BA1881148198001F000FA70B9FCF731
:10A3B00007FF0028C2D0C9E7094A00231088852179
:10A3C0001A46FFF721FF0028B8D0BFE7FCF728FFA7
:10A3D000EDE700BF68CC020098CC020034C6020052
:10A3E000E2220020E022002028C60200842D002066
:10A3F000F0B5022A85B014464348444B59D0032A8D
:10A4000033D0012A09D0C01AC0080004404940F0E6
:10A410000300FCF707FB05B0F0BDC01AC00800043C
:10A420003C493D4E40F00300FCF782FA4FF0A04358
:10A430004FF400624FF48051C3F808250025C3F89B
:10A440000C154FF42F772246022369463348ADF8A6
:10A4500004400096378002950395FFF7F5FD00282C
:10A46000D9D0FCF7DDFE05B0F0BDC01AC00800046D
:10A470002B49294E40F003000125FCF759FA00242E
:10A48000264800962A4602236946348002940394A3
:10A49000ADF80450FFF7D8FD90BB4FF0A0434FF448
:10A4A00000614FF48052C3F80C15C3F80C2505B0B9
:10A4B000F0BDC01AC00800041A49174E40F003004E
:10A4C000FCF736FA4FF0A0424FF400634FF480518E
:10A4D0000125C2F80C354FF42F77C2F80815234632
:10A4E0002A46002469460D4800963780ADF804508E
:10A4F00002940394FFF7A8FD0028B2D105B0F0BD87
:10A50000FCF78EFEC9E700BF98CC020068CC0200C1
:10A51000B8C6020060C60200902D0020E422002090
:10A520009CC6020080C6020000B5094B93E80700F4
:10A5300085B001AB83E80700194600220548FFF704
:10A5400075FC08B1FCF76CFE05B05DF804FB00BFBC
:10A550001CC60200E422002030B50A4B85B001255C
:10A560001880002400932A46022369460648ADF865
:10A57000045002940394FFF767FD08B1FCF750FE06
:10A5800005B030BD902D0020E422002080B54FF4AE
:10A590000041A6B00020FCF735F808B1FCF740FEFA
:10A5A000FBF7B4FF0120FEF779F9FDF7C1F808B118
:10A5B000FCF736FE40F2666201217F48FCF7A8FDF9
:10A5C00008B1FCF72DFEFDF7D3FE08B1FCF728FE1D
:10A5D0004FF0A0440323C4F82C37C4F83037FFF7FA
:10A5E000A3FF0020FFF7B8FF4FF400634FF4805241
:10A5F000C4F80C350023C4F80C25179301F0F8F9C2
:10A6000008B1FCF70DFE17A9012001F0CBFA08B143
:10A61000FCF706FE17A801F081FB08B1FCF700FE6D
:10A620009DF820306548012262F3030326AD62F3F2
:10A63000071305F8783D01F052FC604982B22846C4
:10A64000FFF7E0FD08B1FCF7EBFD0822002117A899
:10A6500001F03DFC5A4B179317A84FF0C87318939D
:10A66000FFF7CEFD08B1FCF7DBFD0021554800F0F7
:10A670003DFF08B1FCF7D4FD0022534B534808922C
:10A6800017A9179301F080F808B1FCF7C9FD504BEA
:10A6900050480893294601F027F908B1FCF7C0FD9E
:10A6A0003C220021284601F012FC3C22002117A880
:10A6B00001F00DFC474B484C484E9B7C484F8DF8B1
:10A6C000063028461F2302253146A760266041F246
:10A6D0002357A380A381062601238DF82050221D35
:10A6E00001ADADF804708DF82230ADF86C308DF806
:10A6F00023601C9500F0E8F808B1FCF791FDA16813
:10A70000384A17A800F0E0F808B1FCF789FD1822D4
:10A71000002102A801F0DBFB01240023402502AA4E
:10A720002D4931488DF81D408DF80840ADF81430A2
:10A7300003938DF81C300495FFF75CFD08B1FCF71E
:10A740006FFD1C22002117A801F0C1FB4FF4202649
:10A7500000234FF4203503242449254A179317A8D2
:10A76000ADF86A308DF86C30189619958DF8684000
:10A770001C911D9200F0D8FB08B1FCF751FD1D4B58
:10A780001D481E49C01AC008000440F00300FCF731
:10A79000CFF8154B01211878FFF72EFD08B1FCF713
:10A7A0003FFD0020FEF762F8FBF78AFF0028FBD18F
:10A7B000FDF7F4FDF8E700BFD8220020D4C6020060
:10A7C0005000A000582D00209DA20200842D0020E2
:10A7D000F1A302006C2D0020482D0020082D002040
:10A7E000282D0020542D0020E022002019A2020074
:10A7F00015A2020068CC020098CC0200E0C602005C
:10A800006DDF704779DF70477DDF704764DF704729
:10A810002DE9F04F83B004880C9FBDF83490B7F851
:10A8200000A0002C4CD09846002316468B460546C7
:10A830001C4603E02A880134A24224DD6A6852F8EB
:10A840002400019000220DF1030101A8FFF7DEFFB3
:10A8500010BB9DF80320B242ECD103B33A889319A0
:10A860004B4518DC42440DF1030101A80123FFF719
:10A87000CDFF88B939889DF803200A443A802A8898
:10A880000134A242DADCDBB13B88013BA3EB0A03D3
:10A890009BB2FF2B12D90C2003B0BDE8F08F3B8890
:10A8A0005A1C334402334B4592B2F4DC3A8008F828
:10A8B00002B03A88013292B23A80D3E708F80A30FF
:10A8C000002003B0BDE8F08F2DE9F0470023178882
:10A8D000138090F82D3086B0144605460E46002BA6
:10A8E00049D1AA78002A70D1EA78002A2ED16A6864
:10A8F000A2B1D91CB94225D8022192F90020F15405
:10A90000238801339BB20A212380F1542388013329
:10A910009BB22380F2542388013323802B89002BA0
:10A9200040F030812B8A002B40F045812B8B002B8F
:10A9300040F05A812B6A002B00F0A7802288911DDD
:10A94000B94262D90C2006B0BDE8F087D91CB942E3
:10A95000F8D80221F154238801339BB201212380CE
:10A96000F15423880B449BB22380F25423880B4478
:10A970009BB22380BBE7082FE4D904A8FFF740FF70
:10A980000028E0D113880822CA54238801339BB2DF
:10A990001B222380CA542088013080B220800622E6
:10A9A00008440DF1110101F087FA23889DF8102069
:10A9B00006339BB212F0FE0218BF01222380F2542C
:10A9C000238801339BB223808BE70433BB42B9D881
:10A9D00004A8FFF717FF0028B5D12388BDF8102081
:10A9E0000321F154238801339BB219212380F154B0
:10A9F000238801339BB2F1182380F254120A4A7063
:10AA0000238802339BB223806EE71988052940F220
:10AA1000B5806FF4486801EB080080B24FF27D3ECC
:10AA2000704540F2AB805888052840F2A7806FF44B
:10AA3000486C84441FFA8CFCF44540F29F804FF62A
:10AA4000FF7E714504D0704502D0814200F29680AD
:10AA50000521B1542288013292B212212280B154D0
:10AA60002288013292B222801988B1543244090AF4
:10AA700051702288023292B222805B88B3543244F1
:10AA80001B0A53702388023323806B6A002B30D05B
:10AA90009888B4F800E0811C0EF102020A44BA4220
:10AAA0003FF650AFFE293FF64DAF033006F80E00DB
:10AAB0002288013292B2FF212280B15422880132D1
:10AAC00092B222801988B1543244090A5170208808
:10AAD000023080B220809A885AB199680393002985
:10AAE0004CD0304401F0E8F9039B9A882388134442
:10AAF000238095F82C30002B40F08F802878002898
:10AB00003FF421AF2B88012B38D023889A1CBA42FE
:10AB10003FF618AF012805D16978023119448F42F8
:10AB2000FFF410AF023FFB1A06A99BB221F8083DC3
:10AB3000B018FFF769FE00287FF405AF2A78022AD3
:10AB400000F0BB806878BDF810108842C0F0B1807A
:10AB50008B42C0F0AE800B460921FE2B3FF6F2AED1
:10AB60002288581CB0542288013292B22280B154FB
:10AB700022880132134423800020E4E6072006B037
:10AB8000BDE8F08705F1080802228DE890004046F4
:10AB900011463346FFF73CFE00287FF4D4AE8DE823
:10ABA00090004046334610220621FFF731FE002870
:10ABB0003FF4B8AEC7E605F110088DE890004046B6
:10ABC000334602220321FFF723FE00287FF4BBAEA9
:10ABD0008DE890004046334610220721FFF718FE0B
:10ABE00000283FF4A3AEAEE605F118088DE890000A
:10ABF0004046334602221421FFF70AFE00287FF464
:10AC0000A2AE8DE890004046334610221521FFF792
:10AC1000FFFD00283FF48EAE95E6D5F82880B8F108
:10AC2000000FABD0B8F804200232FE2A3FF68AAEFD
:10AC300023884FF000094FF0160A0132F25423889E
:10AC400001339BB2238006F803A0238801339BB213
:10AC50002380B8F80020F2543344120A5A70238833
:10AC600002339BB22380B8F80410F0180A4661B191
:10AC7000D8F808301946002B80D001F01DF9B8F83B
:10AC80000420238813449BB2238009F1010995F81D
:10AC90002C205FFA89F94A4509EB49087FF62EAF67
:10ACA000AA6A02EB8808B8F804200232FE2AC4D946
:10ACB00048E6012A08D008214FE7BDF8102093424A
:10ACC000F9D31346092148E78342F4D30346082108
:10ACD00043E700BF75DF704776DF70477ADF704764
:10ACE0007BDF704730B51D4B1A8885B2AA4283B00E
:10ACF00001D003B030BD1A4C187A217B88420FD3A3
:10AD0000227C00211972BAB96369002BF1D00022AC
:10AD1000ADF806508DF8042001A8984703B030BD67
:10AD2000104603F10A01FFF7D5FF88B11128E0D0E2
:10AD3000A369002BF1D1DCE73B212846FFF7CCFFCC
:10AD400030F00803E0D0A369002BDDD09847DBE7A3
:10AD50001A7A01321A7203B030BD00BFB02D002044
:10AD6000942D0020F0B50288112A83B003463ED00E
:10AD70002BD9122A08D0502A04D1684DC188EA89FB
:10AD8000914246D003B0F0BD654C82882188914243
:10AD9000F8D1E189B1F5FA7F61D200265889658939
:10ADA000854248D8A589854245D39B899E4242D891
:10ADB00001F2F31199423ED3584B5B690121002007
:10ADC00061722072002B78D1DCE7102ADAD1C27BC5
:10ADD000012AD7D1524C21884FF6FF72914242D0BE
:10ADE0004E4B9B69002BCDD004209847CAE74C4CB2
:10ADF000828823889A42C5D16068FCF755FD18B156
:10AE0000464B9B6903B198474FF6FF73238003B00D
:10AE1000F0BD028A022AB5D1414C86882788BE42FD
:10AE2000B0D1123000F05AF900285AD16068FCF70E
:10AE30003BFD70B9A6E7394D267A6B68A968606852
:10AE4000002E08BF194600236372FCF7D7FC0028C8
:10AE500098D0AB69002B95D0984703B0F0BD6FF444
:10AE6000F9700E189AE72F4D8288228003CDC4F81E
:10AE70000E10E589C4F80A000021B5F5FA7F2172A9
:10AE800002D36FF4F976A919588A668986421AD8CE
:10AE9000A689864217D39B8A8B4214D305F2F315F9
:10AEA0009D4210D31D4BD8890121617200287FF487
:10AEB00069AF5B69002B3FF465AF8DF80410ADF806
:10AEC000062001A8C8E7154DEB8900216172002B0F
:10AED0007FF458AF60686968FCF790FC0028B8D12F
:10AEE00050E7637A63B96B68A968277A606832466D
:10AEF000002F08BF1946FCF781FC0028A9D141E7C3
:10AF00006B6900222272002B3FF43CAF0122ADF8A6
:10AF100006708DF8042001A8984733E7942D00208F
:10AF2000B02D0020C42D002050B3F8B505460646CC
:10AF30000FCD174F3C460FC4864695E80700154BCA
:10AF40003B6084E80700BEF1000F1BD07046FFF79E
:10AF5000C5FEA0B932681068516803C30E4B0F4993
:10AF60000F4A18464FF6FF7440F8041F1C8000215A
:10AF7000FCF732FC002814BF03200020F8BDF8BD08
:10AF80000E2070471846FFF7ABFE0028E6D0F8BD4C
:10AF9000942D0020C42D0020B02D0020CC2D0020A9
:10AFA000E5AC02002DE9F04F0388B0F804A0112BA6
:10AFB00099B073D01A2B81465FD0102B02D019B0F4
:10AFC000BDE8F08F3D4A936818A8DB4340F8603D28
:10AFD0005168FCF71BFD009B0193019B8BB34FF065
:10AFE00000084446214601A8FCF7ECFC30B118AB40
:10AFF00003EB480308F1010823F8284C0134142C12
:10B00000F0D1CDF834800DAD0FCD02AC0FC40FCD13
:10B010000FC495E8070084E80700B8F1000F10D0CE
:10B02000274E0DF10A0B00273BF8025F254C204606
:10B0300029460434FCF7BCFCA642F8D10137474549
:10B04000F2D1BAF1130F05D90420FCF7E9F819B0D1
:10B05000BDE8F08F51461C48FCF7A0FC514619484A
:10B06000FCF79CFC99F80F30012BA8D051461748EB
:10B07000FCF794FC19B0BDE8F08F047A1448240959
:10B08000012C514611DDFCF789FC022C5146114878
:10B090000FD0FCF783FC19B0BDE8F08F51460A4889
:10B0A000FCF786FC19B0BDE8F08FFCF781FC09487D
:10B0B0005146FCF77DFC19B0BDE8F08FEC2D002067
:10B0C000642E0020F02D0020F42D0020F82D00200B
:10B0D000FC2D0020002E0020AADF7047007800F031
:10B0E00001007047F0B58B7891B0002B0C460988B1
:10B0F000ADF80C1008BF012305461646684603222A
:10B1000000218DF80E3000F0E2FE9DF80020637CF7
:10B1100002F0F0026FF30712013B8DF80020042BC0
:10B1200010D8DFE813F020012A01050035011601CF
:10B130009DF80030012262F30303032262F3071338
:10B140008DF800309DF80120A37C02F0F0026FF32F
:10B150000712013B8DF80120042B10D8DFE813F013
:10B160002D0137010500EE0023019DF80130012279
:10B1700062F30303032262F307138DF801309DF895
:10B180000230E77B227D207C217B67F3C303002A0A
:10B1900060F3041314BF0222012261F3000362F37F
:10B1A000420309A81C2200218DF8023000F08FFE16
:10B1B000637B13F0300F40F08F80627BA37B8DF8B0
:10B1C00024200021142204A88DF8253000F07FFEF1
:10B1D000A368A288CDF814D003A90491ADF81C206F
:10B1E0001BB1E2880893ADF81820A369002B44D066
:10B1F00001AF03220021384600F069FEA2699DF8E4
:10B2000004101388ADF82C305388ADF82E305068F8
:10B210000D97137B0A9001F0F0016FF30711013BCA
:10B220008DF80410042B3DD8DFE813F01B01250135
:10B230003200F20011019DF80530012161F3030392
:10B24000032161F307138DF80530917A9DF80630DC
:10B2500061F3C3038DF80630D17A61F304138DF8DE
:10B260000630117A927B002A61F3000314BF022298
:10B27000012262F342038DF80630E36903B10C93B7
:10B28000334604AA09A92846FFF726FF11B0F0BDEE
:10B290009DF80430012161F30303032161F30713D7
:10B2A0008DF804309DF80510537B01F0F0016FF329
:10B2B0000711013B8DF80510042BC6D801A151F8E8
:10B2C00023F000BF3BB40200FBB3020037B2020020
:10B2D000E5B3020027B40200032202A8002100F017
:10B2E000F6FD9DF80920E37C02F0F0026FF30712EF
:10B2F000013B8DF80920042B0ED8DFE803F0D1DBE9
:10B3000003E6C7009DF80930012262F3030303221C
:10B3100062F307138DF809309DF808309DF80A1084
:10B3200002AA0E92012262F3030362F3071362F38F
:10B3300042018DF808308DF80A103EE79DF8013083
:10B34000022262F30303012262F307138DF8013036
:10B3500015E79DF80030022262F3030362F307133E
:10B360008DF80030EEE69DF80030012262F3030311
:10B3700062F307138DF80030E4E69DF800300122F7
:10B3800062F30303022262F307138DF80030D9E65B
:10B390009DF80030022262F30303012262F30713D7
:10B3A0008DF80030CEE69DF80130022262F30303EF
:10B3B00062F307138DF80130E1E69DF801300122B8
:10B3C00062F3030362F307138DF80130D7E69DF8AB
:10B3D0000130012262F30303022262F307138DF8A6
:10B3E0000130CCE69DF80530022161F30303012111
:10B3F00061F307138DF8053027E79DF8053001212B
:10B4000061F30303022161F307138DF805301CE794
:10B410009DF80430022161F30303012161F3071356
:10B420008DF804303EE79DF80530022161F30303F7
:10B4300061F307138DF8053007E79DF8053001210A
:10B4400061F3030361F307138DF80530FDE69DF802
:10B450000430022161F3030361F307138DF8043014
:10B4600020E79DF80430012161F3030361F3071322
:10B470008DF8043016E79DF80430012161F30303D1
:10B48000022161F307138DF804300BE79DF80930B2
:10B49000022262F3030362F307138DF809303BE7DE
:10B4A0009DF80930012262F3030362F307138DF85C
:10B4B000093031E79DF80930012262F303030222CB
:10B4C00062F307138DF8093026E79DF80930022250
:10B4D00062F30303012262F307138DF809301BE7BF
:10B4E00090DF7047A5DF7047B5DF704788B110B4B3
:10B4F0001B224FF01714002301610460C0F80640BE
:10B500000271027342738372C3725DF8044B184672
:10B5100070470E20704700BF70B5858884B02DBB82
:10B520000388232B0C4600F0C78021D93A2B00F06A
:10B53000B180552B71D0242B00F09880A37AABB149
:10B54000E1880020FFF7CEFF002800F08B80112853
:10B550000CD0FCF76FFF834A834B84499B1ADB08AE
:10B560001B04024643F00100FBF75CFA04B070BD17
:10B57000102B0BD0112BE1D11B234FF017128D7222
:10B58000CD72C1F806200B734B73EFE70B790B7389
:10B59000C27B012A00F0AC80022A00F0A680C98894
:10B5A00022898A42C0F0A780627B9A42C6D20025D7
:10B5B0009BB228466A4602A9ADF80830ADF80A30B9
:10B5C000ADF80C50ADF80E500095ADF80450FFF7F3
:10B5D00087FF0028B2D0634B634EF61AF608FCF7DB
:10B5E00029FF360446F0010603462A4630466049E4
:10B5F000FBF792FABDF80020BDF8023002B91BB18A
:10B600005C493046FBF788FABDF80420002A95D043
:10B6100030465949FBF706FA90E7C388C988A572F6
:10B62000172B38BF17238B4228BF0B462846238190
:10B63000FFF75AFF002866D1E37A002B7FF47EAF34
:10B640002269002A3FF47AAF2189ADF80A3040F62A
:10B650007720ADF80800ADF80C10204602A99047FD
:10B66000A37A6CE70122A072E2727FE70B69027A8B
:10B670004A73002B3FF462AF4DF67A200295ADF885
:10B680000C50ADF8080002A98DF80C202046984710
:10B69000A37A54E74389C98822698B4228BF0B46A5
:10B6A000172B38BF1723238112B1E17A002938D133
:10B6B0000023E372A37259E7037A0A7BADF80C50BA
:10B6C000934228BF134602A96A462846ADF80E5099
:10B6D0000095ADF80830ADF80A30ADF80450FFF72A
:10B6E000FFFE00283FF42AAF75E74988E18057E75D
:10B6F0000988E18054E70020FFF7F4FEE8B9012350
:10B70000E372237B50E7FCF795FE164A164B1B4964
:10B710009B1ADB081B04024643F00100FBF782F989
:10B720008AE740F67721ADF80810ADF80A50ADF879
:10B730000C3002A920469047BAE7112803D1012313
:10B74000A372237B30E7FCF775FE064A064B0749D8
:10B750009B1ADB081B04024643F00100FBF762F969
:10B76000237B21E768CC0200A8CC0200D4C70200EA
:10B77000F0C602003CC702007CC7020008C80200F5
:10B78000B0DF704766DF704770B169B10378DE2BB8
:10B7900008D00B684360DE224FF6FF7302704380CF
:10B7A00000207047082070470E20704720B10378B2
:10B7B000DE2B03D0082070470E2070474180002008
:10B7C000704700BF19B110B10B78DE2B00D0704765
:10B7D00030B505464B888088984285B00C4626D007
:10B7E0002B88012B13D005B030BD0021FFF7CAFF15
:10B7F0000346002845D0112842D0636898472B881B
:10B80000112B35D0512B3ED0012BECD1A8882B7AAF
:10B81000012BE8D162888242E5D123720021FFF733
:10B82000B1FF002841D011281FD12372DBE70B7A2A
:10B83000002BDAD12B88112B1ED0512BD1D1AB7913
:10B84000022BD0D1AA7B02F0FD01042920D0052AC9
:10B85000C9D100220092694601928DF8003002920F
:10B860000392FFF78DFF0028BDD063689847BAE7C1
:10B87000AA8863889A42B6D14FF6FF736380B2E715
:10B8800001232372BBE76088AB888342D7D0AAE745
:10B8900000224FF4C0750192009269460292039211
:10B8A0008DF80030ADF80450DBE720729BE700BF55
:10B8B000A8DF7047AEDF704762DF70470388502B08
:10B8C00006D110B44B88C4889C4202D05DF8044B6A
:10B8D0007047038A012BF9D14B69002BF6D0827C8B
:10B8E0005DF8044B80881847F0B52F4B0E6805466D
:10B8F0000FCB8FB002AC84E80F006E61204605F1DB
:10B900001201FFF7D9FF08B10FB0F0BD0EA941F247
:10B91000235321F8343D2A46AB7C8DF806300120B4
:10B92000FFF7C6FF0028EFD10146202206A800F04D
:10B93000CEFA9DF82530AA7C8DF81A20012443F018
:10B94000120341F224574FF0011628888DF8253054
:10B9500006A905F10A02ADF8187007968DF829407E
:10B960008DF82B40FFF7BEFB0028CDD101462022E9
:10B9700006A800F0ACFA9DF82530AF7C079643F09E
:10B980000A0341F2255628888DF8294006A9AA1CE9
:10B990008DF82A408DF82530ADF818608DF81A70B2
:10B9A000FFF7A0FBB0E700BF48C8020070B588B041
:10B9B0000E4605468DF80720012404A81022002118
:10B9C000ADF80E4000F083FA7389ADF810300DF138
:10B9D00007020DF10E0304A928468DF812400792C4
:10B9E0000693FFF767FF08B070BD00BF10DF704718
:10B9F00070B53C4D2B7884B01BB10824204604B0B0
:10BA000070BD394E3949012302A83370FCF7FCFCA4
:10BA1000039B2BB90CE002A8FCF700FD039B3BB194
:10BA20001A685968002090470028F4D10446E5E7D9
:10BA30002F4902A8FCF7E8FC039B4BB11A68596830
:10BA40000020904702A8FCF7E9FC039B002BF5D1EE
:10BA5000284A002312688DF8083002A80192FBF7EB
:10BA60005FFF254901A8FFF7C1FFB0FA80F3044644
:10BA70005B099DF808002B70FBF778FF002CBDD107
:10BA80001E4B1F493470E0220C7083F8162383F894
:10BA9000152393F81613EC2249090A41D20717D54A
:10BAA000184A9168C9B94FF480021A60104902A877
:10BAB000FCF7AAFC039B002BA0D01A685968012050
:10BAC000904702A8FCF7AAFC039B002BF5D195E751
:10BAD00042F20200FBF7A4FBE8E7136843F480039B
