:020000022000DC
:1060000000000120E1620200096302000B6302004C
:106010000D6302000F630200116302000000000024
:1060200000000000000000000000000013630200F8
:1060300015630200000000001763020019630200EC
:10604000859002001B630200399902001B63020065
:106050001B6302001B630200119402001B63020019
:106060001B6302001B6302001B6302001B63020030
:106070001B6302001B6302001B6302001B63020020
:106080001B630200B57302001B6302001B63020066
:10609000557402001B630200F9D102001B63020069
:1060A0001B6302001B6302001B6302001B630200F0
:1060B0001B6302001B6302000000000000000000E0
:1060C0001B6302001B6302001B6302001B630200D0
:1060D0001B6302001B6302001B6302000000000040
:1060E00000000000000000000000000000000000B0
:1060F00000000000000000000000000000000000A0
:10610000000000000000000000000000000000008F
:10611000000000000000000000000000000000007F
:10612000000000000000000000000000000000006F
:10613000000000000000000000000000000000005F
:10614000000000000000000000000000000000004F
:10615000000000000000000000000000000000003F
:10616000000000000000000000000000000000002F
:10617000000000000000000000000000000000001F
:10618000000000000000000000000000000000000F
:1061900000000000000000000000000000000000FF
:1061A00000000000000000000000000000000000EF
:1061B00000000000000000000000000000000000DF
:1061C00000000000000000000000000000000000CF
:1061D00000000000000000000000000000000000BF
:1061E00000000000000000000000000000000000AF
:1061F000000000000000000000000000000000009F
:1062000010B5054C237833B9044B13B10448AFF3F0
:1062100000800123237010BDB02E0020000000007C
:1062200018F902000C4B43B10C480D4910B5AFF3FF
:1062300000800C48036823B910BD0A48036833B9CD
:106240007047094B002BF7D0BDE810401847064BAC
:10625000002BF5D0184700BF0000000018F902001D
:10626000B42E0020A82E002000000000154B002BAB
:1062700008BF134B9D46A3F5803A00218B460F467D
:106280001348144A121A07F0CBF90F4B002B00D019
:1062900098470E4B002B00D09847002000210400A7
:1062A0000D000D48002802D00C48AFF3008007F025
:1062B00059F92000290004F0E3FF07F03FF900BF7F
:1062C00000000800000001200000000000000000A5
:1062D000B02E0020E440002000000000000000007C
:1062E0000649074A074B9B1A03DD043BC858D050A8
:1062F000FBDC02F005FBFFF7B9FF000014FA020017
:10630000E0290020B02E0020FEE7FEE7FEE7FEE7D2
:10631000FEE7FEE7FEE7FEE7FEE7FEE7704700BFA9
:1063200000B583B0044B0093044A402300F036F8D4
:1063300003B05DF804FB00BF41630200D02E0020D3
:1063400002B32DE9F843114B114E8846144643F031
:10635000010903270025224608EB0501002005F06E
:1063600053F803461D444FF47A40E41A23B93378B6
:1063700033B1C847013F06D001233370002CEAD166
:10638000BDE8F88370473770BDE8F88390E80200F5
:10639000CC2E0020704700BF05F0FAB8F0B595B0DC
:1063A000002415460F4608461E4602F005F93846F9
:1063B00023460822089505A91A9D09960D950A9469
:1063C0008DF82C400C9402F053F99DF81430079886
:1063D00006998DF8114003F00302012A02900391FF
:1063E00028D0022A04D0384602F0EAF815B0F0BDF1
:1063F000BDF81650C3F3C2038DF81030C5F38915EC
:106400000826082D2C4628BF0824334622460EA90C
:10641000384602F02DF92D1B214608AB02AA0EA822
:10642000264400F049FD002DEBD1384602F0C8F8B3
:1064300015B0F0BDBDF81460059DC6F38316C3F317
:10644000C204B2000EA9384608238DF81040C5F3E7
:10645000952502F00DF908AB0093324628460EA9A7
:1064600002AB00F083FCBEE708B5FFF795FF0421FF
:10647000034800F033FC034B01225A7108BD00BFF2
:10648000FCF90200E0290020F0B5334D85B005F598
:10649000836001F09DFC05F2144001F099FC6B68EB
:1064A000AE6803EA0600C11C05EB810215F8214025
:1064B00014F004040ED0117801F0030101293BD03F
:1064C000022903F1020700F1030126D005EB810246
:1064D000002CF0D105EB80005A1CC16801913240BC
:1064E00005EB820201F00301D2680292012903F157
:1064F000020429D0022925D1BDF80630BDF80A6072
:10650000C3F38913033304EB9304144801F06EFCC6
:1065100000B16C60304605B0F0BD538807EB9313B3
:1065200006EA0300C11C05EB810215F8214004F0C6
:106530000404002CBFD1CDE711880233C1F38311CD
:106540000B44EDE70026E0E7BDF80430BDF80A6033
:10655000C3F383131C44D8E7E02F0020F43300205A
:106560000B4B0C4810B50022FF21C3F8182499608A
:106570001A605A60C3F8142483F8202401F0D2FF73
:10658000044610B9044802F049F9204610BD00BF86
:10659000E02F0020A0F90200B4E8020021B9114B5D
:1065A00003EBC0000068704730B40F4A0D4C121B5B
:1065B000D2080CD00D4D2B88834210D0002303E06D
:1065C00035F82310814205D001339A42F8D10020DA
:1065D00030BC704704EBC300006830BC70472046F5
:1065E000FAE700BF28F90200A0F90200AC2E002053
:1065F000094B013903EBC00003290BD8DFE801F098
:1066000002080604022070474079704700797047FD
:10661000042070470020704728F902002DE9F04758
:10662000944C94E80C009A4284B000F0BB800023A4
:10663000C4F81834BFF34F8F6368A56803EA0501F7
:10664000CA1C04EB820614F8222050071AD52768CA
:10665000327802F00302012A44D0022A03F1020236
:1066600002D1738802EB931305EA0301D4F81804EE
:10667000CA1C04EB820628B99F4239D914F822209B
:106680005207E5D404EB81015A1CC96801912A40E4
:1066900004EB820201F00301D2680292022903F1A5
:1066A000020829D0012900F08180D4F810543DB1AE
:1066B0002B6828469B689847EB681D68002DF7D12A
:1066C0006D486E4B6E49C01AC008000440F00200CD
:1066D00000F0DCF860682368C01A18BF012004B01D
:1066E000BDE8F08732880233C2F383121344BBE75C
:1066F000676004B0BDE8F087BDF806306148C3F3B9
:1067000089194F46502FA8BF502767F38F1307F101
:106710000801ADF8063001F007FF06460028C4D096
:1067200025EA080A0AF1010A01F046FF4FEA8A0A3F
:106730000023082201A9304601F064FF574572D9B1
:10674000BAF1000F7ED13A4608234F49304601F096
:1067500059FF09F1030708EB9707D4F81834002B09
:106760006CD1D4F810545DB1EB685A7931462846A3
:106770001AB12B681B689847EB681D68002DF3D190
:10678000304601F01DFF04A8002300F80D3D01F084
:10679000B9FAD4F8183403B967609DF8030001F022
:1067A000D7FA97E7002004B0BDE8F087BDF80430C1
:1067B0003448C3F38312062A28BF0622911C62F3D1
:1067C00089138900ADF8043001F0AEFE06460028BA
:1067D0003FF46BAF01F0F0FE0023082201A9304620
:1067E00001F010FFBDF8043013F4707F3FD04FF07C
:1067F000000A4FF0080905EA080103314B4604EB93
:1068000081010422304601F0FDFEBDF804300AF19A
:10681000010AC3F3831308F10107534509F1040981
:10682000B846E8D899E705EA0801033104EB81018D
:106830003A460823304601F0E5FE8AE7304601F08B
:10684000BFFE47E705EA08010331A7EB0A0504EBA1
:10685000810152463046EDB2082301F0D3FE2A46AC
:106860000AF108030849304601F0CCFE71E74746BB
:1068700073E700BFE02F002050F9020028F9020062
:10688000C0E80200A0F90200EC2F00202DE9F0433F
:1068900083B002AB002203F8012DDFF8E090074639
:1068A00018468846D9F8085001F02CFAD9F8082083
:1068B000D9F80430D9F80060134401339B1B012B35
:1068C00057D809F21C440121204601F065FAFFF770
:1068D000DBFD0146204601F05FFA99E80A00D9F88D
:1068E0000820134401335B1A012BECD901240A4020
:1068F000033244F004036FF3891302319DF807005B
:1069000049F82230C9F8001001F022FA00211A4893
:1069100001F036FA80F3100033192B4009EB8303A2
:1069200000043540033540EA1740D86019F8253097
:1069300067F3C50309F8253039F825306FF389135B
:1069400029F8253059F8252068F39F22134664F36F
:1069500001036FF3820349F8252009F8253099F8DF
:1069600020341BB1FFF75AFE0028FBD103B0BDE86D
:10697000F0833146BAE700BFFC330020E02F00204F
:106980002DE9F04782B002AB002403F8014D374CEB
:106990008046184692468946A56801F0B3F9A26878
:1069A0006368276813440133DB1B022B5BD804F2B6
:1069B0001C460121304601F0EFF9FFF765FD014665
:1069C000304601F0E9F994E80A00A2681344013363
:1069D0005B1A022BEDD901260A40033246F004036C
:1069E00066F3891344F8223003319DF807002160D3
:1069F00001F0AEF9BB1C2B4004EB830300211C48C3
:106A0000C3F80CA001F0BCF980F31000BB192B40B7
:106A100004EB830300043D40033540EA1840D8608E
:106A200014F8253068F3C50304F8253034F8253010
:106A300066F3891324F8253054F8252069F39F2242
:106A4000134666F301036FF3820344F8252004F82C
:106A5000253094F820341BB1FFF7E0FD0028FBD16E
:106A600002B0BDE8F0873946B5E700BFE02F00204F
:106A7000FC3300202DE9F04F85B004AD002405F86B
:106A8000014D3C4C01938046284693468946A668B2
:106A900001F038F9A2686368276813440133DB1BEF
:106AA000032B65D804F21C450121284601F074F936
:106AB000FFF7EAFC0146284601F06EF994E80A0067
:106AC000A268134401335B1A032BEDD901250A4058
:106AD00003324FF0020A45F004036AF3891344F8C5
:106AE000223004319DF80F00216001F031F907EBED
:106AF0000A0EFA1C0EEA060E324004EB820204EB88
:106B00008E0E019B1C48CEF80CB00021D36001F022
:106B100037F980F310007A19324004EB8202000446
:106B20003E40033640EA1840D06014F8262068F34F
:106B3000C50204F8262034F826206AF3891224F8C6
:106B4000262054F8262069F39F22134665F301039B
:106B50006FF3820344F8262004F8263094F820349A
:106B60001BB1FFF75BFD0028FBD105B0BDE8F08F3E
:106B70003946ABE7E02F0020FC3300202DE9F04F31
:106B80008BB00AAD002405F8194D05939946159B65
:106B9000504C0793169B149F08938046179B0697AB
:106BA0002846924604920993A6688B4601F0AAF8FB
:106BB000A2686368276813440133DB1B072B00F2CC
:106BC000868004F21C450121284601F0E5F8FFF714
:106BD0005BFC0146284601F0DFF894E80A00A26851
:106BE000134401335B1A072BEDD90A400125D31C4E
:106BF00045F0040E062262F3891E44F823E00831B2
:106C00009DF80F000192216001F0A2F8B81C3040FD
:106C1000F91C07F1040C31400CEA060C04EB80006F
:106C200007F1050E0EEA060E04EB810104EB8C0C55
:106C3000BB1DC0F80CA0149AC1F80C90334004EBB3
:106C40008E0E07F1070ACCF80C2004EB8303159A8B
:106C5000CEF80C200AEA060A169ADA6004EB8A0AD1
:106C6000179B1D48CAF80C30002101F089F880F309
:106C700010007B19334004EB830300043E400336CD
:106C800040EA1840D86014F82630019A68F3C5032A
:106C900004F8263034F8263062F3891324F82630BD
:106CA00054F826206BF39F22134665F301036FF31C
:106CB000820344F8262004F8263094F820341BB1CF
:106CC000FFF7ACFC0028FBD10BB0BDE8F08F3946D4
:106CD0008BE700BFE02F0020FC33002030B4174DBD
:106CE000D5F8104400215CB1E3681A798A4204D1D6
:106CF00016E0DB681A798A4212D01B68002BF8D1A3
:106D0000C3681971D5F8103493B1DA68C368126892
:106D10001A60D5F81034DB681860084630BC70473C
:106D200001310A29DFD14FF0FF31084630BC7047EE
:106D3000C5F81004C2681360EFE700BFE02F002021
:106D400038B5094BD3F81044012583F820544CB1D1
:106D5000E3685D71236820465B689847E3681C68B8
:106D6000002CF5D138BD00BFE02F00202DE9F04701
:106D700084B01D460C9C002394F80C802373EB8890
:106D800081460E461746002B3BD1297A05290FD0A4
:106D90006B7A002B3DD1404BA88853F821A00021ED
:106DA000FFF7FCFB524603463C49204601F098F8A9
:106DB000062F0FD8DFE807F0484D535A0463390017
:106DC000F168B06896E80C000191009049462046B1
:106DD00001F086F82B7A052B05D06B7A5BB9304928
:106DE000204601F07DF8204601F06EF884F80C8012
:106DF00004B0BDE8F0872B4A2B49204601F070F81B
:106E0000EDE7284A00922949294A204601F068F80E
:106E1000BBE7A888FFF7ECFB264B234953F820205B
:106E2000204601F05DF8297AB5E77069316996E886
:106E30000C000390B068F76802918DE88100494624
:106E4000204601F04DF8C5E74946204601F048F8D4
:106E5000C0E732684946204601F042F8BAE74946A1
:106E600096E80C00204601F03BF8B3E7B16896E8DD
:106E70000C0020460091494601F032F8AAE7B068BC
:106E8000F768316996E80C0002918DE88100494667
:106E9000204601F025F89DE74CE902003CE902009C
:106EA00048E9020030E9020038E9020018E902006E
:106EB00010E90200D8E80200082900D970472DE93E
:106EC000F04F1D46904600232A7B2B7385B0B8F8FF
:106ED0000630039207460E46002B6BD198F8081037
:106EE000052911D098F80930002B6BD13C4BB8F82C
:106EF000040053F821400021FFF750FB22460346CF
:106F00003849284600F0ECFFDFF8F8B0DFF8F890D9
:106F10000024A642494628463ED93A5D013400F095
:106F2000DFFF082CF5D13049DFF8E090DFF8E0B062
:106F3000284600F0D5FF002411E017F804A006F061
:106F400035FB50445946437813F0970F14BF52460F
:106F50002E222846013400F0C3FF082C08D0A64298
:106F600049462846E9D8013400F0BAFF082CF6D18A
:106F700098F80830052B02D098F80930A3B91B49BE
:106F8000284600F0ADFF284600F09EFF9DF80C302B
:106F90002B7305B0BDE8F08F01345946284600F048
:106FA0009FFF082CB5D1BEE7114A1249284600F0D0
:106FB00097FFE4E70E4A00920F49104A284600F076
:106FC0008FFF8BE7B8F80400FFF712FB0C4B094961
:106FD00053F82020284600F083FF98F8081085E732
:106FE0004CE902003CE9020008E9020048E902001D
:106FF00030E9020038E9020018E9020010E9020055
:10700000D8E8020004E90200FCE8020044E90200BA
:107010000CE90200434B1978002900F081802DE92A
:10702000F04F8C4687B00024012503E00134E4B220
:10703000644560D23C4B27B21E6816F837E0AEF1CB
:10704000200305FA03F9394BCEF12001D3E90023DF
:1070500025FA01F149EA010905FA0EF808EA0200E9
:1070600009EA0301014306EBC70BDFD02F4922EAEF
:10707000080223EA09037046C1E9002302F0BEF9C1
:1070800016F837E0AEF1200205FA02F201920199FA
:10709000CEF12003C6B225FA03F3AEF12002194364
:1070A00006FA02F30393224B0191D3E90023CDE9C1
:1070B000042305FA0EF30093CEF12001039B26FA78
:1070C00001F10B43039306FA0EF30293DDE9046723
:1070D000DDE9002316401F4032463B46DDE90267EA
:1070E000BB4208BFB24209D00E4B013493F800C036
:1070F000E4B264459ED307B0BDE8F08FDBF80430FE
:10710000002BF1D09BF80110A1F10101B1FA81F13E
:107110004909091AB1FA81F1490970469847E3E72C
:10712000704700BF9C340020D8340020D0340020A9
:10713000C83400202DE9F8430646204800F036FC0C
:10714000D0B91F4F0123A6F1200103FA01F5C6F1C2
:107150002002D7E9000123FA02F2154303FA06F4EC
:1071600004EA000205EA0103134307D020EA0404FD
:1071700021EA0505C7E90045BDE8F883304602F07D
:107180003DF9104ED6E9008998B148EA040849EA69
:107190000509D7E9002314431D43C6E90089C7E95F
:1071A0000045094B054819680022BDE8F84300F086
:1071B000A7BB28EA040829EA0509EAE7A434002065
:1071C000D0340020C8340020A0340020042A01D884
:1071D000072070472DE9F04182B00F46054616465C
:1071E00001F0CEFF002834D01C4C1D4A1D4B1E4818
:1071F0001E49256017707C1E00221E600023C0E916
:107200000023C1E90023E4B2EFB1DFF86C8000276E
:10721000032601E0FF2C16D023B205EBC30215F8BC
:10722000330093788DF80670424601A98DF804600A
:107230008DF8053001F0AEFF013CE4B20028E9D042
:1072400002B0BDE8F0810A4A0A48002100F046FB7E
:10725000F6E701F047FF0028C6D0F1E7D834002058
:107260009C340020A0340020C8340020D0340020FA
:1072700015700200B8E902003571020070B5084DC2
:107280002B785BB1074E00243368012113F83400DA
:1072900002F052F82B780134A342F5D8002070BDDB
:1072A0009C340020D834002000B585B00023039022
:1072B000194601AA44F201000193029300F004F878
:1072C00005B05DF804FB00BF10B572B6FFF738FDDE
:1072D000FFF7A4F90028FBD1104B114C1149E41A17
:1072E000E408240444F00100FFF7D0FA0E4B1B68B9
:1072F000DB0700D500BE44F002000C49FFF7C6FAD8
:10730000BFF34F8F0A490B4BCA6802F4E062134384
:10731000CB60BFF34F8F00BFFDE700BF28F902002D
:1073200050F90200BCE90200F0ED00E0C8E90200FB
:1073300000ED00E00400FA0559B10AB909207047D0
:10734000531E1A40FAD1826001608380C2601046E9
:1073500070470E20704700BF10B48468C2680346AF
:107360008088121B904203D204205DF8044B7047C2
:10737000DA681C6802400020A154DA680132DA6041
:107380005DF8044B704700BF03468068DA6890429E
:107390000DD010B498689A881C6802400020A25C46
:1073A0000A709A6801329A605DF8044B70470520B4
:1073B000704700BFF8B5204A204B0025C2F8405165
:1073C000C2F84451C2F84851C2F84C51C2F80051B9
:1073D000C2F804511B6813B31949D2F804450A686E
:1073E000A41A1A6824F07F44A2422F4609D8197CB7
:1073F000DE69A41A154499B91EB133461A68A2422F
:10740000F5D91049104A0B7812789A420DD00F49DD
:107410000F4A41F823504FF48013C2F80031F8BDF1
:107420001F745A6998699047E6E7531CDBB2022B38
:1074300008BF00230B70EAE700100140FC35002074
:10744000F8350020F5350020F4350020EC3500201B
:1074500000E100E02DE9F04FB74AB8491378097808
:10746000994285B033D00133DBB2022B08BF002331
:10747000B3481370B34A0768DFF8E08252F823205C
:10748000D8F80010BB18002423F07F430360254682
:107490002046A646A9B10B68934200F27D81CC68D4
:1074A000C1F800E0D21A1844CB6934B13E1826F076
:1074B0007F46CD618C604E600D461946012400293F
:1074C000E9D1002C40F0A5814FF0010B05E0DFF879
:1074D0008C820025D8F80010AB469B4B9B4FDFF801
:1074E000809243F0010300930E464FF0000A002DF6
:1074F0002DD0D5F804E0D5F808C02C46ED69904BA6
:1075000093481B68AEEB030222F07F42824255D8BB
:1075100002EB0C032360002201206260A260E261A2
:107520002074002E6BD03068834261D9B64603E0E8
:10753000106898424CD29646DEF81C201B1A002A8E
:10754000F6D12360E261CEF81C40002DD1D197F82E
:1075500001C097F800E0F44571D0734603EB430394
:107560000EF10100BA7807EBC3035FFA80FE7245A3
:10757000187987F800E004BF4FF0000E87F800E0AC
:1075800002289A684CD003283DD00128E3D1107C12
:107590000028E0D1D3F80CE0C2F804E0D3F810C022
:1075A000C2F808C014465A69E26099F800209B6945
:1075B000A361002AA3D060608646A0E7A3EB0E0378
:1075C00023F07F4363450AD2ACEB03032360A2E7B9
:1075D000C01A10602360E261CEF81C40B5E70023BA
:1075E000012223606360A360E36122743EB13068CE
:1075F000C8F80040C31A3360E661264677E7C8F84A
:107600000040264673E7002EA5D0002200E01E466B
:10761000F3693274002BFAD1C8F800301E4696E7A1
:107620004EB1B242344603D1BDE09A4260D01C460E
:10763000E369002BF9D100231374F4458DD1BAF11D
:10764000000F02D18E4200F09D80002E00F0C58018
:107650003B4B404A1C68D2F80475DFF80881D6F825
:1076600000A098F800103B1B23F07F43DD1CA9B954
:107670003949354B4FF48030C2F844030126C2F833
:1076800004034FF40030C1F8800143F001030860A7
:1076900016604FF43C60984788F80060AA452CBFFC
:1076A00004EB0A0363192B4923F07F43C1F84035EB
:1076B000D1F80425D21BDB1B22F07F4223F07F434D
:1076C00003329A420ED9204BD1F80425C1F8402547
:1076D00043F001034FF43C6098471F4B4FF40032D6
:1076E000C3F80021002389F8003005B0BDE8F08F11
:1076F000A24239D0D2F81CE01368C4F81CE0BEF1F5
:10770000000F11D03046DEF800402344CEF80030A0
:10771000864209D0002397F800E097F801C013745F
:1077200006464FF0010A88E7002397F800E097F833
:1077300001C0137481E700BFF4350020F535002047
:10774000F8350020EC350020E0E90200DC340020B0
:10775000FEFF7F000010014000E100E0FC3500204A
:10776000E8350020E93500201346F069C8F800002C
:10777000D8B1D3F81CE01B68C4F81CE0BEF1000FC0
:10778000C1D1C5E7BBF1000F7FF45FAF002389F8DB
:10779000003005B0BDE8F08F002C3DD19B1A0B6086
:1077A0004FF0010B99E63346DFE701931C4BDFF8FE
:1077B0007CC003924FF0010E0291C3F808E0009BD9
:1077C000CCF8000089F800E04FF43C609847D8F806
:1077D0000000019B0299039ACBE7114D114A124C0C
:1077E0004FF480334FF400310127C2F880103C433E
:1077F000C5F848334FF43C60C5F808336F60A047C4
:107800000A4BAF604FF43C601E60A047084B1E70EF
:1078100068E7C8F8001057E6C8F80010BEE700BFD8
:107820000010014000E100E0E0E90200F83500202E
:10783000E93500202DE9F8431F4D204E204FDFF899
:1078400098804FF480334FF400324FF00109002448
:10785000C6F8802047EA0907C5F848334FF43C6072
:10786000C5F80833C5F80490B847C5F808904FF438
:107870003C60C8F80040B847124B13481349144AFB
:107880001C70144B04600C7014704FF48011E022D3
:107890000B2098701C705C70C6F8801186F8142359
:1078A0003160C5F8084586F81123D5F80435C8F8C5
:1078B00000302046BDE8F8830010014000E100E000
:1078C000E0E90200E9350020FC350020F435002015
:1078D000F5350020DC340020F8350020074B9B787C
:1078E0000BB9082070473AB130B10368187C002802
:1078F000F7D159745A61704707207047DC34002073
:107900002DE9F043264CA37883B01BB9082003B0BF
:10791000BDE8F0830028F9D0042903D8072003B07C
:10792000BDE8F0834369002BF0D0064602A8737CC3
:107930000025012B00F8015D0CBF8946A946904641
:107940000F4600F0DFF96378A07821785A1CD2B294
:10795000904208BF2A4691421BD003EB430304EB3D
:10796000C30301200F4918719E60D1F804159DF8DA
:107970000700D9601F61C3F81490C3F818806270C3
:1079800000F0E6F9084B4FF480122846C3F80021B6
:10799000BDE79DF8070000F0DBF90420B7E700BF62
:1079A000DC3400200010014000E100E070B51B4C09
:1079B000A37882B013B9082002B070BD0028FAD0B5
:1079C0004369002BF7D0064602A8002500F8015DA8
:1079D000357400F097F96278A0782178531CDBB2F7
:1079E000984208BF2B46994212D002EB420204EBA8
:1079F000C20202219DF8070096601171637000F0C9
:107A0000A7F9074B4FF480122846C3F80021D3E7AB
:107A10009DF8070000F09CF90420CDE7DC3400203D
:107A200000E100E030B50478012C83B027D017D3F3
:107A3000022C13D1384B394D1A78C168AA5C0191D8
:107A40008DF80040002A37D103F10C00012234499F
:107A500002F0BCF9334B68461B68984703B030BD51
:107A600031493248FFF790FC00282BD002A80323AD
:107A700000F8083D2B4B1B68984703B030BD4368A6
:107A80002B4D19782846FFF767FC30BBAA68EB68D6
:107A90009A4206D002AB234A03F8080D1268184632
:107AA0009047A968EB68AA885B1A9A421DD2214BBD
:107AB00001221A7003B030BD181D0122184902F0CE
:107AC00013FCC7E71448154A0378D35CF3B90122C5
:107AD00015490C3002F00AF9C0E7124B01908DF8FD
:107AE00000401B6868469847DBE70B480B4A037861
:107AF000D35C2BB901220A490C3002F067F9ADE7DB
:107B000001220749043002F0EFFBA7E701220649F2
:107B1000043002F08DFBA1E7E8290020644000203A
:107B200028360020003600202C3600201836002091
:107B300004360020143600202DE9F045324C89B07F
:107B40002260002955D00C4680468A882F48096853
:107B50009A46FFF7F1FB10B109B0BDE8F085A289A4
:107B6000A1682B48FFF7E8FB0028F5D1294D98F8CC
:107B700010E0294ED8F814700FCD6C460FC495E86C
:107B80000F0098F811501EF1000E18BF4FF0010EB3
:107B9000002D84E80F0014BF0E220022D8F8004008
:107BA000D8F80430D8F808508DF8152006976946A3
:107BB000D8F80C70194A8DF81CA030468DF814E0E6
:107BC000029703958DE8180001F0EEF90028C3D163
:107BD000D8F80030124A01331070BDD0114A337802
:107BE000D35C53B906F10C0001220F4902F0EEF804
:107BF000B2E7072009B0BDE8F085301D01220A492F
:107C000002F072FBA8E700BF003600200436002017
:107C100018360020E8E90200E8290020257A020051
:107C200014360020644000202836002070B5124C25
:107C3000014612482678FFF7A7FB05460EB92846ED
:107C400070BD0F480F4A0378D35C0022227053B9ED
:107C50000C3001220C4902F0B9F80028EFD0FFF7F0
:107C600023FB284670BD04300122074902F03CFB8B
:107C70000028E4D0F3E700BF1436002004360020CB
:107C8000E8290020644000202836002070B5014615
:107C90001648FFF761FB044608B1204670BD144D3D
:107CA000144E2B78F35CABB905F10C0002F082F8AE
:107CB0000028F2D110490D48FFF766FB0028ECD1EF
:107CC0002B780D49F35C012253B90C48BDE8704094
:107CD00002F00CB8281D02F0F9FA0028DDD1E9E71E
:107CE0000748BDE8704002F0A3BA00BF1836002074
:107CF000E8290020644000202C360020F4290020D0
:107D0000EC29002070B4EFF3108472B60D4B9A6822
:107D1000AAB90D490D4E01259D60D1F8805035401E
:107D20001D60C1F88060D1F884505D604FF0FF3372
:107D3000C1F88430027004B962B670BC7047012388
:107D40000370F8E75840002000E100E0FC06FFBDAA
:107D5000094B9A6872B168B910B4EFF3108272B629
:107D600006491C680C605C684C60986002B962B699
:107D70005DF8044B704700BF5840002000E100E070
:107D800000B550E8002F0B4640E8003E9EF0000F83
:107D9000F7D110465DF804FB00B550E8003F03EB57
:107DA000010240E8002E9EF0000FF6D110465DF86B
:107DB00004FB00BF00B550E8003FA3EB010240E820
:107DC000002E9EF0000FF6D110465DF804FB00BFB8
:107DD00000B5012350E8002F42EA030E40E800E11D
:107DE00091F0000FF6D170465DF804FB00B500235A
:107DF00050E800EF0EEA030240E8002191F0000F86
:107E0000F6D170465DF804FBB8B130B441688268C1
:107E10000468521AD2B2531E2160DBB242B101682B
:107E20000A685C1E551C0D601370E3B2FF2BF6D17F
:107E300003680020187130BC70470E20704700BFE7
:107E4000F0B583B002AB002503F8015D0446184687
:107E5000FFF758FF236861681A688A4210D9511EDB
:107E600019602168A3680E6812F8015C0A79278AF4
:107E7000E0689B1BDBB29A4207FB050538BF0B711C
:107E80009DF80700FFF764FF284603B0F0BD00BF70
:107E900030B583B002AB002203F8012D0546184629
:107EA0000C46FFF72FFF2A681368591C1160E96818
:107EB0002A8A641AB4FBF2F41C709DF80700FFF7DD
:107EC00047FF03B030BD00BF826802B9704710B5EC
:107ED000044643690168006998470023A36010BD08
:107EE0000EB400B582B0039929B102AA04AB42F8DE
:107EF000043D00F095F802B05DF804EB03B0704764
:107F00002DE9F84F1746B942884606461D46DDF86A
:107F100028B00B9A7DD30B464FF00109B3FBF7F362
:107F20009F4209F10109F9D9A94538BFA94612F0C4
:107F3000010A02D1BBF1000F49D1B268012402E06D
:107F4000013D07FB04F4012DFAD8B8FBF4F18F4290
:107F5000F7D9324D05E0B4FBF7F4A4B1B8FBF4F166
:107F6000B268685C531CB36033689854B268736835
:107F70009A4204FB1188EED33046FFF7A5FFB4FB0D
:107F8000F7F4002CEAD1BAF1000F16D0BBF1000FC4
:107F900033D0CB4588BF20243ED9B3683268591C02
:107FA000B160D454B26873689A420BF1FF3B06D2B9
:107FB000BBF1000F09D0D945EFD1BDE8F88F3046AD
:107FC000FFF782FFBBF1000FF5D1BDE8F88F9307F3
:107FD0001AD42024CB45B0D9B2683368511CB160A3
:107FE0009C54B26873689A420BF1FF3B07D2BBF115
:107FF000000FA3D0CB45F0D1A0E7BDE8F88F304605
:10800000FFF762FFB268F2E7002D0CBF3024202496
:10801000E0E74FF0010987E7BDE8F88F08EA0200C2
:10802000002900F06F822DE9F04F064685B0934697
:108030000C460B780DE0B2683168501CB0608B5470
:10804000B26873689A4280F0D3802378002B00F0E6
:10805000BA800134002B00F0B680252BEBD14FF015
:108060000008234614F8012B2D2A00F0BB80302A8B
:1080700000F0BB802B2A00F0AD802A2A00F0BC80E3
:10808000A2F13005E9B2092998BF013302D9A9E16B
:10809000A1F130051C4613F8012BA2F1300005EBCD
:1080A0008501092802EB4101F2D92E2A00F0B080A7
:1080B000002701E014F8012F02F0FB03682BF9D030
:1080C000253A532A7AD8DFE812F07A01790079004C
:1080D00079007900790079007900790079007900D8
:1080E00079007900790079007900790079007900C8
:1080F00079007900790079007900790079007900B8
:1081000079007900790079007900790079007900A7
:108110007900790079007900790079007900790097
:108120007900790079007900790079007900790087
:108130006A01790079007900790079007900790085
:108140007900790079005501FC0079007900790007
:108150007900FC00790079007900790079007900D4
:10816000540079007900CA007900BA0079007900DA
:108170006A01DBF80020131DCBF80030B3681568E6
:1081800031685A1CB2604FF03002CA54B36872684A
:10819000934280F0A0813268581C7821B060D1549D
:1081A000B26873689A4280F092810022082301929B
:1081B0002946009310223046FFF7A2FE01342378AF
:1081C000002B7FF446AF337B002B40F0058105B0D8
:1081D000BDE8F08F234614F8012B2D2A48F004083F
:1081E0007FF445AF48F001083BE748F0020838E764
:1081F0003046FFF769FE28E7DBF80020111DCBF8B9
:10820000001015685A782E2A03F101047FF450AF4C
:108210006278A2F13003092B04F101044FF000074A
:108220003FF64AAF07EB870702EB470714F8012F29
:10823000A2F13003092BA7F13007F3D93CE7DBF8B3
:1082400000301A1DCBF800201968CDF804803B4699
:1082500000950A223046FFF753FE0134AFE7DBF802
:1082600000301A1DCBF8002018F0010FD3F8009051
:1082700040F0BB80B9F1000F00F04781484605F09F
:10828000F7F90746BD4240F2F180002D00F0EE8084
:108290004FF0200805E0BD4200F0E880002D00F01E
:1082A000E580B3683268591CB16002F80380B26897
:1082B00073689A4205F1FF35EDD33046FFF704FEAF
:1082C000E9E7DBF800301A1DCBF80020D3F8009066
:1082D00089EAE973A3EBE973092B4FF0010A09DD81
:1082E0008F4A82FB0312DB17C3EBA203092B0AF1AF
:1082F000010AF5DCBA4538BFBA462DB3B9F1000F13
:1083000002DB18F0040F00D0013D18F0020F40F01E
:10831000F58018F0010F17D1002D00F0FE80AA455E
:1083200038BF202110D2B2683368501CB060995415
:10833000B26873689A4205F1FF3580F0E880002D3D
:1083400000F0EB80AA45EED1B9F1000FC0F2C88071
:1083500018F0040F7BD108F00303022B00F09A8081
:108360008DE820013B4649460A223046FFF7C8FD0A
:10837000013424E7DBF80020131DCBF80030B3688C
:1083800031681278581CB060CA54B26873689A4257
:10839000FFF414AF3046FFF797FD01340FE7DBF829
:1083A00000301A1DCBF800201968CDF804803B4638
:1083B000009510223046FFF7A3FD0134FFE6B368B5
:1083C0003268591CB1604FF02501D154B26873680E
:1083D0009A42DFD20134F2E6304605B0BDE8F04FF4
:1083E000FFF772BD1C4600255FE64F46A7EB090864
:1083F00017F8013B8BB1B2683168501CB0608B54E8
:10840000B26873689A42F1D33046FFF75DFDA7EB7F
:10841000090817F8013B002BEDD145457FF6CEAE9C
:10842000202705E045453FF4C9AE002D3FF4C6AE18
:10843000B3683268591CB160D754B26873689A4205
:1084400005F1FF35EED33046FFF73EFDEAE7B268AF
:108450003368501C2B21B0609954B26873689A42FB
:10846000FFF479AF3046FFF72FFD74E709F1FF39CC
:1084700019F8013F002B3FF4A1AEB2683168501CDF
:10848000B0608B54B26873689A42F1D33046FFF7FC
:108490001BFDEDE7002F7FF463AF002D33D0AA451D
:1084A000BFF45EAFB2683368511CB1604FF0300169
:1084B0009954B26873689A4205F1FF3503D215B337
:1084C000AA45EFD14CE73046FFF7FEFCF7E7304610
:1084D000FFF7FAFC69E63046FFF7F6FCB3685AE6A8
:1084E000B2683368501C2D21B0609954B26873682B
:1084F0009A42C9F10009FFF42EAFB3E7002F3FF411
:1085000023AF06E7704700252AE74F46BAE6304614
:108510000391FFF7D9FC039911E7002514E700BF89
:1085200067666666FFF770BC2DE9F041B0F8108011
:10853000CF1CA8F1040847440646B7FBF8F7FFF73D
:108540007FFC80B3FFB200250123013F0446A0F861
:10855000068006600571437128D0804609E0637982
:10856000AF4203F101036371C8F800000660804662
:108570001CD03046FFF764FC01350028EFD1667946
:10858000721E16D02346013082421B68FBD81F683A
:108590004EB1214600250C6801353846FFF778FCBE
:1085A000AE422146F7D10020BDE8F0812046BDE86B
:1085B000F0812768EDE700BF04300121FFF7ECBB35
:1085C000F8B5012104460430FFF7F4FBC0B200B156
:1085D000F8BD6679721E12D02346013082421B68B4
:1085E000FBD81F68002EF3D0214600240D6801340B
:1085F0003846FFF74DFCA6422946F7D1F8BD27685B
:10860000F2E700BF2DE9F843C78890F805E015466A
:1086100007FB0EFEEC18AEF1040E1A1DA6458846A7
:10862000B2FBF7F638BFAEEB030507FB1621044695
:1086300016B1013E2468FCD17E1AAE4228BF2E46F8
:108640009DB14FF00009081DAD1B08EB0901204446
:10865000324604F0DAFFAF42B14424683E464FF0A0
:10866000000128BF2E46002DEDD1BDE8F88300BFE4
:108670002DE9F843C78890F805E0154607FB0EFE84
:10868000EC18AEF1040E1A1DA6458846B2FBF7F6AB
:1086900038BFAEEB030507FB1621044616B1013EB9
:1086A0002468FCD17E1AAE4228BF2E469DB14FF001
:1086B000000904312144AD1B324608EB090004F0E7
:1086C000A4FFAF42B14424683E464FF0000128BFEA
:1086D0002E46002DEDD1BDE8F88300BF33DF704793
:1086E00041DF7047064A074B10B5002414701C6028
:1086F000BFF35F8F0449054800F09EF8204610BD87
:10870000393600203C36002018EA020030360020BE
:1087100000B583B002A8002300F8013DFFF7F2FA8C
:10872000F1EE103A23F09F03E1EE103ABFF35F8FB2
:108730000A4B4022C3F884219DF80700FFF708FB8D
:1087400004F054FD28B920BF40BF20BF03B05DF83E
:1087500004FBFFF7C5FF03B05DF804FB00E100E098
:10876000F8B5284E054601213046FFF709FBBFF357
:108770005F8FD0B9042D19D0234B1A7892B9234CAE
:108780002570234D01221A706B682F462BB913E018
:10879000384600F05BF86B6873B11B682078984727
:1087A0000028F5D1BFF35F8F3060F8BD184D174C2E
:1087B0006B682F46002BF0D1FEF7C2FAFDF72EFFB3
:1087C0000028FBD12378023B012B0BD904F00EFDCE
:1087D000A8B94FF080430122C3F80025BFF34F8FA3
:1087E00020BFFDE7BFF34F8F0A490B4BCA6802F465
:1087F000E0621343CB60BFF34F8F00BFFDE7FFF78D
:108800006DFFE6E73C360020393600203836002080
:108810003036002000ED00E00400FA0582680023F5
:10882000936082681361826853618268D360826852
:10883000536082681360704701600B6843604A6848
:10884000934204BF00234360704700BF436843B1B5
:10885000026891680B4443605268934204BF00234E
:108860004360704730B4184DA5F59472AB1ADB1015
:1088700003EBD3735B1002EBC30152F83330984221
:1088800028BF0C4605D311E052F8333098420CD281
:1088900021468B1ADB1003EBD3735B10914202EB82
:1088A000C304F1D8094830BC70470D46984204D93A
:1088B00004F10802AA42D9D3F4E76068034B002808
:1088C00008BF1846EFE700BF6CEB020030EA020079
:1088D00070B5161E07DD0C468D1914F8010BFFF755
:1088E000D5F9A542F9D1304670BD00BF10B50C4690
:1088F0002046FFF79BF90528FAD0012010BD00BFE4
:10890000F0B4B44B1A78062A20D0B34B1B68062B60
:1089100000F08A80B14AD2F8883043F47003C2F87C
:108920008830BFF34F8FBFF36F8F4FF01023D3F812
:108930000022002AC0F28A81D3F80432002BC0F250
:108940008581A74BA74A1A60F0BC704704331B68A7
:108950001807DAD1A44B1B6803F0F002302A00F0AC
:10896000658103F0E003402B00F060819E4B1B68A3
:1089700003F0F003302B00F01E819B4B1B6803F0CB
:10898000F002302A00F0078103F0E003402B00F0F2
:108990000281954B1B6803F0F003302B00F0EB8055
:1089A000914B1B6803F0F002302A00F0D08003F0F6
:1089B000E003402B00F0CB808B4B1B6803F0F003EF
:1089C000302B00F0B680884B1B6803F0F003302B8F
:1089D00000F09880844B1B6803F0F003502B3FD0CD
:1089E000814B1B6803F0F002302A28D003F0E0032B
:1089F000402B24D07C4B1B6803F0F002302A03D0BC
:108A000003F0E003402B80D14FF08043D3F80024E3
:108A1000D2077FF57AAF6FF00102C3F800246E4BE6
:108A20001B68062B7FF476AF704B1B68062B7FF418
:108A300071AF6F4A136843F4806313606AE76D4B4C
:108A40006D4A1B6803F04F031360624B1B78062BC3
:108A50007FF45BAF694B1B6818077FF456AFC9E71B
:108A60004FF08052664BD2F80414C3F82015D2F8A8
:108A70000814C3F82415D2F80C14C3F82815D2F83A
:108A80001014C3F82C15D2F81414C3F83015D2F80A
:108A90001814C3F83415D2F81C14C3F84015D2F8D2
:108AA0002014C3F84415D2F82414C3F84815D2F89A
:108AB0002814C3F84C15D2F82C14C3F85015D2F86A
:108AC0003014C3F85415D2F83414C3F86015D2F832
:108AD0003814C3F86415D2F83C14C3F86815D2F8FA
:108AE00040143C48C3F86C15D2F844140278C3F81B
:108AF0007015062A7FF409AF404B1B681C077FF4F2
:108B000004AF6DE73F4E404C4049414B05270125DE
:108B100000203F223760256008601A602D4B1B78CB
:108B2000062B7FF4F2AE354B1B681D077FF4EDAECC
:108B300050E7284B374A1B780321062B11607FF43E
:108B4000E4AE2E4B1B681E077FF4DFAE3BE74FF011
:108B500080430022C3F80C21C3F81021C3F8382544
:108B60001C4B1B78062B7FF470AF244B1B681F0730
:108B70007FF4CBAE20E72849164ACB68127823F061
:108B80008073062ACB607FF4C0AE1C4B1B681B07AA
:108B90007FF4BBAE04E7214B0E4A1B6812782049D4
:108BA000C3F34233062A0B60B8D1144B1B681A0773
:108BB0007FF4ABAEEDE6074B1A4A1B781A491160F9
:108BC000062B7FF4A2AE0D4B1B6819077FF49DAEF8
:108BD000D3E600BFE00F00F03001001000ED00E030
:108BE000FC2900200090D003E80F00F034010010B1
:108BF0003C17004058020010E40E0040E40F00F063
:108C000000C00040105600408856004018560040F2
:108C100014560040A0050040F0ED00E044020010B2
:108C20003C05004074C007400DF0ADBA204B214A0E
:108C30001B6812782049C3F30423062A0B608FD1E6
:108C40001E4B1B6819073FF491AE5EE61C4B0122D8
:108C5000C3F80425D3F80024002AFBD04FF01023DA
:108C600015221749C3F80022D1F80034002BFBD09D
:108C70004FF010221521124BC2F80412D3F8002431
:108C8000002AFBD000220E49C3F80425D1F8003495
:108C9000002BFBD0BFF34F8F0A490B4BCA6802F47D
:108CA000E0621343CB60BFF34F8F00BFFDE700BF0F
:108CB00024030010E00F00F040350140E40F00F005
:108CC00000E0014000ED00E00400FA05054A4FF025
:108CD000A043105CD3F8043523FA00F0C04300F041
:108CE000010070475CEF0200044B195C4FF0A0429A
:108CF00001238B40C2F80C35704700BF5CEF0200C7
:108D0000044B195C4FF0A04201238B40C2F8083598
:108D1000704700BF5CEF02004FF0A04310B44FF467
:108D200080204FF400344FF400214FF48012C3F838
:108D30000845C3F80805C3F80815C3F808255DF809
:108D4000044B70474FF0A04310B44FF480204FF411
:108D500000344FF400214FF48012C3F80C45C3F8DF
:108D60000C05C3F80C15C3F80C255DF8044B7047CF
:108D7000074B4FF0A041185CD1F804350122824026
:108D800022EA03001340C1F80805C1F80C3570470A
:108D90005CEF0200054A4FF0A043105CD3F8103599
:108DA00023FA00F0C04300F00100704758EF0200C2
:108DB0000D2809D00E2809D00F2809D010280CBF83
:108DC00003204FF0FF3070470020704701207047AC
:108DD00002207047014B185C704700BF58EF02003B
:108DE000C20770B41AD54FF0A04303224FF40036E7
:108DF0004FF480254FF400244FF48011C3F844272A
:108E0000C3F84827C3F84C27C3F85027C3F80865B0
:108E1000C3F80855C3F80845C3F8081583070AD5F1
:108E20004FF0A0430C22C3F83427C3F83827C3F807
:108E30003C27C3F8402770BC704700BF10B568B12D
:108E400001280AD10C4C2369A07033B10CCB01204E
:108E5000226198472369002BF8D110BD064CA36806
:108E600001226270002BF8D00CCB0020A260984742
:108E7000A368002BF8D110BD4036002068B910B5AA
:108E8000064CA3680122627033B10CCB0020A260B3
:108E90009847A368002BF8D110BD704740360020DA
:108EA00030B5012883B01CD015D3032811D100F0B0
:108EB000C9F802A800231F4C00F8013DFEF722FF6D
:108EC000E368013BE360E56865B39DF80700FEF7E2
:108ED0003FFF03B030BD184B0122C3F8802003B020
:108EE00030BD02A80023134C00F8013DFEF70AFF35
:108EF000237853B1E3689DF8070001330122E36052
:108F0000A270FEF725FF03B030BD0C486360A3607C
:108F10002361E36000F088F804F068F930B10123C0
:108F20002370E7E700F0A2F8A570CEE700F08AF81A
:108F3000F5E700BF4036002000E100E03D8E020072
:108F400070B50A4A0A4B06784568047AC06853F837
:108F5000213052F8211084B003908DF80060019503
:108F60008DF808406846984704B070BD543600201C
:108F70005836002070B50A4A0A4B0678456884685E
:108F8000C06853F8213052F8211084B003908DF856
:108F9000006001958DF808406846984704B070BDA0
:108FA0005436002058360020F0B51A4B06781A4D7A
:108FB0000C6991F81DC045F826400746174803F88C
:108FC00006C040F826200C4696460FCC89B06D4668
:108FD0000FC594E80F0085E80F000496BCF1000F60
:108FE0000BD0BEF1000F0E4A694607F1040008BF1E
:108FF000002201F031F809B0F0BDBEF1000F094ABE
:10900000694607F10C0008BF002200F0A3FD09B07B
:10901000F0BD00BF644000205436002058360020C8
:10902000418F0200758F0200054A13790BB185202C
:10903000704701211060537118461171704700BFCD
:109040005C360020084B1A68D20706D40122E021C2
:1090500083F80013C3F880211A604FF08043012287
:10906000C3F81825704700BF00E100E0044B01225F
:109070001A604FF08042D2F81834DB03FBD47047FB
:109080000C00004010B5144B1A6882B062B1002188
:10909000124A19601B68507900934FF080410123F8
:1090A000009CC1F8083390B10D4B1A686AB10022D8
:1090B0001A601B6801934FF080420221074B019810
:1090C000C2F808131B680120984702B010BD116850
:1090D00053718847E8E700BF000100405C3600207C
:1090E0000401004070B5224C94F8585082B015B17C
:1090F000082002B070BD4FF0FF332946FF2604223E
:1091000004F1540023636363A363E3632364636430
:10911000A364E36423606360A360E360236163612D
:10912000A361E361236284F850306362A36284F830
:109130005230E36284F8533084F8516004F070FADE
:109140000C4B0D4A0D4E15604021E02083F80603BC
:10915000C3F8801119601368019301994FF000431F
:109160000122284684F85820C6F8043302B070BDA6
:109170006436002000E100E07C61004000600040B7
:10918000034B93F85800003018BF0120704700BF10
:1091900064360020F0B5664C231893F93050002D4A
:1091A00001DB0820F0BD91F802E0CEF3400EBEF1E5
:1091B000000F50D02568013500F0B5800125082644
:1091C00054F8253001334CD06B1C54F82370013710
:1091D00048D0AB1CB3423CD254F82370013741D085
:1091E000EB1CB34235D254F8237001373AD02B1D13
:1091F000B3422ED254F82370013733D06B1DB342E3
:1092000027D254F8237001372CD0AB1DB34220D2A3
:1092100054F82370013725D0EB1DB34219D254F80E
:10922000237001371ED005F10803B34211D254F860
:109230002370013716D005F10903B34209D254F85F
:10924000237001370ED00A35B54202D2E36A0133EA
:1092500067D00420F0BD256A013533D009250C26DE
:10926000AEE72B4626185DB244F8232086F830502E
:10927000BEF1000F2CD08B785A0715D4DE0747D5E6
:10928000830003F1A043D3F8002722F00202C3F8C1
:109290000027284EC20800F0070EB75C012303FA2E
:1092A0000EF33B43B3548B7813F0020314D1083D03
:1092B0002C44097894F8502042EA811284F8502016
:1092C0001846F0BD082683F83060354622623346E2
:1092D000234483F84800CEE7AD0005F1804505F54D
:1092E000C0450A78D5F8101521F4473121F44071B2
:1092F000C5F8101503021204D5F8101502F4403217
:1093000003F4F85313430B43C5F810350020F0BDA8
:109310004A784FF0A04600F5E073920046F823200B
:10932000B7E70B239EE70025226083F83050A2E7C1
:1093300064360020B8360020F0B42E4D2E1882B0CE
:1093400096F93030072B1CDD2B4493F848309B09ED
:10935000032B41D0012B14BF4FF440314FF40031A7
:10936000800000F1A040D0F8002722F44032C0F87D
:109370000027D0F800370B43C0F8003702B0F0BC2C
:109380007047DAB2072AF9D8980000F1804000F55A
:10939000C04003F140029200D0F8104592B202F1B1
:1093A0008042002744F0010402F5C042C0F8104595
:1093B0000197019817600029E0D096F9302055F800
:1093C0002220002ADAD001220B4902FA03F3C1F865
:1093D000043302B0F0BC70474FF0A043D3F810350F
:1093E000C34013F0010F0CBF4FF400314FF4403174
:1093F000B6E700BF64360020006000404FF0A04395
:10940000D3F8103523FA00F000F00100704700BFD8
:109410002DE9F04F87B00023CC4A01931168012950
:1094200000F00A821E46CA4B1A68012A00F0F68133
:10943000C84B1A68012A00F0E381C74B1A68012A59
:1094400000F0D081C54B1A68012A00F0BD81C44BE1
:109450001A68012A00F0AA81C24B1A68012A00F09A
:109460009781C14B1A68012A00F08481BF4B1A68AA
:10947000012A00F05E8116F0FF0F1AD0BC4F0125C3
:109480000024A30003F180432E4203F5C0434FEABA
:1094900045050BD0D3F8100557F82420D3F8101544
:1094A000C0F30420C1F3014102B190470134082CFC
:1094B000E7D1002E02DB07B0BDE8F08F00224FF0AD
:1094C000FF33AB4C02920393012502AE94F9501086
:1094D0004F1C2DD0C9B221F0C00006AB4FEAD00E10
:1094E00003EB0E0701F0070317F80C2C05FA03F342
:1094F0001A421DD02218890992F9302054F82220EE
:10950000002A00F0F080032900F0F0804FEA800E7E
:109510000EF1A04E17F814CCDEF800771CEA030316
:10952000C7F3014940F0B880B9F1030F00F0D781CB
:109530004FF0030A4FF002094FF00108002794F999
:109540005110481C2DD0C9B221F0C00006AB4FEA23
:10955000D00C03EB0C0E01F007031EF80C2C05FADF
:1095600003F31A421DD02218890992F9302054F8C9
:109570002220002A00F0CA80032900F0CA804FEAA6
:10958000800C0CF1A04C1EF814BCDCF800E71BEAC0
:10959000030FCEF3014E40F09080BEF1030F00F0B8
:1095A0008A8194F952104A1C2CD0C9B221F0C00013
:1095B00006AB4FEAD00C03EB0C0E01F007031EF8CC
:1095C0000C2C05FA03F31A421CD02218890992F9CF
:1095D000302054F82220002A00F08F80032900F068
:1095E0008E804FEA800C0CF1A04C1EF814ACDCF815
:1095F00000E71AEA030FCEF3014E6AD1BEF1030F62
:1096000000F0468194F953104B1C2CD0C9B221F0C4
:10961000C00006AB4FEAD00E03EB0E0201F00703C9
:1096200012F80CCC05FA03F31CEA030F1BD004EB71
:10963000000C89099CF930C054F82C90B9F1000F46
:109640006ED003296ED04FEA800E0EF1A04E12F8B4
:1096500014CCDEF800271CEA030FC2F3014211D13B
:10966000032A00F0F580002F3FF425AF4FF0A04310
:10967000019AD3F810359A423FF41DAF029A019334
:10968000039223E7022AEED1032900F04681B9F1C3
:10969000000FE8D0C847E6E7B9F1020F7FF448AF02
:1096A000032900F043814FF0030A4FF0010800271F
:1096B000002A3FF444AF904741E7BEF1020F7FF428
:1096C00070AF032900F02C81002A3FF46AAF904765
:1096D00067E7BEF1020F95D1032900F02481002A2B
:1096E00090D090478EE703297FF422AF16F80EC082
:1096F0004CEA030C06F80EC008E7032982D116F8DD
:109700000CA04AEA030A06F80CA06AE703297FF4D2
:1097100048AF16F80CB04BEA030B06F80CB02EE776
:109720000329A0D116F80EC04CEA030C06F80EC0AF
:1097300089E700221A601B6805934FF0A043059A41
:10974000D3F81035019346F0004694E600610040DE
:1097500004610040086100400C610040106100405D
:1097600014610040186100401C6100407C610040B1
:10977000643600206F4AD2F8042312067FF576AED5
:1097800000221A601B680493049B46F080066DE675
:10979000684AD2F8042351067FF563AE00221A60AE
:1097A0001B680493049B46F040065AE6614AD2F8CF
:1097B000042390067FF550AE00221A601B680493C4
:1097C000049B46F0200647E65A4AD2F80423D40602
:1097D0007FF53DAE00221A601B680493049B46F09F
:1097E000100634E6534AD2F8042315077FF52AAE53
:1097F00000221A601B680493049B46F0080621E6C9
:109800004C4AD2F8042357077FF517AE00221A609E
:109810001B680493049B46F004060EE6454AD2F802
:10982000042392077FF504AE00221A601B6804939C
:10983000049B46F00206FBE53E49D1F8046316F0AE
:1098400001063FF4F0AD136013680493049BEAE54E
:1098500003297FF41CAF4FF40032DEF8003723F405
:109860004033CEF80037DEF800371343CEF8003728
:10987000B9F1000F01D047460CE74FF0A043019A21
:10988000D3F8103593427FF4F9AE07B0BDE8F08FFE
:1098900003297FF424AF4FF40037DCF8003723F4BA
:1098A0004033CCF80037DCF800373B43CCF80037C6
:1098B0004746C84613E703297FF406AF4FF4003745
:1098C000DCF8003723F44033CCF80037DCF80037FD
:1098D0003B43CCF800374746C846D146F4E6032957
:1098E00006D0CA461F464FF002094FF00108DFE6D6
:1098F0004FF40037DEF8003723F44033CEF800375A
:10990000DEF800373B43CEF800374FF0040A4FF043
:1099100003094FF002080127CAE64FF440329CE7E2
:109920004FF44037CCE74FF44037B6E74FF44037B9
:10993000E0E700BF00600040014B1B68184700BF14
:10994000C0360020104B984201D00020704730B53F
:1099500083B002A8002300F8013D0D46FEF7D2F9BE
:109960000A4B1C7934B19DF80700FEF7F1F911207C
:1099700003B030BD01229DF807001D601A71FEF78B
:10998000E7F9204603B030BD00200040C03600207B
:1099900030B56E4AD2F8043399058BB05BD5D2F856
:1099A0002431002B57D00023C2F82431D2F82431BF
:1099B00003934FF40171664B0398C2F8081393F8B0
:1099C000291009B901215160604902228DF818203F
:1099D000D1F88024C1F880249869D96809920022BE
:1099E000089007919A6193E81200DA6106A8A047EF
:1099F000564AD2F81C31C3B1554B186A596988428E
:109A000065D293F8280000F0FF0400285FD1C2F867
:109A10001C41D2F81C11029102999C68186A196ABB
:109A2000205C01311962C2F81C05484AD2F8443161
:109A30007BB10021464BC2F84411D2F8440193F89F
:109A400029100090009809B1012111609A69002A3B
:109A500052D10BB030BD3D4AD2F804335B07C7D5B5
:109A6000D2F80831002BC3D0394B9969002952D064
:109A70000021C2F80811D2F8081104910499D8689D
:109A8000596AD2F8182542545A6A996901325A62C1
:109A90005A6A8A42ACD1DA69002A45D193F8292062
:109AA00012B92A4A01215160284A4FF40171C2F8C3
:109AB0000813596ADA6808910024012007928DF88A
:109AC000180093E806009C6106A8904790E71F4A9B
:109AD0000020C2F81C01D2F81C210192019A002931
:109AE000A3D09A688DF8180008915861079206A8CB
:109AF00093E80600904798E70022586AD9689A616F
:109B00000122089007918DF8182006A893E8060016
:109B100090470BB030BDC2F80811D2F8080105908B
:109B20000598D2F81825B3E7DD685C6A18699A6170
:109B300001210022D860DA615A628DF81810079569
:109B4000089493E8060006A8904751E700200040DB
:109B5000C83600202DE9F041604E05792C2303FB27
:109B6000056382B093F82A301BB1082002B0BDE82B
:109B7000F0810F4604465A4900689046FFF7E2FE1E
:109B800018B1112002B0BDE8F0813A68511C0BD029
:109B90004FF0A04101239340C1F808353B6803F51D
:109BA000E073032241F823207B685A1C06D003F59A
:109BB000E0734FF0A042002142F823102368BA69F5
:109BC000C3F82425397D7B7D22680B43C2F86C35B0
:109BD00097E806002368C3F81425C3F80C153B7DED
:109BE000012B51D02C2303FB05F3F218C2F804809B
:109BF0003A69F250B8F1000F35D023683A7F394FF7
:109C00000021C3F81C11D3F81C3100932368DDF840
:109C100000E0C3F84411D3F844112368019101997D
:109C2000C3F804732168090B4BB2002B4EDB03F120
:109C3000604303F561435201D2B283F800232268E6
:109C4000120B42F3C40323F0604323F0030303F138
:109C5000604303F5614302F01F02012101FA02F2A1
:109C6000C3F880211A602C23246803FB05630022BB
:109C700004250121C4F8005583F82A109A61DA619D
:109C800083F829205A6171E7BB68591C06D003F597
:109C9000E0734FF0A042002142F82310FB685A1CE9
:109CA0000DD001224FF0A04102FA03F3C1F80835AC
:109CB000FB6803F5E073032241F82320FB68226868
:109CC000B968C2F80835C2F810158BE7064B01F0E9
:109CD0000F0152010B44D2B21A76B0E7C836002009
:109CE0009199020080000200FCEC00E0F0B5304EDB
:109CF00005792C2303FB056385B05C6914B1112041
:109D000005B0F0BD1C62996083F828405A61026872
:109D1000C2F81C41D2F81C11026802910121029F75
:109D200091600268D3F808E0C2F81C41D2F81C1117
:109D300001910199D3F820C0196A5F681EF80CC020
:109D400001311962C2F81CC517B1204605B0F0BD3B
:109D50001A6A5C690168944203D819E093F82820D4
:109D6000F2B9D1F81C21002AF8D0C1F81C71D1F841
:109D70001C210392039AD3F820C01A6A1EF80CC063
:109D800001321A62C1F81CC51A6AA242E9D30168FD
:109D9000D1F81C31002BFBD00123CB60002000E068
:109DA0000F202C2303FB056300225A61A8E700BFA4
:109DB000C83600200379044A2C2101FB032358698B
:109DC000003018BF01207047C8360020F0B4544D51
:109DD00004792C2303FB045386B05F6827B1036822
:109DE0004FF40176C3F808632C2303FB04539E69E8
:109DF0006EB1DE690EB3002F00F08F8003684FF460
:109E000001721120C3F8042306B0F0BC704793F828
:109E100029709A61D9605E62DE61002F2FD02C23F9
:109E200003FB04535A6882B103684FF40172C3F80C
:109E30000423002006B0F0BC7047DA6119612C23BE
:109E400003FB04535A68002AEED10168C1F844218B
:109E5000D1F844210392039A0268D2F82461D2F81F
:109E60000871D2F84411E7B9002948D1002EF4D086
:109E70002C2303FB04540023A3610320DAE70368C7
:109E8000C3F82471D3F8242103680192019AC3F81E
:109E90000871D3F8082103680292012202991A601E
:109EA000BDE7002EE4D161BB9E6996B1C2F80811EE
:109EB000D2F8081104910499DE68596AD2F818257D
:109EC00072545A6A996901325A625A6A9142C3D8E5
:109ED00008E0C2F80861D2F8081105910599D2F896
:109EE00018255B6A2C2303FB0454002294F82930C4
:109EF000A2616BB103680121104619609AE7002E38
:109F0000B6D12C2303FB04540023A3610F2091E757
:109F100002680121184651608CE711208AE700BFD2
:109F2000C836002070B54A4BD3F8242188B0002AE7
:109F300055D1D3F81011F1B9454BD3F8442152B1A2
:109F40000020444AC3F84401D3F844419169019484
:109F5000019C002960D13E4BD3F820214AB1002159
:109F60003C4AC3F82011D3F8204150690094009C6A
:109F700030BB08B070BDC3F81021D3F810113548BC
:109F8000039103998169D3F83C458C42D4D1C569CA
:109F9000002D50D0D3F80012C668856121F0200151
:109FA000C3F800120369C26101220168C3608DF821
:109FB0001840436805968DF8102004A89847BBE721
:109FC000D3F84C0593688DF818008DF81010516186
:109FD000059304A892E80A00984708B070BD0021D4
:109FE000C3F82411D3F82421029202228DF8102004
:109FF000029AD3F88004174AC3F880040790D3F874
:10A000003C05D3688DF818009161D1610593116802
:10A01000536804A898478FE7D3F83C458DF818405B
:10A02000D368906101240593116853688DF810403E
:10A0300004A898478FE7C3680168856101220593EA
:10A040008DF8184043688DF8102004A8984773E7EE
:10A0500000200040F43600202DE9F0430479704ED2
:10A06000E7003B1906EB830385B093F820301BB162
:10A07000082005B0BDE8F0838946054669490068B7
:10A080009046FFF75FFC18B1112005B0BDE8F083E2
:10A09000D9F80020511C0CD04FF0A041012393406F
:10A0A000C1F80835D9F8003003F5E073032241F810
:10A0B0002320D9F804305A1C06D003F5E0734FF082
:10A0C000A042002142F823102B68D9F81820C3F8C9
:10A0D000242599F8141099F815202B680A43C3F821
:10A0E0006C252A68D9F80030D9F80410C2F80C356C
:10A0F000C2F8141599F81430012B61D03A19920066
:10A10000B318C3F80480D9F81030B350B8F1000F79
:10A1100047D0296899F81C20DFF810E10023C1F826
:10A120001031D1F8101100912968DDF800C0C1F894
:10A130002031D1F8201101912968DDF804C0C1F85F
:10A140002431D1F8241102912968DDF808C0C1F842
:10A150004431D1F844112B6803910399C3F804E307
:10A160002968090B4BB2002B51DB03F1604303F567
:10A1700061435201D2B283F800232A68120B42F3E2
:10A18000C40323F0604323F0030303F1604303F5AA
:10A19000614302F01F02012101FA02F2C3F880219B
:10A1A0001A603C442A6806EB840400230125082138
:10A1B00084F82050C2F80015A361E361636158E799
:10A1C000D9F80830591C06D003F5E0734FF0A042CF
:10A1D000002142F82310D9F80C305A1C0FD001226C
:10A1E0004FF0A04102FA03F3C1F80835D9F80C305A
:10A1F00003F5E073032241F82320D9F80C302A68D4
:10A20000D9F80810C2F80835C2F8101576E7064BE1
:10A2100001F00F0152010B44D2B21A76ADE700BF34
:10A22000F4360020259F0200FCEC00E01003020041
:10A2300001F06043B3F1005F01D010207047F0B52A
:10A240000579214EEF007C1906EB840483B0636925
:10A2500013B1112003B0F0BDA1606261D0F800E03D
:10A26000CEF82031DEF820C1D0F800E0CDF804C0EF
:10A27000DDF804C0CEF85831DEF858C1D0F800E05F
:10A28000CDF800C0DDF800C0CEF84415CEF8482562
:10A2900002680121916062680AB11846DAE7036832
:10A2A00000E079B9D3F82021D3F85811002AF8D06A
:10A2B000002914BF0F2000207B1906EB8303002226
:10A2C0005A61C7E70F20F7E7F43600200379054A03
:10A2D00003EBC30302EB83035869003018BF01206E
:10A2E000704700BFF436002001F06043B3F1005F17
:10A2F00001D010207047F0B50479454EE3001D19D8
:10A3000006EB850583B06D6825B107684FF4047EC0
:10A31000C7F808E3234406EB83039C696CB3DC694C
:10A32000002C44D11961DA610368C3F81041D3F8F5
:10A33000105103680195019DC3F84441D3F844418D
:10A3400003680094009CC3F83415C3F838250268EC
:10A35000D2F8003243F02003C2F800320479E5005D
:10A360002B1906EB83035B684BB303684FF404724D
:10A37000C3F80423002003B0F0BD9A61DC61D9600A
:10A380000368C3F81041D3F8105103680195019D8B
:10A39000C3F84441D3F8444103680094009CC3F8D7
:10A3A0003415C3F83825036801221A60D6E705B3CF
:10A3B00003684FF40472C3F804231120DBE7036839
:10A3C00001E0C1B9E8B9D3F81021D3F84411D3F8AA
:10A3D0002401002AF5D02C4400284FF0000306EB9E
:10A3E000840614BF032018469942B36118BF0F209A
:10A3F000C1E71120BFE72C4406EB84060F20B261B1
:10A40000B9E72C4406EB84060320B161B3E700BF33
:10A41000F43600200220FEF7ABBC00BF2DE9F04768
:10A420000D460646FEF7C4FC03281ED8012D04463F
:10A430001FD00ED3022D1AD11C4B00EB40041C443C
:10A44000657895B11A4B1B687BB12846BDE8F0478B
:10A4500018471848FDF7AAFA144B174A04EB4401B1
:10A460000B44125D9D78AA42EBD0BDE8F087BDE8B1
:10A47000F0870E4F4FEA400808EB0003FA18FD5C26
:10A4800053782BB9A04447440B4BBA781A55D8E7F8
:10A49000DFF8289007484A464FF40041FDF730FAAC
:10A4A0000028EFD189F80060ECE700BF7C3700207E
:10A4B000903700203C3700209837002018370020C4
:10A4C00010B50078FEF774FC03280BD8064B00EBA0
:10A4D00040001844407828B1044B1B6813B1BDE814
:10A4E0001040184710BD00BF7C3700209037002077
:10A4F000B44B1B68DB0700D4704770B5B24EB34D48
:10A5000033782C78FBB9172C1CD8DFE814F0F10055
:10A510001701170163007600830096005D00390083
:10A520002C0039002C00A300A800A800A800A80057
:10A53000A800CE00DE000401460018001800FEF757
:10A5400001FC2C7070BDA24B1B7800203070002BDA
:10A5500000F00881FEF7D4FB0120FEF7D1FB0320B9
:10A56000FEF7CEFBCFE7012318463370FEF700FC61
:10A5700000224FF480419748BDE87040FDF7C0B914
:10A58000012318463370FEF7F3FB002240F6CD415D
:10A590009048BDE87040FDF7B3B98D4B1B78002B98
:10A5A00000F001810020FEF7ABFB0120FEF7A8FBC5
:10A5B0000320FEF7A5FB0020FEF796FB0120FEF727
:10A5C00093FB15232B7070BD0020FEF78DFB072336
:10A5D0002B7070BD0020FEF779FB002800F0D680BC
:10A5E0000020FEF78DFB46F2666103232B700022EC
:10A5F0007848BDE87040FDF783B90020FEF766FBA0
:10A60000002800F0C8800020FEF77AFB4FF40031EC
:10A610000423EBE70020FEF759FB002800F0C08080
:10A620000020FEF76DFB05232B70002241F69A11E6
:10A630006848BDE87040FDF763B90020FEF798FB5D
:10A6400006232B70002240F6CD416248BDE87040E1
:10A65000FDF756B9FEF776FB0C232B7070BD5E48F4
:10A66000FDF7A4F9D4F1110405467ED000287CD171
:10A67000012C13D0C82303FB04F44FF4FA704FF4F9
:10A6800000430021C3FB04014FF47A72002303F05E
:10A690006BFF2A4601465048FDF732F90220FEF7CB
:10A6A00023FB4B4B01221A7070BD494B1B78002BCA
:10A6B0007CD00020FEF724FB0120FEF721FB0320C5
:10A6C000FEF71EFB12232B7070BD414B1B78002B35
:10A6D00072D00020FEF714FB0120FEF711FB0320CF
:10A6E000FEF70EFB0020FEF7FFFA13232B7070BD60
:10A6F000374B1B78002B5CD00020FEF701FB0120BC
:10A70000FEF7FEFA0320FEF7FBFA3248FDF74EF99A
:10A7100000232B7070BD2E4B1B78002B4FD00020D8
:10A72000FEF7EEFA0120FEF7EBFA0320FEF7E8FA57
:10A730000120FEF7D9FA14232B7070BD0020FEF71C
:10A74000C5FAC8B10020FEF7DBFA022C4EF26661B2
:10A7500018BF4FF400312C7000221E48BDE8704035
:10A76000FDF7CEB8FEF7D8FACDE60220FEF7C8FA1C
:10A77000174B00221A7070BDFEF7B6FA43F2333160
:10A7800041F69A13022C08BF1946E4E7FEF7ACFA2B
:10A7900041F69A1129E7FEF7A7FA43F2333137E77A
:10A7A000FEF7A2FA3FE7FEF7B7FA04E7FEF7B4FABE
:10A7B00088E7FEF7B1FAA8E7FEF7AEFA92E7FEF7F0
:10A7C000ABFAB5E7883700208C370020943700209B
:10A7D000193700205C3700201C370020032801D9DE
:10A7E00000207047FEF7D6BA38B5C54B1C6814F088
:10A7F000010401D1204638BDC24C23780546E3B997
:10A80000172D00F28981DFE815F00B0135013501C4
:10A8100069007D009100A5005B003500280035002F
:10A820002800B300BA00BA00BA00BA00BA00E300C8
:10A83000F6002001420063006300B34B1B78002048
:10A840002070002B00F02B81FEF75AFA0120FEF752
:10A8500057FA0320FEF754FAD2E701231846237073
:10A86000FEF786FA00224FF48041A848BDE8384040
:10A87000FDF746B8012318462370FEF779FA002247
:10A8800040F6CD41A148BDE83840FDF739B89E4BB0
:10A890001B78002B00F024810020FEF731FA012004
:10A8A000FEF72EFA0320FEF72BFA0020FEF71CFA23
:10A8B0000120FEF719FA964B15221A70002499E729
:10A8C0000020FEF711FA924B07221A70002491E73C
:10A8D000FEF738FA8E4B00241D708BE70020FEF740
:10A8E000F5F9002800F0E5800020FEF709FA46F2AD
:10A8F0006661874B854803241C700022BDE8384000
:10A90000FCF7FEBF0020FEF7E1F9002800F0E08030
:10A910000020FEF7F5F94FF400317D4B7B4804240D
:10A920001C700022BDE83840FCF7EABF0020FEF7AB
:10A93000CDF9002800F0D1800020FEF7E1F9744B3A
:10A94000724805241C70002241F69A11BDE8384077
:10A95000FCF7D6BF0020FEF70BFA6D4B6B480624C0
:10A960001C70002240F6CD41BDE83840FCF7C8BF5E
:10A97000FEF7E8F9664B0C221A7000243AE76548A6
:10A98000FDF714F80446D5F1110000F08B80002C7F
:10A9900040F08880012814D0C82505FB00F54FF44D
:10A9A00000434FF4FA700021C3FB05014FF47A72A3
:10A9B000002303F0D9FD224601465648FCF7A0FFCC
:10A9C00004460220FEF790F94F4B01221A7011E75E
:10A9D0004D4B1B78002B00F086800020FEF790F98D
:10A9E0000120FEF78DF90320FEF78AF9484B122269
:10A9F0001A700024FEE6444B1B78002B79D000200F
:10AA0000FEF77EF90120FEF77BF90320FEF778F9C7
:10AA10000020FEF769F93E4B13221A700024E9E684
:10AA2000394B1B78002B61D00020FEF769F901201B
:10AA3000FEF766F90320FEF763F93448FCF7B6FF2A
:10AA4000334B002204461A70D4E62F4B1B78002BA0
:10AA500052D00020FEF754F90120FEF751F90320EF
:10AA6000FEF74EF90120FEF73FF9294B14221A7028
:10AA70000024BFE60020FEF729F9F8B10020FEF718
:10AA80003FF9022D4EF2666118BF4FF40031204BA2
:10AA90001E481D700022BDE83840FCF731BFFEF7AC
:10AAA0003BF9ADE60220FEF72BF9174B00221A7096
:10AAB000A0E6FEF719F941F69A111AE7FEF714F924
:10AAC00043F2333141F69A13022D08BF1946DEE7EF
:10AAD000FEF70AF943F233311FE7FEF705F92EE7D7
:10AAE000FEF71AF9E1E6FEF717F97FE7FEF714F92A
:10AAF000A3E7FEF711F98BE7FEF70EF9B2E700BF07
:10AB0000883700208C370020193700205C37002060
:10AB1000943700201C37002000246BE6F8B5254B45
:10AB2000254A196081070446106014D5234B244838
:10AB30000E2111250F27102619705D7240F26662F2
:10AB40000421DF709E71FCF741FB0546C0B1E307AD
:10AB50002AD42846F8BD10F00105FAD00120FEF7EE
:10AB60003FF9184A18480021FCF7B8FE05460028AE
:10AB7000EFD1164A16480121BDE8F840FCF7AEBEF9
:10AB8000FCF77CFB05460028E1D10146114A12483A
:10AB9000FCF7A4FEE2070546DBD50120FEF720F90D
:10ABA000002DDED02846F8BD0120FEF719F9284611
:10ABB000F8BD00BF90370020883700207C37002088
:10ABC0008CEF0200F1A40200B4EF020015A4020011
:10ABD000ACEF0200C1A40200B0EF0200032801D9CB
:10ABE00007207047012A12D0012917D008D3022963
:10ABF000F6D10D4B00EB4000034400205A70704723
:10AC0000094B00EB4000034400209A707047012973
:10AC100001D00022E8E700F10E02D2B200EB4003BF
:10AC200001490020CA5470477C370020032801D90D
:10AC30000620704708B5FEF7CDF8800000F1A0436C
:10AC40000020D3F8002722F44032C3F80027D3F8BD
:10AC5000002742F44032C3F8002708BD10B503882E
:10AC6000102B08D0112B05D1264B1868013818601D
:10AC700038B110BD10BD234C216881B10131216074
:10AC800010BD01220221FFF7A9FF48B3072827D0F2
:10AC90001D4B1B68002BECD0BDE81040184701226B
:10ACA0000846FFF79BFF48B1072807D0164B1B68E3
:10ACB00003B1984721680131216010BD07220221AC
:10ACC0000120FFF78BFF08B10728EFD104220221F2
:10ACD0000020FFF783FF0028ECD00728E6D1E9E742
:10ACE000072202210120FFF779FF08B10728CFD101
:10ACF000002108460A22FFF771FF0028B9D0072873
:10AD0000C6D110BDA03700209C37002008B5002018
:10AD1000FFF78CFF10B1062800D008BD0120FFF717
:10AD200085FF0028F9D0062808BF002008BD00BF15
:10AD3000194B10B5186031B101200C46FFF74EFDDC
:10AD400030B102232370154B186848B1002010BDA4
:10AD5000FFF744FDE8B9114B207018680028F5D1C1
:10AD600001220221FFF73AFF08B10728EFD107229D
:10AD700002210120FFF732FF08B10728E7D10021A7
:10AD800008460A22FFF72AFF0028DFD00728DED175
:10AD9000DCE70B232370D6E79C370020A037002088
:10ADA00075DF704776DF70477FDF70478FDF704752
:10ADB0000146014802F054B89C38002030B50388A1
:10ADC000103B83B00446462B31D8DFE803F03A4D00
:10ADD000305B3030303030303064303030723024DE
:10ADE0003030303030303030303030303030303063
:10ADF0003030303030303030303230303030303051
:10AE00003030303030303030303030303030303042
:10AE1000303030303200002380888DF8043001A9B2
:10AE20008DF80530FFF7C2FF08B1FCF73DFA03B01B
:10AE300030BD80881321FFF7B5FF0028F5D103B09E
:10AE400030BD81882248002202F034F900283BD12D
:10AE50000720FFF7C9FC002833D1A1881D4800F066
:10AE600081FD0028E3D0E0E71B4D1C48237AA2882F
:10AE70001B49401BC008000440F00300FBF7FAFD2B
:10AE800003B030BD002380881A468521FFF78CFF70
:10AE90000028CCD0C9E7037A022BC8D10E4B0F484B
:10AEA0001049C01AC008000440F00300FBF7EEFC94
:10AEB000BDE700F108018088FFF772FF0028B6D0D7
:10AEC000B3E7FCF7F1F9C8E7FCF7EEF9C0E700BF1C
:10AED0009C380020042A002028F9020050F90200C2
:10AEE000D0EF020000F0020070B50378012B044699
:10AEF00033D011D3022B0ED11C481D4B1D49C01A53
:10AF0000C008000440F00100FBF7C0FC6068BDE829
:10AF10007040FCF7C9B970BD174C184D2088284403
:10AF2000FCF784FE2288013292B21544228015F883
:10AF3000013C0A2B03D0124B1B8893420CD80F4EB6
:10AF4000104D3146284602F071F8082802D0132827
:10AF500007D040B90023238070BD0448044B0A4940
:10AF6000CDE72288EDE7FCF79FF9F3E750F90200FF
:10AF700028F9020098F1020098380020A437002038
:10AF8000002A00209C380020CCF1020010B50446B5
:10AF90000020FFF729FC10B92CB1012010BDFCF7EF
:10AFA00083F9002CF9D1FFF7B1FE0028F5D0FCF7AA
:10AFB0007BF9012010BD00BF0A8840F677239A4232
:10AFC00000D0704770B50C4B0C4D0D4EED1AED08CE
:10AFD0002D0445F003050C4628460A49FBF756FCAC
:10AFE000A4880949033CA4B228462346224634805B
:10AFF000BDE87040FBF73EBD28F9020050F90200A1
:10B00000002A0020C8F00200E4F00200042805D065
:10B010000A2802D10020FDF7A3BB704708B5064BF4
:10B0200013215888FFF7BEFE30F0080300D108BD99
:10B03000BDE80840FCF738B99C3800200378062B9F
:10B0400036D030B5072B85B01BD0042B01D005B00E
:10B0500030BD1B4B1B481C49C01AC008000440F0FF
:10B060000300FBF713FC194801F0AAFD20BB0120E7
:10B07000FFF7BAFB0028EAD005B0BDE83040FCF786
:10B0800013B941680F488C798B784A7803944D79CD
:10B090000B4C02950D790195001BC008C9780091F1
:10B0A000000440F003000A49FBF768FD05B030BD1D
:10B0B00040680028E3D17047FCF7F6F8D7E700BFF7
:10B0C00028F9020050F9020088F10200C03800207F
:10B0D00058F102002DE9F0470B78012B0C463CD0CB
:10B0E0001CD3022B18D1514B51485249C01AC008E9
:10B0F000000440F00300FBF7C9FB4F4801F060FD7E
:10B10000002840F08D800120FFF76EFB00285DD005
:10B11000BDE8F047FCF7C8B8BDE8F087434B444DA5
:10B120004649ED1AED082D0445F00305064628466C
:10B13000FBF7ACFB04F10E026188304601F0BAFF68
:10B1400000286AD1304601F049FF00285DD1284629
:10B150003B49BDE8F047FBF799BB91F80CA08E681E
:10B160001FFA8AF9BAF1000F5DD0314F2F4BDFF88B
:10B17000DC80FF1AFF083F0447F001070025705DDF
:10B18000FCF784FD044648B96B1C9A4513D01D4654
:10B19000705DFCF77BFD04460028F5D0112C2A4693
:10B1A00041463846EBD0FBF7EBFB2046FCF77CF83A
:10B1B0006B1C9A45EBD1735D0D2B09D0214D4A468E
:10B1C0003146284601F032FF044660B9BDE8F087F9
:10B1D0000A20FCF75BFD1128F0D10A20FCF756FD90
:10B1E0001128F5D0EAE71128E9D0104B104816498C
:10B1F000C01AC008000440F001002246FBF7C0FB63
:10B200002046BDE8F047FCF74FB8FCF74DF828465C
:10B210000B49BDE8F047FBF739BBFCF745F891E770
:10B22000FCF742F86FE74FF0FF35C4E728F902005A
:10B2300050F90200B8F00200C038002020F00200EF
:10B2400034F002009C3800208CF0020064F0020010
:10B2500008B50949094801F0CBFA48B9F721074870
:10B2600001F0DEFA00B908BDBDE80840FCF71CB8E3
:10B27000FCF71AF8F2E700BFB9AF0200AC380020C3
:10B2800000B54FF400418BB00020FBF769F908B11D
:10B29000FCF70AF8FBF7E8F8FCF7CCFA08B1FCF782
:10B2A00003F84A4D4A4B00930FCD04AC0FC495E808
:10B2B0000300484A484D029584E8030007234FF4F1
:10B2C000807404A8694601940394FCF735FC08B126
:10B2D000FBF7EAFF41490120FFF720FC08B1FBF72B
:10B2E000E3FF04A90020FFF723FD08B1FBF7DCFF13
:10B2F0003B4800F0B9FA08B1FBF7D6FFFDF7F2F9C9
:10B3000008B1FBF7D1FF01F0E5FE08B1FBF7CCFF78
:10B31000002304A90120049301F0BCFF08B1FBF74E
:10B32000C3FF04A802F094F808B1FBF7BDFFFFF7D4
:10B330008FFF2C4B2C48049304A901F0E3FD08B1C6
:10B34000FBF7B2FF102200210DEB020002F068F9BA
:10B35000012304A9254A26488DF814308DF81C30A5
:10B3600001F0D2FB08B1FBF79FFF224A20480321DE
:10B3700001F09EFB08B1FBF797FF002204211C4857
:10B3800001F0B2FB08B1FBF78FFF1B4802F050F948
:10B390001A4B1B481B49C01AC008000440F00300A8
:10B3A000FBF774FA124801F00BFC08B1FBF77CFFC5
:10B3B0000120FFF719FA08B1FBF776FFFBF72EF92A
:10B3C0000028FBD1FDF7A4F9F8E700BFB8EF0200B1
:10B3D00010390020E9AE0200103A00200DB0020042
:10B3E000B1AD0200D5B002009C3800203DB0020093
:10B3F000C03800200CF1020010F1020028F9020010
:10B4000050F9020034F102002DE9F84F4400DFF852
:10B410007CA126180AEBC6068146D6F82C80B8F126
:10B42000010F8B46174661D038D3B8F1020F30D1E7
:10B4300000F1010909EB4909756A4FEAC9094FF0A2
:10B4400000081CE0326A641BBC420AEB0901234677
:10B45000A2EB050428BF3B469C42486828BF1C4617
:10B4600028445946224602F0D0F8336A25449D42CA
:10B4700008BF00253F1BA044A34475620BD0B36AEC
:10B48000AB4203F1FF34DDD8326A1344013B5C1B4D
:10B49000DAE74FF000084046BDE8F88FB36A756AF6
:10B4A000AB429CBF326A9B18013B5B1B9F42F2D8A8
:10B4B00004440AEBC40400F10109266A761B09EB77
:10B4C0004909B7420AEBC90A56D3DAF804003246F2
:10B4D0002844BD1B02F099F8DAF804000BEB0601D2
:10B4E0002A4602F092F8B8466562D4E7B36A756AF4
:10B4F000AB4226D903F1FF38366AA8EB0508B845F8
:10B5000028BFB846761BB04523D309F1010707EBE6
:10B5100047070AEBC707A1447868324659462844D2
:10B520000AEBC90AA8EB060502F06FF878680BEB86
:10B5300006012A4602F069F8CAF824504046BDE8E0
:10B54000F88F366A03EB060808F1FF38A8EB050808
:10B55000D5E709F1010303EB43030AEBC303A1445D
:10B5600058680AEBC90A284459464246454402F045
:10B570004CF8CAF824508EE7DAF804003A4628441A
:10B580003D4402F042F8B846656284E76840002016
:10B59000F8B5114C114B124AE3614FF400750023CA
:10B5A000104FA36210266362E362A3656365E365DF
:10B5B0000D492562A2610225A264E01DE7642665AB
:10B5C0002561656102F04CF82046084902F048F810
:10B5D0002023A371F8BD00BF68400020203B00205D
:10B5E000F8F10200103B002004F2020008F2020011
:10B5F00064DF7047F0B587B005460E46104610234D
:10B6000002AA0DF103018DF80330FFF7F1FF65B1D8
:10B6100058B99DF80320042A0AD0102A47D0022ADC
:10B6200004D18DF80520032005E0002007B0F0BD0F
:10B630008DF80520052095F801E0002786453ED0CD
:10B6400076B3002301E09E422AD9E95C01310B4424
:10B650009BB2E9189C4649788142F4D1B3421FD28B
:10B660000137FFB20233022F9CB225D1002CDCD06F
:10B6700015F80C70013FBFB2002FD6D0002605E0B0
:10B680009DF803201644B6B2BE42CED230192844EB
:10B6900002A901F0ABFF0028F2D1012007B0F0BDF4
:10B6A0000137FFB2022FC0D09DF80500C6E7062380
:10B6B0008DF805300720BEE7002CF5D0D8E74FF015
:10B6C000000C6346CAE700BF9BDF70479DDF7047F1
:10B6D0009EDF7047F0B5324B1E6890F8C632A1B0BD
:10B6E0001EB3C3EB0315C3EB85035D0044192D4B5B
:10B6F000A4789F78A7421AD0012E16D99F79A74225
:10B7000047D0022E11D09F7AA7423CD0032E0CD0F6
:10B710009F7BA74231D0042E07D09F7CA74226D022
:10B72000052E02D09E7DA6421BD021B0F0BDB3F8FD
:10B7300000E0475BBE45DFD11B4B1E68002EF4D0F6
:10B7400015460C467C22002101A801F069FF012367
:10B7500001A8ADF8065002948DF80430B04721B02E
:10B76000F0BD9C8A435B9C42E6D021B0F0BDB3F8AB
:10B7700010E0475BBE45D3D1DEE7B3F80CE0475B92
:10B78000BE45C8D1D8E7B3F808E0475BBE45BDD198
:10B79000D2E7B3F804E0475BBE45B2D1CCE700BFC7
:10B7A000283D002030400020203D00202DE9F041C0
:10B7B00090F8C64290F8C532C4EB0415C4EB85047A
:10B7C000640000EB040C12269CF804E016FB034610
:10B7D0005D1C0A36754582B006443AD0734530D2B6
:10B7E00005EBC50504EB45040A3404440EF1FF38AB
:10B7F0009845358911D0E6880135B54217D0013E0C
:10B80000ADF80660ADF8045000230B70104601A996
:10B81000FFF75EFF02B0BDE8F081BCF80860B542FA
:10B8200015D00135ADF80450ADF80660ECE72646BA
:10B830005D1CEFB2BE452B4680F8C55204F11204E0
:10B84000D6D8012300200B7002B0BDE8F08100269D
:10B85000EEE73389BCF808008342F2D00133ADF83B
:10B860000430ADF80600CFE768B170B40749084A64
:10B87000084E094D1060012400230C7033602B60CA
:10B88000184670BC70470E2318467047243D0020B0
:10B89000203D0020283D00202C40002020B12D4BD1
:10B8A0001B781BB9082070470E20704770B42A4CD3
:10B8B0002A4B2268002A41D081789D788D421BD086
:10B8C000012A44D99D798D4233D0022A3FD09D7AF6
:10B8D0008D4229D0032A3AD09D7B8D421FD0042A65
:10B8E00035D09D7C8D4215D0052A30D09D7D8D426E
:10B8F0000BD0042070BC70471E880588AE42DFD193
:10B900001749096809B30020F4E79D8A01888D4230
:10B91000EFD1F5E71E8A0588AE42E5D1F0E79E89B2
:10B920000588AE42DBD1EBE71E890588AE42D1D156
:10B93000E6E706889D88AE42C7D1E1E701210068AD
:10B9400043F8220021600020D4E7052AD1D8511CF9
:10B95000F5E700BF243D0020283D002030400020B6
:10B96000203D002078B11D4B1B780BB90820704793
:10B970001B4B1B68002BF9D070B590F8C7620446CA
:10B980001EB1112070BD0E2070470D464FF433726A
:10B99000314601F045FE134A134B10682060A4F8AD
:10B9A000CA5284F8C96284F8C66284F8C562224625
:10B9B000284601211E60FFF787FE112807D00028C6
:10B9C000E0D1012384F8C80284F8C73270BD012396
:10B9D00084F8C73284F8C832304670BD243D002058
:10B9E000283D0020304000202C40002090B389B337
:10B9F000A94B1B7873B32DE9F04F0388113BA7B017
:10BA000004460D46222B00F28880DFE813F02A015D
:10BA100086008600860086008600860086008600F6
:10BA200086008600860086008600860086008600E6
:10BA300086008600860086008600860086008600D6
:10BA4000860086008600860086008600D600860076
:10BA5000CB00970070479389F382B38A2BB1F38AA6
:10BA60001BB1338B0BB1738B2BB9638901309842B7
:10BA700002F106027AD3762202FB01520EF1010393
:10BA80001279002693428DF81B6040F0E282012378
:10BA90008DF81B30DFF80C92B4F804A0D9F80060E0
:10BAA000002E00F05186762202FB01F2AB187B4F8C
:10BAB0009B78B878984200F0A184012E40F24B8622
:10BAC000B879984200F0A184022E15D0B87A984235
:10BAD00000F0A984032E0FD0B87B984200F09C841C
